:100000000C94BF050C94E7050C94E7050C94E705E8
:100010000C94E7050C94E7050C94E7050C94E705B0
:100020000C94E7050C94E7050C94E7050C94E705A0
:100030000C94E7050C94E7050C94E7050C94E70590
:100040000C947E2F0C94E7050C94AD310C94FB318D
:100050000C94E7050C94E7050C94E7050C94E70570
:100060000C94E7050C94E7058A059F05B405BC05CB
:10007000B405CD05DE05B405F305B405080619067B
:100080002B06B40516616E6E756C65720037202004
:100090003820203920206F6B003420203520203676
:1000A000202030003120203220203320203C005FEF
:1000B00000617A6572747975696F707173646667CF
:1000C000686A6B6C6D77786376626E5F183C0016B9
:1000D00000616E6E756C65720020006F6B005F00D2
:1000E0002000540A03E181867F3E186D830F0F0EB6
:1000F0000183866033186DC3198F1803C38E603374
:10010000186DE330CF1803C39E603630CDE360CF67
:100110003006C79E7E3E30CDB360CF300CC6F66051
:100120003330D9B660CF33CFCCF66061B0DB1E6020
:10013000CF30D86CE6C061B0DB1E618F19986CC6F9
:10014000C063B19B0E330F0FB078C6FF7E1F1B0636
:100150001E0F5344001700736463617264206E6F56
:1001600074206D6F756E746564006F7220696E63C4
:100170006F727265637420464154002F736463612B
:1001800072642F444630312E4C4456004572726FD3
:10019000723A004572726F723A20736463617264DE
:1001A000206B6F004572726F723A2066696C652031
:1001B0006D697373696E670069001600151000158C
:1001C000201000436F6D62617474657A2100564F90
:1001D0005553004841420046756972206C652063A2
:1001E0006F6D6261740054656E74657A20766F7409
:1001F0007265204368616E6365004F6B002B002BB6
:1002000000454E443A0009097F00FF80DD80888068
:10021000D880FD80F7807F0055004C616E63657269
:1002200020756E206465004C616E636572206465A4
:10023000757820646573004368616E63653A0043B6
:1002400048414E43455558004D414C4348414E436B
:10025000455558003E003C003D00412070726F70D3
:100260006F7300156F6B007765623A206D6F75676D
:10027000696E6F2E667265652E66720076302E315D
:10028000202831352D4155472D3230313529002078
:10029000004C6F67696369656C2050432063726529
:1002A00061204C44560076302E32202832342D41C5
:1002B00055472D32303135290020004D6F7465755A
:1002C000722047616D65626F6F6B75696E6F005B61
:1002D000464555494C4C452044274156454E5455BA
:1002E00052455D00486162696C6574653A00456E0F
:1002F000647572616E63653A004F723A0020706FE8
:100300000050726F766973696F6E733A0043686F5D
:10031000697369722000506F74696F6E20006427E2
:10032000416472657373650064652056696775651D
:10033000757200426F6E2E466F7274756E65005B4B
:10034000414354494F4E535D0053617576657220A9
:100350006C612070617274696500416C6C6572201B
:1003600061752E2E2E005B4551554950454D454E29
:10037000545D00416A6F75746572206571756970AE
:10038000656D656E74001A001000646563696D61C7
:100390006C3A2000546F633A203078007061723AF2
:1003A0002000456E647572616E6365202B340045D4
:1003B0006E647572616E6365206E69762E20696E5B
:1003C0006921004368616E6365206E6976656175B9
:1003D00020696E692B3100486162696C6574652023
:1003E0006E697665617520696E6921005361757665
:1003F00065676172646520656666656374756565C9
:100400000044454649532046414E544153544951B6
:10041000554553203031004C6520536F7263696538
:1004200072206465206C61204D6F6E7461676E652B
:100430002064652066657500401E00000000000015
:100440003C000000000000006A00000007FE000001
:10045000390000001040F801FA000000B0F98E01E8
:10046000F800000D8FFF63C7F000002BFFFFFB1F9C
:10047000000000C1EF7F13FCE0000183FD3F7BFB28
:10048000F00003EFB891F3DFE60009DFFEC6146F5A
:10049000E180103FFFCB1FF1F3A0207FFFCE01FAD8
:1004A000FB3058FFFF444741BE08F8FFFC501FCF08
:1004B000BF84C007EB04FFF997DCC019FA81FFFE87
:1004C0002BBAFC1A0C07FFFF17E01DC0385FFFFFB7
:1004D000F7F107B0303FFFFFF7F5003FC0F81FFF0F
:1004E000FE07000103FC9C00070100040FE0180652
:1004F000070E000017F80087021E0020401FFC00B6
:100500000FF0008300003FFFFC000104000000002A
:10051000000000080000000000000560000000006E
:1005200000000B000000000000005072657373654E
:100530007A201520706F757220726574656E74650F
:1005400072206C276176656E7475726500566F75E2
:10055000732065746573206D6F72742E2E2E005E8D
:10056000657065650A5E61726D75726520646520EF
:10057000637569720A5E736163206120646F730A38
:100580005E6C616E7465726E65004D6F6469662E97
:10059000207374617420636F7572616E7465004DB1
:1005A0006F6469662E20746F74616C20696E697463
:1005B00069616C00416E6E756C657200426F6972A4
:1005C0006520756E65206D65737572650050726586
:1005D0006E64726520756E2072657061730041757E
:1005E000676D656E7465722070726F766973696F7E
:1005F0006E73005375707072696D657220657175E8
:100600006970656D656E7400506F74696F6E2064FB
:10061000274164726573736500506F74696F6E2053
:100620006465205669677565757200502E20646593
:1006300020426F6E6E6520466F7274756E6500079E
:1006400007FE8282928282FE0707FE82A2828A824F
:10065000FE0707FE828692C282FE0707FE82AA82FA
:10066000AA82FE0707FEAA829282AAFE0707FEAAB6
:1006700082AA82AAFE0707FEFEFEEEFEFEFE070726
:10068000FEBEFEFEFEFAFE0707FEFAFEEEFEBEFE10
:100690000707FEBAFEFEFEBAFE0707FEBAFEEEFE32
:1006A000BAFE0707FEBAFEBAFEBAFE03053F213FB7
:1006B0001208120A100A0E1C0E0C1E0C141A141624
:1006C0001F161E131E1E1B1E1E1F1E3F213F3A2FEC
:1006D0003A173D173F213F181F02040A041F0E045A
:1006E000040E1F0A1F0A0E0E1F04110E2E252E2F98
:1006F0002A2E262929021F02081F08150E04040E9F
:10070000150E15151B151B040604040C040000002F
:100710000017000300031F0A1F16371A1904130AD3
:10072000153A000300000E11110E000A040A040E0F
:10073000040030000404040010001804031F111FFB
:10074000121F101D151711151F07041F17151D1F48
:10075000151D01011F1F151F17151F000A0000326C
:1007600000040A110A0A0A110A040115020E1117DF
:100770001E051E1F150A0E110A1F110E1F15111F2F
:1007800005010E111D1F041F111F1108100F1F045A
:100790001B1F10101F061F1E040F0E110E1F09062F
:1007A0000E112E1F051A121509011F011F101F0F10
:1007B000180F1F0C1F1B041B031C03191513001F0C
:1007C00011030418111F0002010220202000010261
:1007D0000C121E1F120C0C12120C121F0C1A1404F5
:1007E0001E05242A1E1F021C141D1020201D1F0878
:1007F00014111F101E041E1E021C0C120C3E0A04B3
:100800000C123E1E040214160A020F120E101E0EC7
:10081000100E1E081E120C1226281E322A26041E36
:1008200021001F00211E040102013F213F05077F17
:100830004141417F3E5B4F5B3E3E6B4F6B3E183C00
:10084000783C18183C7E3C181C577D571C1C5E7F5A
:100850005E1C007E43437E007E73737E007E7F7F3E
:100860007E7F4141417F30483A060E0629792906AC
:100870007F4141417F60703F02042A1C361C2A7F61
:100880003E1C080000081C3E7F14227F22143C3CC2
:100890003C7EFF18423C817E3E6375633E3E616B49
:1008A000633E3E636B6B3E04027F020410207F2098
:1008B0001008082A1C08081C2A0808143E55412262
:1008C000637569756310181C1810040C1C0C040067
:1008D0000000000000005F00000007000700147F18
:1008E000147F14042A7F2A102313086462364956A1
:1008F00020500008070300001C2241000041221C78
:10090000002A1C3E1C2A08083E080800E06000007F
:100910000808080808006060000060100804033E32
:100920005149453E00427F400062514949462141BC
:10093000494D331814127F1027454545393C4A4923
:1009400049304121110907364949493606494929A3
:100950001E000024000000806400000814224100F2
:100960001414141414004122140802015909063EFB
:10097000415D594E7C1211127C7F494949363E41F6
:100980004141227F4141221C7F494949417F090958
:1009900009013E414151327F0808087F00417F41F3
:1009A000002041413F017F081422417F40404040E8
:1009B0007F020C027F7F0204087F3E4141413E7F5F
:1009C000090909063E416141BE7F091929462649A8
:1009D00049493201017F01013F4040403F1F204013
:1009E000201F3F4038403F63140814630304780419
:1009F000036151494543007F4141000304081060F1
:100A00000041417F00040201020480808080800058
:100A10000307080020545478407F28444438384461
:100A2000444428384444287F3854545418087E09D4
:100A3000090218A4A49C787F0804047800447D402F
:100A400000006080847D7F1010284400417F4000BA
:100A50007C047804787C080404783844444438FCE6
:100A60001824241818242418FC7C080404080854AA
:100A7000545420043F4444203C4040207C1C2040EF
:100A8000201C3C4020403C44281028444C9090902E
:100A90007C4464544C44000836410000007F000050
:100AA0000041360800180408100C7F4141417F0ABC
:100AB0004E6F2053442063617264206F720A6E6F20
:100AC000204C4F414445522E4845580A0A153A4594
:100AD000786974001D20466C617368696E670A202E
:100AE000206C6F616465722E2E2E0A0A444F4E27C9
:100AF00054205455524E204F464621006D560A0A46
:100B0000504C454153450A5455524E204F464600DD
:100B10004C4F5720424154544552590A000000009E
:100B200000240027002A0000000000250028002BD8
:100B3000000000000023002600290004040404042F
:100B4000040404020202020202030303030303017A
:100B50000204081020408001020408102001020451
:100B60000810200000000700020100000304060036
:100B7000000000000000000076061B2D67331124E2
:100B80001FBECFEFD8E0DEBFCDBF11E0A0E0B1E0E7
:100B9000EEECF4E702C005900D92AA38B107D9F740
:100BA00016E0AAE8B1E001C01D92AD3AB107E1F745
:100BB0001BE0CEE7DBE004C02297FE010E940A3969
:100BC000C837D107C9F70E94BD330C94653A0C941D
:100BD00000008FEF8EBD0DB407FEFDCF8EB50895DA
:100BE0008EBD0DB407FEFDCF08959091B8018F34EE
:100BF00010F0845601C0891B890F8093B801909131
:100C0000B901603C28F08091B401885C860F0FC068
:100C10006E3830F08091B401681B862F865907C06A
:100C2000643618F0862F845602C0862F891B890FE0
:100C30008093B90108958091FD018F3F79F0815033
:100C40008F3F69F0E82FF0E0EF5FFC4FE081EE337B
:100C500031F0EC3321F0EE3591F701C08FEF0895BC
:100C60008091FD018F3FA1F08F5F9091FC01E82FF3
:100C7000F0E0EF5FFC4FE081891751F0EE2341F087
:100C8000EE3339F0EC3329F0EE3519F08F5FEFCF0A
:100C90008FEF0895E2E0F2E080E09081992311F473
:100CA0008F5F08959A3009F48F5F319693E0E030BA
:100CB000F90799F708958130B9F020E030E0422F2C
:100CC000F901EE5FFD4FE081EE2311F0EA3031F4DF
:100CD0009F5F981719F4842F8F5F08952F5F3F4F00
:100CE0002E3F310561F7089580E008951092B2011A
:100CF0001092B10186E791E09093B0018093AF012B
:100D00000895882329F08091B801845D8093B8010B
:100D10008FEA91E00E9484350895861729F48FEABE
:100D200091E068E572E010C0861728F48FEA91E040
:100D300066E572E009C08091B8018F5F8093B801C9
:100D40008FEA91E064E572E00E94F633089588230B
:100D5000B1F08091D1019091D201A091D301B091D5
:100D6000D40122E0B695A795979587952A95D1F756
:100D700080FF05C08FEA91E068E873E004C08FEA65
:100D800091E066E873E00E94F63308951F9381E0D6
:100D90008093A20110E38AE891E00E946D228823EB
:100DA000D1F38FEA91E06AE572E00E9441348FEA64
:100DB00091E060E04091B90124E50E94A01B84E627
:100DC00066E60E94F5058FEA91E06BEB72E00E9407
:100DD00041348FEA91E069EB72E00E94F6338FEACA
:100DE00091E066EA72E00E9441348FEA91E061E9A5
:100DF00072E00E9441348FEA91E06FE872E00E9455
:100E0000F6338FEA91E06CE772E00E9441348FEA9A
:100E100091E067E672E00E9441348FEA91E06DE272
:100E200078E00E94251E2091B30130E0C901880FAF
:100E3000991F820F931F909581959F4F2091B40128
:100E4000612F621B8C5A0E94F5058FEA91E063E6E0
:100E500072E00E9441348FEA91E06BEA76E00E94F2
:100E6000251E84E991E064E00E94681A882379F4E1
:100E700084E991E065E00E94681A882341F484E9DE
:100E800091E066E00E94681A882309F484CF1092EA
:100E9000A2011F910895AC01DC010D900020E9F73B
:100EA0001197A81BB90B60E020E030E01FC0E40FF1
:100EB000F51F7081872F80538A3028F06623D9F47C
:100EC0002FEF3FEF18C0C901F3E0880F991FFA9583
:100ED000E1F7220F331F280F391F20533040872F8F
:100EE000992787FD9095280F391F6F5FE62FF0E057
:100EF000EA17FB07E0F2C9010895AF92BF92CF92C3
:100F0000DF92EF92FF920F931F93DF93CF93CDB7B2
:100F1000DEB72E970FB6F894DEBF0FBECDBF7C01B3
:100F20005B018E010F5F1F4FC801B7014AE00E94AD
:100F3000C736A8E0CA2ED12CCC0EDD1EC601B701E3
:100F40004AE00E94C7364C855D854F5F5F4FC80100
:100F5000B50120E030E00E941836C6010E94F83644
:100F6000C8010E94F8362E960FB6F894DEBF0FBE69
:100F7000CDBFCF91DF911F910F91FF90EF90DF9048
:100F8000CF90BF90AF9008952F923F924F925F9273
:100F90006F927F928F929F92AF92BF92CF92DF9289
:100FA000EF92FF920F931F93DF93CF93CDB7DEB7EE
:100FB0002E970FB6F894DEBF0FBECDBF162F198245
:100FC0001A821B821C821E821D822FEF8F3F920786
:100FD00029F0BE016F5F7F4F0E947D07012F163001
:100FE00008F005E08FEA91E06DE278E00E94251EAE
:100FF00010E02224CE0101969E878D87802F90E0FD
:101000009C878B878AE891E00E946D228823D1F328
:101010008981882339F08FEA91E0BE016F5F7F4FAD
:101020000E9484358091D10182FF06C08FEA91E051
:101030006FEA70E00E94F6334091B4014F5F8FEA8F
:1010400091E060E024E50E94A01B8091B3016091D3
:10105000B4016C5F880F0E94F5058FEA91E064EAA5
:1010600070E00E9441348091B301880F66E60E94CF
:10107000F5058FEA91E069E970E00E9441348091C2
:10108000B301880F66E60E94F5058FEA91E06DE8EE
:1010900070E00E944134612E77248091B301282FA3
:1010A00030E0422C55240894411C511C3090B4016E
:1010B000133071F492E0291659F40F2EF0E08F2EC0
:1010C000F0E09F2EF0E2AF2EF0E4BF2EF02D0AC02C
:1010D0000F2EF0E08F2EF0E09F2EF0ECAF2EFFE30E
:1010E000BF2EF02DC301880F991F860D971D029604
:1010F000829F7001839FF00C929FF00C11248DEF62
:10110000E80E832D90E00296489E6001499ED00C27
:10111000589ED00C1124B901882777FD8095982F0F
:101120000E9496379B01AC01C501B4010E94223890
:1011300020E030E040E050E40E94FF360E94633738
:101140006F83788789879A8793E0390E8FEA91E0D9
:101150006E2D4C2D2F81032D33E0E32E0E940F1DA9
:101160008091B40121E3281B2093B9018FEA91E01B
:1011700064E870E00E94F63384E991E062E00E9446
:10118000681A882329F00894611C711C162D1370AD
:1011900084E991E060E00E94681A882319F01150F8
:1011A00008F413E084E991E063E00E94681A882360
:1011B00031F0C20163E070E00E94B838282E84E963
:1011C00091E061E00E94681A882331F02A948FEF41
:1011D000281611F4B2E02B2E84E991E064E00E941D
:1011E000681A882309F453C01330F1F492E02916E9
:1011F00061F48FEA91E06BEA76E00E94251ECE0151
:1012000001960E944B079C0152C0222069F4ED8593
:10121000FE8501900020E9F731978D859E85E81BBA
:10122000F90BEC0FFD1F32C0ED85FE85019000200B
:10123000E9F731978D859E85E81BF90B8B859C8599
:10124000E817F90720F5133011F420E308C01F5CFC
:1012500083E0289EC0011124212F280F11539E2FB7
:10126000915029F48981803311F4298308C09F5F4C
:10127000E1E0F0E0EC0FFD1FE90FF11D20839F5F1F
:10128000E1E0F0E0EC0FFD1FE90FF11D108284E9B1
:1012900091E065E00E94681A882309F4B3CE8FEAD2
:1012A00091E06BEA76E00E94251E2FEF3FEFC90127
:1012B0002E960FB6F894DEBF0FBECDBFCF91DF9153
:1012C0001F910F91FF90EF90DF90CF90BF90AF9064
:1012D0009F908F907F906F905F904F903F902F9056
:1012E00008950F931F938C01FC01808190E062E0D0
:1012F0000E94C407F80180831F910F910895E62F83
:10130000F0E0EF54FF4F6491882329F061361CF020
:101310006B370CF46F7D8FEA91E00E9419348FEAED
:1013200091E060EE70E00E94F63308954F925F9274
:101330006F927F928F929F92AF92BF92CF92DF92E5
:10134000EF92FF920F931F93CF93DF936C01862E42
:1013500010E0FF2499245AE0452E49EF642E4FEF08
:10136000742E31E3532E8AE891E00E946D22882387
:10137000D1F38FEA91E06BEA76E00E94251E80911E
:10138000B9018F5F8093B901F6018081882329F02C
:101390008FEA91E0B6010E9484358FEA91E06DE218
:1013A00078E00E94251E8091B90181508093B90197
:1013B0008091D10182FF06C08FEA91E06EED70E06E
:1013C0000E94F6334091B4014F5F8FEA91E060E0F4
:1013D00024E50E94A01B8FEA91E06BEA76E00E9470
:1013E000251E6091B4016B5F83E00E94F50500E06B
:1013F000892D602F0E947F090F5F0A30C9F7609125
:10140000B4016A5983E00E94F505892D602F0E947E
:101410007F090F5F0431C9F76091B4016A5983E015
:101420000E94F505892D602F0E947F090F5F0D3105
:10143000C9F78FEA91E06BED70E00E94413483E0E0
:1014400066E60E94F50500E38FEA91E0602F0E94B6
:1014500019348FEA91E069ED70E00E94F6330F5F76
:101460000A3391F7A12EBB248091B301A82FB0E0DD
:10147000CF2DD0E021960091B401FF2011F442E07D
:1014800001C041E0193031F4F2E0FF1619F4E2E056
:10149000F0E002C0E1E0F0E0CD01880F991F8A9DE5
:1014A000B0018B9D700D9A9D700D11246F5F802F80
:1014B00090E002969C01C29FC001C39F900DD29FF5
:1014C000900D1124480FEA9F9001EB9F300DFA9F79
:1014D000300D11242D5F0D5F8FEA91E073E0E72E50
:1014E0000E940F1D8091B301869D802D1124909143
:1014F000B401652D691B825B0E94F5058FEA91E0BE
:1015000061ED70E00E94F6338FEA91E06DE278E0E1
:101510000E94251E8091B90182508093B9018FEA03
:1015200091E06FEC70E00E94F63384E991E062E0B4
:101530000E94681A882339F0C50101966AE070E0BC
:101540000E94B838182F84E991E060E00E94681A80
:10155000882319F0115008F419E084E991E063E060
:101560000E94681A882319F063E0F62EFC2284E9B1
:1015700091E061E00E94681A882331F0FA943FEF0D
:10158000F31611F453E0F52E84E991E065E00E9432
:10159000681A882319F0F601108252C084E991E09C
:1015A00064E00E94681A882309F4DDCED6010D900C
:1015B0000020E9F71197AC19BD09193021F4F2E0C8
:1015C000FF1609F43DC02A2F33E0F31651F4A81595
:1015D00008F0C9CEF601EA0FF11D105D108310531B
:1015E0002AC0F49CF0011124E10FF11DEF54FF4FCC
:1015F00094919C3349F4AA2309F4B5CEF601EA0F7D
:10160000F11D31971082AFCE892F8851823030F48E
:1016100080E0992009F481E0982EA5CEA81508F065
:10162000A2CE9F3511F490E202C091109F7DF60189
:10163000E20FF11D90832F5FF601E20FF11DE2CF63
:101640008FEA91E06BEA76E00E94251EDF91CF9150
:101650001F910F91FF90EF90DF90CF90BF90AF90D0
:101660009F908F907F906F905F904F9008950F9311
:101670001F931092FB011092FC0110E0E12FF0E0AB
:10168000EF5FFC4F0081002319F41092FB0153C05F
:101690008091B90180331CF01093FC014CC00E33D3
:1016A00021F00C3311F00E3569F58091FD018F3F6B
:1016B00011F41093FD018091FD01811711F090E06C
:1016C00016C08091D1019091D201A091D301B09127
:1016D000D40162E0B695A795979587956A95D1F75D
:1016E00081709070A070B070982F811191E0892F57
:1016F0000E94A7068091FF01882379F00E3369F4D8
:101700001F5F0BC08091B801882311F40A3029F0C3
:101710008FEA91E0602F0E9419348091FB018823A9
:1017200041F48091B901181624F41F5F1093FB0156
:1017300011501F5FA3CF1F910F9108951F93162F74
:10174000442309F1882329F08091B801845D8093B6
:10175000B801112371F08FEA91E061E072E00E941C
:10176000F6338FEA91E0612F4AE050E00E94F534B1
:101770000AC06091B801605F8FEA91E040E126E025
:1017800032E00E94A81D1F910895AF92BF92CF92A0
:10179000DF92EF92FF920F931F93CF93DF93082F67
:1017A00081E08093A20161E070E080E090E027E0BA
:1017B00030E040E050E00E94F235162F013011F485
:1017C000BB240BC061E070E080E090E027E030E0F7
:1017D00040E050E00E94F235B62E812F90E07C016F
:1017E000EE0CFF1C23E531E0E20EF31E2B2D30E062
:1017F0006901C80ED91E1B0DE2E0AE2EE901CC0F27
:10180000DD1FCD5ADE4F8AE891E00E946D228823C9
:10181000D1F3002329F48FEA91E066EE71E00DC068
:10182000013029F48FEA91E06AE172E006C00230EB
:1018300031F48FEA91E067E272E00E9441348FEA6E
:1018400091E060E04091B90124E50E94A01BBB201B
:1018500041F0288139818FEA91E069E14CE00E94F2
:10186000A81DF701208131818FEA91E064E24CE00C
:101870000E94A81D6091B30170E0882777FD8095D4
:10188000982F0E94963720E030E048E351E40E9410
:1018900022380E946837DC01CB016DE00E94F5051B
:1018A00081E061E00E948D068FEA91E0B6014AE096
:1018B00050E00E9465350023F1F58FEA91E06DE27A
:1018C00078E00E94251E89E068E60E94F505812FD8
:1018D0006091EB010E948D068FEA91E067E372E070
:1018E0000E94F6338FEA91E06091EB014AE050E00C
:1018F0000E9407358091B9018C5F8093B9018FEA0E
:1019000091E06BEA76E00E94251EA092B7018091DB
:10191000EB0190E08C159D052CF08FEA91E06FE3D0
:1019200072E004C08FEA91E068E472E00E94F6334E
:1019300081E08093B70184E991E064E00E94681A35
:10194000882379F484E991E065E00E94681A88238D
:1019500041F484E991E066E00E94681A882309F462
:1019600052CF002339F48091EB01882319F0815084
:101970008093EB011092A201002339F420E08091C2
:10198000EB0190E08C159D050CF021E0822FDF919A
:10199000CF911F910F91FF90EF90DF90CF90BF906C
:1019A000AF9008952F923F924F925F926F927F92E5
:1019B0008F929F92AF92BF92CF92DF92EF92FF925F
:1019C0000F931F93CF93DF9381E08093A201009147
:1019D000FD010F5FC02FD0E0FE01EF5FFC4FE08103
:1019E000EA3011F0EE23A9F710E0C80185509D4FB1
:1019F0000E944B07482EC80181509D4F0E944B0703
:101A0000B82E992411E0FF24AA24C750DD4F70E2BC
:101A1000372E60E1262E01C011E08AE891E00E9495
:101A20006D228823D1F3BB2021F08091E901882326
:101A300021F4992009F44BC202C0992029F09A940C
:101A400081E0981609F42EC28FEA91E063EC71E010
:101A50000E9441348FEA91E060E046E024E50E9474
:101A6000A01B8091B9018E5F8093B9018FEA91E04C
:101A70006EEC71E00E94F6331092B801188260910A
:101A8000FD0170E06E5F7C4F81E00E94810638822C
:101A900088E068EC0E94F5056091E9011123A9F442
:101AA000CD1410F0FF2089F040E08091D101909199
:101AB000D201A091D301B091D40152E0B695A7957F
:101AC000979587955A95D1F780FF41E080E00E9475
:101AD0009E0B88E064E60E94F50520E030E01123CB
:101AE00011F421E030E08F2D90E028233923232BBF
:101AF000A9F4112399F4DC1488F440E08091D10119
:101B00009091D201A091D301B091D40132E0B69569
:101B1000A795979587953A95D1F780FF41E081E0A9
:101B20006B2D0E949E0B84E668EC0E94F505112344
:101B300009F098C0FF2009F095C0E72DF0E0EE0F06
:101B4000FF1FED5AFE4F208131818FEA91E060E066
:101B50004091B9010E94A81D4091B9014F5F409387
:101B6000B9014150E82DF0E0EE0FFF1FED5AFE4F96
:101B7000208131818FEA91E068E00E94A81D2092C7
:101B8000B8018FEA91E06FEF71E00E94F6338FEABF
:101B900091E06091E7014AE050E00E94F5348FEA5D
:101BA00091E063ED71E00E94F6334091B90141503C
:101BB0004093B901E52DF0E0EE0FFF1FE15AFE4F13
:101BC000208131818FEA91E06CE20E94A81D409152
:101BD000B9014F5F4093B9014150E62DF0E0EE0F9F
:101BE000FF1FE15AFE4F208131818FEA91E064E3CB
:101BF0000E94A81D8CE38093B8018FEA91E06DEFFD
:101C000071E00E94F6338FEA91E0642D4AE050E0E3
:101C10000E94F5348FEA91E063ED71E00E94413457
:101C20008FEA91E06DE278E00E94251E8AE08093C1
:101C3000B80181E061E00E948D068FEA91E06C2D91
:101C40004AE050E00E94F53486E38093B80181E0D9
:101C500061E00E948D068FEA91E06D2D4AE050E030
:101C60000E94F5348FEA91E06AE247E02DE10E949C
:101C7000AA1B112301F5FF20F1F48FEA91E06BEA32
:101C800076E00E94251E88E265E60E94F5058C2D0F
:101C90006D2D0E948D064091B90141502091B301F4
:101CA0002C5F0091B4010E5F8FEA91E066E2B3E031
:101CB000EB2E0E940F1D8FEA91E060E044E224E5E4
:101CC0000E94A01B992009F0A8CE80E065E20E9446
:101CD000F5051123F1F000E0FF2009F401E0802F69
:101CE0000E94A7068FEA91E063EC71E00E94413404
:101CF0008F2D0E94A7068FEA91E067ED71E00E94A8
:101D0000F63384E991E063E00E94681A882329F59C
:101D10001CC000E0AA2009F401E0802F0E94A70661
:101D20008FEA91E06AEF71E00E944134FF2019F4DC
:101D3000CD1409F4D0C08A2D0E94A7068FEA91E045
:101D400066EE71E00E94F633C6C084E991E061E07E
:101D50000E94681A882309F40F2D84E991E064E059
:101D60000E94681A882311F4F02E56CE002379F0D1
:101D70008091E90182508093E901843628F410E0D3
:101D8000FF24F394AA2449CE1092E901F8CF61E030
:101D900070E080E090E027E030E040E050E00E941A
:101DA000F235562E61E070E080E090E027E030E010
:101DB00040E050E00E94F235662E61E070E080E085
:101DC00090E027E030E040E050E00E94F235762ECF
:101DD00061E070E080E090E027E030E040E050E03B
:101DE0000E94F235862EC72CC60E8091E701C80EE0
:101DF000D52CD60CD40CCD1460F48091E90182501E
:101E00008093E901843610F01092E901FF2410E07C
:101E1000B9CFDC14D8F78EEFB80E83E68B15B0F788
:101E2000FF2410E0AA24BB24F8CD84E991E061E00E
:101E30000E94681A882321F0FF2009F4CD10A02EFB
:101E400084E991E064E00E94681A882309F4E5CDF2
:101E5000AA2029F180E00E94C50B882381F0FF2091
:101E600011F4CD1430F48091E9018F5F8093E90182
:101E700016C08EEFB80E83E68B15B0F1CDCDFF20E6
:101E800011F4CD1450F48091E90182508093E9015E
:101E9000843628F01092E90102C0B394BDCDFF2032
:101EA00009F4BACD1092A201DF91CF911F910F9149
:101EB000FF90EF90DF90CF90BF90AF909F908F906A
:101EC0007F906F905F904F903F902F900895A5E185
:101ED0009A2E11E0B4CD84E991E063E00E94681A83
:101EE000882309F0A9CFA1CFBB2496CD0F931F93D0
:101EF000DF93CF9300D000D0CDB7DEB78E010F5F58
:101F00001F4FB8010E947D07E1E0F3E0DF010D9073
:101F10000020E9F7AF014A1B5B0B4C545F4FCF0128
:101F2000B8010E94C4390F900F900F900F90CF917D
:101F3000DF911F910F910895BC01DC010D900020ED
:101F4000E9F71197A81BB90B81E093E0AD010E945E
:101F5000C4390895BC01E1E0F3E0DF010D900020F9
:101F6000E9F7AF014A1B5B0B4C545F4FCF010E9456
:101F7000923908951F9381E093E060E071E00E9440
:101F8000BD398091F7019091F801892B41F48FECD4
:101F900092E00E94AA0F81E091E00E949C0F809144
:101FA000F7019091F8010297D4F483E091E00E9448
:101FB0009C0F84EE92E00E94AA0F8091E70190E0CE
:101FC0000E94760F86E091E00E949C0F8091E801CC
:101FD00090E00E94760F81E091E00E949C0F80913A
:101FE000F7019091F8010397D4F488E091E00E9402
:101FF0009C0F8EEE92E00E94AA0F8091E90190E082
:102000000E94760F86E091E00E949C0F8091EA0189
:1020100090E00E94760F81E091E00E949C0F8091F9
:10202000F7019091F8010497D4F48BE091E00E94BD
:102030009C0F87E392E00E94AA0F8091EB0190E051
:102040000E94760F86E091E00E949C0F8091EC0147
:1020500090E00E94760F81E091E00E949C0F8091B9
:10206000F7019091F8010597ACF48EE091E00E94A1
:102070009C0F89EF92E00E94AA0F8091EF0190E0FF
:102080000E94760F8DEF92E00E94AA0F81E091E00E
:102090000E949C0F8091F7019091F80106978CF4B3
:1020A00081E191E00E949C0F81E093E00E94AA0FE1
:1020B0008091F00190E00E94760F81E091E00E9413
:1020C0009C0F8091F7019091F80107970CF03FC0A9
:1020D0008091EE018F3F69F484E191E00E949C0FB2
:1020E0008DE093E00E94AA0F86E193E00E94AA0F80
:1020F0002AC084E191E00E949C0F86E193E00E9457
:10210000AA0F8091EE01882319F48EE193E009C0B3
:10211000813019F488E293E004C0823021F483E333
:1021200093E00E94AA0F8091ED01823019F487E1BB
:1021300091E007C0813019F489E191E002C08BE1A0
:1021400091E00E949C0F81E091E00E949C0F8091A1
:10215000F7019091F801089744F48FE393E00E940F
:10216000AA0F81E091E00E949C0F8091F70190916D
:10217000F801099764F48DE191E00E949C0F89E4D5
:1021800093E00E94AA0F81E091E00E949C0F809151
:10219000F7019091F8010A9764F480E291E00E94BF
:1021A0009C0F8AE192E00E94AA0F81E091E00E94D8
:1021B0009C0F8091F7019091F8010B9764F483E2F2
:1021C00091E00E949C0F87E292E00E94AA0F81E0BA
:1021D00091E00E949C0F8091F7019091F8010C977B
:1021E00064F486E291E00E949C0F8AE593E00E94ED
:1021F000AA0F81E091E00E949C0F8091F7019091DD
:10220000F8010D9744F486E693E00E94AA0F81E05E
:1022100091E00E949C0F10E014C0812F90E00D9679
:102220002091F7013091F801821793074CF0812F2C
:102230000E945B0690E08E5F9D4F0E949C0F05C040
:102240001F5F0E944A06181740F389E291E00E943E
:102250009C0F83E793E00E94AA0F1092B4031F9192
:102260000895DF93CF9300D000D000D0CDB7DEB774
:102270009C01220F331F280F391F442737FD40953B
:10228000542FCA01B9010E94F227CE01039663E0E0
:1022900070E0AE014F5F5F4F0E94AF2A2B8130E0AC
:1022A00040E050E0542F432F322F22278C81280FFB
:1022B000311D411D511D542F432F322F22278D8157
:1022C000280F311D411D511DB901CA0126960FB6B7
:1022D000F894DEBF0FBECDBFCF91DF9108958F92EE
:1022E0009F92AF92BF92CF92DF92EF92FF920F93A5
:1022F0001F93DF93CF9300D0CDB7DEB78091F1016C
:102300009091F2010E9431114B015C018091F30127
:102310009091F401A0E0B0E0880E991EAA1EBB1EA9
:102320008091F1019091F20101960E9431116B01AF
:102330007C01C818D908EA08FB0883EBC816D10449
:10234000E104F1042CF0B2EBCB2ED12CE12CF12CDA
:102350008601C501B4010E94F22781E093E0B60135
:10236000AE014F5F5F4F0E94AF2A0F5F1C4FF80115
:1023700011820F900F90CF91DF911F910F91FF90DD
:10238000EF90DF90CF90BF90AF909F908F90089587
:10239000CF92DF92EF92FF920F931F93DF93CF9331
:1023A000CDB7DEB72B970FB6F894DEBF0FBECDBF0B
:1023B0008C011092F4011092F3011092F801109226
:1023C000F701181619061CF00E946F1160C06E010B
:1023D0000894C108D1087E010894E11CF11CE80EA4
:1023E000F91E0E946F1191E021E080E0E82FF0E0FB
:1023F000EF5FFC4FE081EE23A9F0293098F4923092
:1024000010F4EA3069F09F5F963110F4EA3041F43D
:102410002F5FF601E20FF11D8F5F8083815091E005
:102420008F5FE4CFE091F701F091F8010E171F07DD
:1024300031F1CF0108962091F3013091F40180171A
:10244000910794F0E095F095EE0DFF1D8081280F27
:10245000311D3093F4012093F3011093F8010093A0
:10246000F7010E946F110BC09093F8018093F70160
:102470008885280F311D3093F4012093F30180915A
:10248000F7019091F8018017910709F0AACF2B96D8
:102490000FB6F894DEBF0FBECDBFCF91DF911F9175
:1024A0000F91FF90EF90DF90CF9008951092F80178
:1024B0001092F7011092F4011092F3018FEF8093C4
:1024C000FD010E946F1108952F923F924F925F92EB
:1024D0006F927F928F929F92AF92BF92CF92DF9234
:1024E000EF92FF920F931F93CF93DF931C014B0149
:1024F0002A018091D001882309F4B0C181E0809342
:10250000B7011092B6011092B5011092A2018FEAA4
:1025100091E061E00E941B1B69E1662E712C8AE844
:1025200091E00E946D228823D1F38FEA91E060E070
:1025300040E022EE30E00E94A81D4091B401445FCB
:102540008FEA91E060E092010E94A81D80E06CE0BB
:102550000E94F5058091000290910102892B09F0FB
:10256000C4C09301442737FD4095542F6091D10199
:102570007091D2018091D3019091D4010E94CB3807
:102580009B01AC01243131054105510520F48FEA4E
:1025900091E0B1015EC02931310541055105C8F412
:1025A0000091B30110E08FEA91E0B4010E94F6338C
:1025B000809FE001819FD00D909FD00D1124C455C4
:1025C000D0403E01660C771C63E270E0660E771E19
:1025D00042C05E01CC24B7FCC094DC2CDA01C901F6
:1025E0004997A109B1098A159B05AC05BD0528F4D9
:1025F0008091B801875E821B27C079018A01EA18A1
:10260000FB080C091D09D801C7014997A109B109A7
:102610000597A105B10520F48091B8018C1B14C069
:1026200082EE9FEFAFEFBFEFE80EF91E0A1F1B1FF0
:10263000EA14FB040C051D0548F48091B8018E5185
:10264000DE01AA0F8A1B820F8093B8018FEA91E006
:10265000B4010E94F6332091B30130E0C901880F24
:10266000991F820F931F909581959F4F2091B401E0
:1026700030E0B901660F771F620F731F7095619587
:102680007F4F635D8D5A0E94F5058091D10184FFD3
:1026900005C08FEA91E06FEB71E004C08FEA91E032
:1026A0006CEB71E00E9441342091B30130E0C9012C
:1026B000880F991F820F931F909581959F4F8D5A78
:1026C00065E60E94F5058FEA91E06AEB71E00E94F1
:1026D000F6338091B8018D5F8093B8018FEA91E065
:1026E00068EB71E00E94413452C08FEA91E060E0F3
:1026F0004CE024E50CE10E94B41B8FEA91E060E01D
:102700000E941B1B8FEA91E062E04EE020E508E1A9
:102710000E94B41B8FEA91E061E00E941B1B85E0E0
:1027200062E10E94F50580910002909101028330E0
:10273000910519F464EA71E007C0019719F463E99F
:1027400071E002C06CE871E08FEA91E00E944134D0
:1027500085E068E60E94F5058091000290910102F3
:102760008330910519F46BE771E007C0019719F404
:102770006AE671E002C067E571E08FEA91E00E94CD
:10278000F6338091B401BEE2B81BB093B901209139
:10279000B30130E0C901880F991F820F931F9095F4
:1027A00081959F4F8D5A65E60E94F5058FEA91E06D
:1027B00065E571E00E94F6338091B8018F5F8093E8
:1027C000B8018FEA91E062E571E00E9441348091A6
:1027D000000290910102892BD1F584E991E064E037
:1027E0000E94681A8823A9F46091D001262F30E056
:1027F00040E050E08091D1019091D201A091D301AD
:10280000B091D40182179307A407B50700F16F3F79
:10281000F1F08FEF8093D0011092FF010E945612C9
:102820001DC084E991E065E00E94681A882311F0D8
:102830000E94C60684E991E066E00E94681A882337
:1028400009F46DCE8AE891E00E941D2168CE809146
:10285000000290910102892B69F7E3CFDF91CF91BC
:102860001F910F91FF90EF90DF90CF90BF90AF90AE
:102870009F908F907F906F905F904F903F902F90A0
:102880000895CF93DF9386EF95E060E070E04FEF1F
:102890000E94792D86EF95E061E070E04FED0E9497
:1028A000792D86EF95E062E070E04091E7010E94AB
:1028B000792D86EF95E063E070E04091E8010E9499
:1028C000792D86EF95E064E070E04091E9010E9487
:1028D000792D86EF95E065E070E04091EA010E9475
:1028E000792D86EF95E066E070E04091EB010E9463
:1028F000792D86EF95E067E070E04091EC010E9451
:10290000792D86EF95E068E070E04091ED010E943E
:10291000792D86EF95E069E070E04091EE010E942C
:10292000792D86EF95E06AE070E04091EF010E941A
:10293000792D86EF95E06BE070E04091F0010E9408
:10294000792D4091F20186EF95E06CE070E00E94F5
:10295000792D86EF95E06DE070E04091F1010E94E5
:10296000792DCEE0D0E0FE01EC50FE4F86EF95E0F1
:10297000BE0140810E94792D219681E0CC30D8079C
:1029800091F7DF91CF9108950F931F93CF93DF932A
:1029900086EF95E060E070E00E94722D182F00E055
:1029A00086EF95E061E070E00E94722D080F111D26
:1029B0000F5D1F4F09F07AC086EF95E062E070E08E
:1029C0000E94722D8093E70186EF95E063E070E04E
:1029D0000E94722D8093E80186EF95E064E070E03C
:1029E0000E94722D8093E90186EF95E065E070E02A
:1029F0000E94722D8093EA0186EF95E066E070E018
:102A00000E94722D8093EB0186EF95E067E070E005
:102A10000E94722D8093EC0186EF95E068E070E0F3
:102A20000E94722D8093ED0186EF95E069E070E0E1
:102A30000E94722D8093EE0186EF95E06AE070E0CF
:102A40000E94722D8093EF0186EF95E06BE070E0BD
:102A50000E94722D8093F00186EF95E06CE070E0AB
:102A60000E94722D182F00E01093F2010093F101E3
:102A700086EF95E06DE070E00E94722D080F111D49
:102A80001093F2010093F101CEE0D0E086EF95E0E3
:102A9000BE010E94722DFE01EC50FE4F80832196F4
:102AA00081E0CC30D80791F710920003DF91CF91ED
:102AB0001F910F91089582E08093ED018AE0809349
:102AC000F00161E070E080E090E027E030E040E07D
:102AD00050E00E94F2356A5F6093E8016093E7017D
:102AE00062E070E080E090E02DE030E040E050E017
:102AF0000E94F235645F6093EA016093E90161E04E
:102B000070E080E090E027E030E040E050E00E949C
:102B1000F2356A5F6093EC016093EB018FEF809375
:102B2000EE011092F2011092F10182E092E06FE565
:102B300075E00E948B390895CF92DF92EF92FF9259
:102B40000F931F93DF93CF93CDB7DEB761970FB687
:102B5000F894DEBF0FBECDBF8AE891E00E946D22DF
:102B6000882309F472C38091E901882309F58091D3
:102B7000FF018823E9F48FEA91E065E240E026E076
:102B800032E00E94A81D8AE08093B90181E0809321
:102B9000B6018FEA91E06DE475E00E9441348FEA5E
:102BA00091E06AE275E00E9441341092B601BCC027
:102BB00081E08093B6010E94370B1092B60184E940
:102BC00091E063E00E94681A8823A1F10E94300618
:102BD0008F3F19F00E9430062BC02091FB01222369
:102BE00049F18091F7019091F80101969093F801D5
:102BF0008093F7018091F3019091F401820F911D70
:102C00009093F4018093F3018091FF01882319F0E0
:102C10000E94BA0F02C00E946F118091FD018F3F88
:102C200049F09091FB01891710F48FEF01C0891BC7
:102C30008093FD0184E991E061E00E94681A882395
:102C400009F10E941B068F3F19F00E941B0618C055
:102C50002091F7013091F8012115310599F080910B
:102C6000FF0121503040882339F03093F801209340
:102C7000F7010E94BA0F03C0C9010E94C8118FEF6B
:102C80008093FD0184E991E062E00E94681A882344
:102C900019F12091FC012223F9F08FEF8093FD01BF
:102CA0008091F7019091F80108969093F801809334
:102CB000F7018091F3019091F401820F911D90939F
:102CC000F4018093F3018091FF01882319F00E94A1
:102CD000BA0F02C00E946F1184E991E060E00E9487
:102CE000681A882309F12091F7013091F801211524
:102CF0003105D1F08091FF01882379F0283031052A
:102D00001CF480E090E002C0C90108979093F8019C
:102D10008093F7010E94BA0F04C0C90108970E946E
:102D2000C8118FEF8093FD0184E991E064E00E9477
:102D3000681A882341F08091E901882321F40E94D8
:102D40005B150E94561284E991E064E00E94681AC3
:102D5000882309F418C2E091FD01EF3F09F413C282
:102D60008091FF012E2F30E0882309F4EEC1F90194
:102D7000EF5FFC4F80818E3509F050C08AE891E00A
:102D800068E770E042E00E941623882309F0FBC147
:102D90008091FD01282F30E010E07E010894E11CB5
:102DA000F11C812F90E0FC01E20FF31F6701C80EB8
:102DB000D91EEF5FFC4F8081D6018C93012F0F5FEE
:102DC0008A3071F4F701E00FF11D108282E092E089
:102DD000B7010E94E3399C01009721F0102F0AC02F
:102DE000102FDFCFF601108282E092E0B7010E943F
:102DF000E3399C0140E0612F70E0F901E40FF11D1F
:102E0000DF01A60FB71F8C918083882311F04F5FDD
:102E1000F4CF0E94BA0F0E941B0694C18E3309F0B2
:102E2000B2C18181863009F4D2C087304CF484303D
:102E300009F482C085300CF093C08130A4F4A3C1A2
:102E40008B3009F423C18C303CF4893009F40EC175
:102E50008A3009F098C118C18C3009F419C18D303D
:102E600009F091C12BC18AE891E068E670E043E087
:102E70000E941623992787FD909597FD84C1823083
:102E8000910509F480C19C01B3E0220F331FBA956C
:102E9000E1F7880F991F280F391FE091FD01F0E03D
:102EA000EF5FFC4F8181992787FD9095280F391F8F
:102EB00023303105D1F0243031053CF42130310587
:102EC00071F022303105F1F40DC02C30310599F04C
:102ED0002D30310599F02B303105A1F409C087EE72
:102EE00091E00EC089EE91E00BC08BEE91E008C03E
:102EF00088EE91E005C08AEE91E002C08CEE91E090
:102F00000E9471099091E8018091E701981710F4EF
:102F10009093E7019091EA018091E901981710F4EC
:102F20009093E9019091EC018091EB01981708F0E2
:102F30009AC09093EB0197C08091EF0190E063E01D
:102F40000E94C407FFEF8F3F9F0709F41CC18F3F0A
:102F5000910519F014F08FEF90E08093EF0183C09A
:102F60008AE891E062E770E043E00E941623282F90
:102F7000332727FD309521153105B9F49091F001E3
:102F8000992399F091509093F0018091E9018C5F21
:102F90008093E9019091EA01981710F49093E90168
:102FA0008AE891E062EA73E05BC02130310509F004
:102FB000EAC08091F00190E062E00E94C4072FEF28
:102FC0008F3F920709F4DFC08093F0014CC08091DD
:102FD000EE018F3F81F48AE891E06CE770E044E015
:102FE0000E941623992787FD909583309105D8F587
:102FF0008093EE0138C08091ED018823A1F18AE829
:1030000091E06EE670E042E00E941623882359F5B5
:103010008091ED0181508093ED018091EE0181302E
:1030200049F48091EA018093E9018AE891E06FEA2E
:1030300073E016C0823061F48091EC018F5F809361
:10304000EC018093EB018AE891E063EC73E008C047
:103050008091E8018093E7018AE891E067ED73E0F1
:103060004FE00E9491200E94BA0F8DC00E9441142F
:103070001092FF010E9456128AE891E06CEE73E014
:103080004FE00E9491207FC081E074C082E072C056
:103090008FEF9FEF63E00E94C407AFEF8F3F9A0767
:1030A00009F471C0B1E081399B070CF06CC09093BA
:1030B000F2018093F1011092FF0156C019821A8229
:1030C0001B821C82FE013596DF011D928A95E9F76D
:1030D000CE01019660E10E9496098981882309F456
:1030E00052C0A2E0B2E0FD0101900020E9F7319763
:1030F000EA1BFB0BEE3FF10508F045C08091020290
:10310000882329F0CD0161E071E00E94B23902E02C
:1031100012E0C8016DE271E00E94B239F80101903D
:103120000020E9F741E053E04E1B5F0BC801BE01F0
:103130006F5F7F4F0E94C439109200030E94BA0F44
:103140000E9430068093FD011EC0F901EF5FFC4F25
:10315000E081EE3361F4C9018E5F9C4F0E944B0702
:103160009093F2018093F1010E9456120CC0EC334F
:1031700021F480E00E94C50B06C0EE3521F40E94C8
:10318000D20C0E946F1184E991E065E00E94681AF8
:10319000882309F442C090E08091FF01882309F45C
:1031A00091E09093FF01992311F18091F3019091A7
:1031B000F4019093F6018093F5018091F7019091CD
:1031C000F8019093FA018093F9018091FD018093B9
:1031D000FE011092F8011092F7011092F401109282
:1031E000F3018FEF8093FD010E94BA0F16C080910A
:1031F000F5019091F6019093F4018093F301809191
:10320000F9019091FA019093F8018093F701809170
:10321000FE018093FD010E946F1184E991E066E058
:103220000E94681A882389F00E9441148AE891E07C
:103230006CEE73E04FE00E94912081E094E067E142
:1032400074E048E354E00E94641261960FB6F8946B
:10325000DEBF0FBECDBFCF91DF911F910F91FF90C9
:10326000EF90DF90CF9008950F931F930AE811E03D
:10327000C8010E942F24C8016AE00E94872088E8C4
:1032800096E040E855E260E070E00E94363285EF5B
:1032900095E06AE070E049EE55E020EF35E00E94ED
:1032A0003F2D8FE291E00E94552A90930102809376
:1032B00000020E945B150E94C41481E094E067E163
:1032C00074E048E354E00E946412C8010E94222284
:1032D0001F910F910895882319F48CB5806202C064
:1032E0008CB58F7D8CBD08959CB5937F982B9CBD2C
:1032F00008952CB5382F33702C7F322B3CBD2DB563
:1033000090E0959587959595879581702E7F822B76
:103310008DBD08958AE061E00E9449318AE061E054
:103320000E94DD308CB580618CBD8CB580648CBD15
:103330008DE061E00E94DD308BE061E00E94DD30D5
:103340000895FC0181E08083089585E070E00E948B
:103350007D3008956F927F928F929F92AF92BF922D
:10336000CF92DF92EF92FF920F931F93CF93DF9351
:10337000EC0189819A818C0124E0000F111F2A95AC
:10338000E1F7081B190B85E10E945B30BC01600F5F
:10339000711F84E0769567958A95E1F77A83698352
:1033A0008881882381F12E813F816217730710F491
:1033B000B90106C0888599858617970708F4BC016E
:1033C00000D000D080E090E040E050E0E884F98454
:1033D00000E010E0AD80BB24CC24DD246C80772499
:1033E00088249924EDB7FEB7618272828382948229
:1033F0000E9487356B830F900F900F900F9085E0A0
:1034000070E00E947D30DF91CF911F910F91FF906E
:10341000EF90DF90CF90BF90AF909F908F907F9074
:103420006F900895FC018CE39FE09383828384E096
:10343000818381E084870895CF93DF93EC018C85AD
:1034400090E08F719070892B69F584E10E945B3068
:10345000AA2797FDA095BA2FBC01CD010E949637EF
:1034600026EE3FE34EEC50E40E9422380E9468377B
:103470009B01AC017B836A836115710589F084E04F
:103480008983B901FE0120E084819581681779075D
:1034900010F429830AC02F5F32962430A9F702C0A6
:1034A0008FEF89838C858F5F8C87DF91CF91089513
:1034B000FC0188E0808389E0818387E0828386E065
:1034C000838384E0848382E0858381E18683089519
:1034D00020E0FC01E60FF11D8781813009F421E035
:1034E000822F0895E62FF0E0423040F420E0E80F0C
:1034F000F91F878181508E3F88F40FC0E80FF91FB4
:1035000087818F3F11F420E009C020E090E0642F14
:1035100070E00E94A438019709F421E0822F0895F9
:103520000F931F93CF93DF93EC0110E00FEF88818F
:1035300062E00E94DD3088810E947C312F81892BDE
:1035400019F42F5F2F8307C0222349F02F3F11F476
:103550001F8201C00F83888160E00E94DD301F5F01
:103560002196173021F7DF91CF911F910F91089588
:10357000FC01742F643508F05DC047FD5BC040332B
:103580000CF058C0878D823019F5842F859585956C
:103590008595992787FD9095462F552747FD50958E
:1035A00024E530E0829FF001839FF00D929FF00DA3
:1035B0001124E40FF51FEB54FC4F808190E0272F7E
:1035C000277002C0959587952A95E2F780958170BE
:1035D000972F959595959595462F552747FD50958D
:1035E000272F27708823A1F4E4E59E02F00111241F
:1035F000E40FF51FEB54FC4F81E090E002C0880F10
:10360000991F2A95E2F78095208128232083089529
:10361000E4E59E02F0011124E40FF51FEB54FC4F8A
:1036200081E090E002C0880F991F2A95E2F720817F
:10363000282B20830895FC01678F60A30895FC0167
:10364000678F40A30895AF92BF92CF92DF92EF921F
:10365000FF920F931F93CF93DF93EC01162FF42E5D
:10366000E22EAA24402F552747FD50958F2D9927EC
:1036700087FD9095481B590B57FF03C05095419506
:103680005F4F2E2D332727FD3095812F992787FDFA
:103690009095281B390B37FF03C0309521953F4F7C
:1036A0002417350744F4AA24A3948F2DF12E182F44
:1036B000802F0E2DE82EE11634F48E2DE12E182FDA
:1036C000802F0F2DF82EDE2CD11A202F332727FD27
:1036D00030958F2D992787FD9095281B390B37FF43
:1036E00003C0309521953F4FB22EF0161CF0CC242C
:1036F000CA9402C0CC24C3948D2DD7FC8F5F082FB1
:10370000059511C0AA2021F0CE016F2D412F03C0D5
:10371000CE01612F4F2D0E94B81A0B1907FF02C06E
:10372000FC0C0D0D1F5FE1166CF7DF91CF911F911F
:103730000F91FF90EF90DF90CF90BF90AF900895E2
:103740000F93042F322F262F2150230F0E94231B6B
:103750000F9108950F93362F042F0150020F232F3E
:103760000E94231B0F9108959F92AF92BF92CF9218
:10377000DF92EF92FF920F931F93CF93DF936C0131
:10378000B62E942EA02EC0E0D0E0E62EFF24E7FC5B
:10379000F094022F112707FD10950E0D1F1D06C076
:1037A000C601492D2A2D0E94AA1B21966B2D6C0F54
:1037B000CE018E0D9F1D8017910794F3DF91CF915D
:1037C0001F910F91FF90EF90DF90CF90BF90AF903F
:1037D0009F9008952F923F925F926F927F928F9267
:1037E0009F92AF92BF92CF92DF92EF92FF920F9390
:1037F0001F93DF93CF9300D000D000D0CDB7DEB7BA
:103800009E838D83C62ED42EEE24E394E21A8EEF8F
:10381000289F502C1124842E8A94962E9A94A42E9C
:10382000A394B62EB394F22E662423E0722E10E0F9
:10383000C801847090709A838983F801E270F070F7
:10384000FC83EB8398E0292E312C20223122017059
:10385000107054C0E7FC04C0FA94F2E05F0EE50C6F
:10386000639489819A81892B71F04F2D4D0D8D8143
:103870009E816B2D0E94B81A6F2D6C0D8D819E81DB
:103880004A2D0E94B81AEB81FC81EF2B71F04D2D6F
:103890004F198D819E816B2D0E94B81A6F2D6C0D72
:1038A0008D819E81482D0E94B81A2114310471F037
:1038B0006C2D6F198D819E814A2D0E94B81A4F2D53
:1038C0004D0D8D819E81692D0E94B81A011511053B
:1038D00071F06C2D6F198D819E81482D0E94B81A50
:1038E0004D2D4F198D819E81692D0E94B81AE70CCC
:1038F000F2E07F0E8A949A94A394B3946F140CF41C
:10390000A9CF26960FB6F894DEBF0FBECDBFCF91DC
:10391000DF911F910F91FF90EF90DF90CF90BF90BC
:10392000AF909F908F907F906F905F903F902F907F
:1039300008954F925F926F927F928F929F92AF9273
:10394000BF92CF92DF92EF92FF920F931F93CF938C
:10395000DF93EC01A62E742E9E2DFF24F394F21A11
:103960008EEF289F802C1124B42EBA9453E0C52EDC
:10397000CE0CE22EDD2443E0942E10E031E0432E05
:10398000512C40225122692E63940270107034C071
:10399000F7FC04C0EA9482E0880EF80CD39441143A
:1039A000510489F06D2D6A0D472D4E192E2D220FD1
:1039B000260DCE010E94AA1B6E2D6A0DCE014B2D45
:1039C0002C2D0E94AA1B0115110589F06A2D6D1975
:1039D000472D4E192E2D220F260DCE010E94AA1B17
:1039E0006A2D6E19CE014B2D2C2D0E94AA1BF90CAD
:1039F00082E0980EBA94C80EDE1454F2DF91CF9193
:103A00001F910F91FF90EF90DF90CF90BF90AF90FC
:103A10009F908F907F906F905F904F9008957F92CE
:103A20008F929F92AF92BF92CF92DF92EF92FF92CE
:103A30000F931F936C01962EA42EF22E7E2C760EE1
:103A40001EEFE19E102D1124812E820E672D282D50
:103A50000E94A01BB02EBA0CBA94C601672D4B2D44
:103A6000282D0E94A01BAE0C100FC601692D4A2DF7
:103A7000212F0E94AA1BF90CFA94C6016F2D4A2D22
:103A8000212F0E94AA1BC601672D4A2D2E2D01E071
:103A90000E94EA1BFE18C6016F2D4A2D2E2D02E052
:103AA0000E94EA1BBE18C6016F2D4B2D2E2D04E07F
:103AB0000E94EA1BC601672D4B2D2E2D08E00E94A7
:103AC000EA1B1F910F91FF90EF90DF90CF90BF9076
:103AD000AF909F908F907F9008958F929F92AF921A
:103AE000BF92CF92DF92EF92FF920F931F936C01E0
:103AF000162FA42E922EF02EBE2C8E2C860E2EEF7C
:103B0000E29EE02C11242E2D290D682D0E94B41B5D
:103B1000AB0CFA94FE0C1150190D1B19C601612F44
:103B20004A2D2B2D01E0EF2C0E94991CC601682D17
:103B30004A2D2B2D02E00E94991C1F910F91FF909E
:103B4000EF90DF90CF90BF90AF909F908F900895AF
:103B50002F923F924F925F926F927F928F929F929D
:103B6000AF92BF92CF92DF92EF92FF920F931F938B
:103B7000DF93CF9300D00F92CDB7DEB73C016983BE
:103B8000442E8901F90154900F5F1F4FF801D49022
:103B900001501040852D90E0079673E0959587952C
:103BA0007A95E1F7EE2460E8262E312C882E9924B0
:103BB00087FC9094D40E31C08E2D8770510102C0C5
:103BC000B594A7948A95E2F78E2D85958595859570
:103BD000282F332727FD30952E5F3F4F200F311FB1
:103BE0003B832A83F42CC980CE0C14C0EA81FB816C
:103BF000849190E08A219B21892B29F0C3016C2DAF
:103C00004F2D0E94B81A2A813B81280D391D3B8314
:103C10002A83F394FD1451F7E394E51469F60F90A9
:103C20000F900F90CF91DF911F910F91FF90EF9028
:103C3000DF90CF90BF90AF909F908F907F906F90CC
:103C40005F904F903F902F900895DC01FB0184918D
:103C50008F5F14968C931497319684918F5F15968D
:103C60008C93159731965E96FC93EE935D9708952D
:103C70003F924F925F926F927F928F929F92AF92FC
:103C8000BF92CF92DF92EF92FF920F931F93CF9349
:103C9000DF93EC01862EA42E422F102F3F8C23E5BC
:103CA00026170CF4ABC03FE23A150CF4A7C0C02EA7
:103CB000DD248C8190E001979C01C29EC001C39ECF
:103CC000900DD29E900D1124262F332727FD30957D
:103CD000820F931F181619060CF090C08D8190E08A
:103CE0009C01C29EC001C39E900DD29E900D1124D6
:103CF0002A2D332727FD3095820F931F181619069A
:103D00000CF07CC09924442E55246DC09C01215098
:103D100030404217530711F460E00EC0429EC001CC
:103D2000439E900D529E900D1124840F951FED8D92
:103D3000FE8DE80FF91F64914C9DC0014D9D900DC3
:103D40005C9D900D1124682C680EBB24792C780C96
:103D50003FC0E62EFF2460FF19C0113039F44B2D0F
:103D60004A0DCE01672D0E94B81A2EC02C9DC001AD
:103D70002D9D900D3C9D900D11244A2D480FCE0194
:103D8000662D212F012F0E94B41B1EC098A18F8D7C
:103D90009817D1F09F8F113039F44B2D4A0DCE0179
:103DA000672D0E94B81A0FC02C9DC0012D9D900D4B
:103DB0003C9D900D11244A2D480FCE01662D212FD8
:103DC000012F0E94B41B3F8EF594E7946E2DB3949F
:103DD0002B2D332727FD30958D8190E0281739074B
:103DE0000CF4B7CF9394492D552747FD50958C81FE
:103DF00090E0481759070CF489CF3F8EDF91CF919F
:103E00001F910F91FF90EF90DF90CF90BF90AF90F8
:103E10009F908F907F906F905F904F903F9008950C
:103E20000F93CF93DF93EC01262F6A3049F48D81F5
:103E30009885899F802D11249A85980F9A8726C08E
:103E40006D3029F169854A8508850E94381E9C815C
:103E50006885969F402D11248985480F49878F8159
:103E60008823A9F0552747FD5095699F900111249B
:103E700084E590E0821B930B8417950744F49D81A1
:103E8000699F902D11248A85890F8A87198681E080
:103E900090E0DF91CF910F9108951F93CF93DF931F
:103EA000EC01162FF8948E8560E00E9449318F85D1
:103EB00018161CF460E00E9449311EBD0DB407FEC7
:103EC000FDCF8EB58F8518161CF461E00E94493134
:103ED0007894DF91CF911F910895FF920F931F93D4
:103EE000CF93DF93EC01FF2400E010E06F2D6064BE
:103EF000CE010E944D1FCE0160E80E944D1F8E85AD
:103F000061E00E9449318F8518161CF460E00E9420
:103F10004931F801EB54FC4F90E080818EBD0DB427
:103F200007FEFDCF8EB59F5F31969435B1F78F8533
:103F300018161CF461E00E944931F3940C5A1F4F8B
:103F400086E0F81699F6CE0160E40E944D1FDF91DD
:103F5000CF911F910F91FF900895CF93DF93DC01D4
:103F600088EF91E0E5EBF3E0EF019C01199221501D
:103F70003040E1F719961C9219971A961C92DF911E
:103F8000CF910895EF920F93CF93DF93EC014D877C
:103F90006C872E87E88A0F8781E088878F8F18A229
:103FA0008F83CE016BEA76E00E94251E0E948A195B
:103FB00081E00E946B1985E00E9479198CE00E94D3
:103FC00074198D8561E00E94DD308C8561E00E946E
:103FD000DD308E8561E00E94DD30888918161CF482
:103FE00061E00E94DD308F8518161CF461E00E94AC
:103FF000DD30888918166CF460E00E9449316AE06F
:1040000070E080E090E00E94FA2F888961E00E94D1
:104010004931EC852E2F332727FD3095F901E55CDA
:10402000F44FE491F0E0EE0FFF1FE95DF44F85914E
:1040300094919C8B8B8B215B344FF90184918A8FF7
:10404000ED852E2F332727FD3095F901E55CF44FE0
:10405000E491F0E0EE0FFF1FE95DF44F859194913C
:104060009A8B898B215B344FF9018491898FEF857D
:104070002E2F332727FD3095F901E55CF44FE491AD
:10408000F0E0EE0FFF1FE95DF44F859194919E8B58
:104090008D8B215B344FF90184918B8FEE852E2F10
:1040A000332727FD3095F901E55CF44FE491F0E00A
:1040B000EE0FFF1FE95DF44F85919491988F8F8BE0
:1040C000215B344FF90184918C8FCE0161E20E9413
:1040D0004D1FCE0164E10E944D1F8B8587FF02C0FA
:1040E0008FE78B876B856068CE010E944D1FCE01E4
:1040F00060E20E944D1FCE016CE00E944D1FCE0178
:104100000E946D1FDF91CF910F91EF900895FC01F8
:10411000EB5AFF4F88EE93E070E00E94B83860835E
:104120000895FC01E65AFF4F61937193445F408309
:104130000895CF93DF93DC01E0E8F7E78591949150
:10414000ED01CA5BDF4F8150904C09F043C0E6E9B6
:10415000F7E7E491D096EC93D097E7E9F7E7E4919D
:104160001496EC931497E8E9F7E7E4911596EC932D
:104170001597E9E9F7E78591949117969C938E93AB
:104180001697EBE9F7E78591949119969C938E9396
:104190001897EFE9F7E7E491E883E0EAF7E785911C
:1041A00094915D969C938E935C97E2EAF7E78591F4
:1041B00094915F969C938E935E97E4EAF7E78591DE
:1041C000949191969C938E939097E6EAF7E7859168
:1041D00094912CC08CE3D0968C93D09714961C921B
:1041E00014972FEF15962C93159780E293E017966E
:1041F0009C938E93169784ED93E019969C938E93DF
:10420000189728838CEA9DE05D969C938E935C972B
:104210008EED9DE05F969C938E935E9784E79EE083
:1042200091969C938E9390978CE39FE093969C93AA
:104230008E939297DF91CF910895EF92FF920F9313
:104240001F93CF93DF937C018C010B5D1F4FC8013F
:104250000E94AD1FC80164ED7AE00E94F633C801E8
:104260000E946D1F83E00E94791988E391E0EEEFD0
:10427000FFE30995F70113A6C8016FEA7AE00E94EF
:104280004134C8010E946D1FE7012A96CE010E94A9
:10429000901ACE0164E00E94681A882339F462E320
:1042A00070E080E090E00E94FA2FF0CFDF91CF9194
:1042B0001F910F91FF90EF9008950F931F93CF934D
:1042C000DF93EC018C010B5D1F4FC80161E040E002
:1042D0000E941F1B85E599A5891B8EA71FA6698DC6
:1042E0006130B1F1613028F0888D653008F049C047
:1042F00043C0CE0160E00E94A519C8010E94AD1F15
:1043000081E08DA7C80160E17BE00E94F6336A8DF1
:104310007B8DC8014AE050E00E94E434C8016CEF94
:104320007AE00E94F633C8010E946D1F83B7817F37
:10433000846083BF83B7816083BF83B7816083BF9D
:10434000889583B78E7F83BF83B78E7F83BF1FC05F
:10435000C95BDF4F88819981AA81BB818F70907082
:10436000A070B0700897A105B10518F4C80167E006
:104370000CC0C80168E709C0882349F06B5FC80119
:1043800004C0882321F0C8016FE20E941934DF9134
:10439000CF911F910F910895CF92DF92EF92FF92EC
:1043A0000F931F93CF93DF93EC01C45ADF4F8881A3
:1043B000CC55D0408823E9F18C3010F010E002C0D9
:1043C0001CE0181B81E08DA755E2C52ED12CCC0E28
:1043D000DD1EC60160E00E941B1B0AA54DE2F42E03
:1043E0004F2D401B410F0D5FC60160E024E533E017
:1043F000E32E0E946D1DC60161E00E941B1B0AA5F1
:10440000F01AF10E0D5FC60160E04F2D24E50E9409
:104410000F1D84E08EA78AA5181B115D1FA7C65A21
:10442000DF4F69917991C6010E94F63388818150EE
:104430008883DF91CF911F910F91FF90EF90DF90D4
:10444000CF9008954F925F926F927F928F929F923A
:10445000AF92BF92CF92DF92EF92FF920F931F9392
:104460002C01FC01628C738C6094709488249924D4
:104470000E94D42F5B016C010E94D42F7B018C0120
:10448000F201418052800E94D42F460E571EA09404
:10449000B094C094D094E094F09400951095C60127
:1044A000B501A80197010E948538A40193010E94DB
:1044B0008538460E571EC2010E9410361F910F917B
:1044C000FF90EF90DF90CF90BF90AF909F908F9034
:1044D0007F906F905F904F900895AF92BF92CF9270
:1044E000DF92EF92FF920F931F93CF93DF93EC0134
:1044F00076E5A72EB12CA80EB91EF501E080F1805B
:10450000028113810E94C62FE61AF70A080B190BC5
:1045100065E5C62ED12CCC0EDD1EF601808190E023
:10452000A0E0B0E08E159F05A007B10708F071C0AC
:104530008E010F5A1F4FF80180819181A281B381B2
:104540000097A105B10509F464C00E94C62FF601C9
:104550002081620F711D811D911DF50160837183A2
:1045600082839383FE01E95BFF4F80819181A28169
:10457000B3810196A11DB11D80839183A283B38372
:10458000F80110821182128213820E94D42FC35B21
:10459000DF4F688379838A839B83CD54D040CE01DB
:1045A0000E94AA19CE010A960E94901ACE0148963E
:1045B0000E941C1A81E022C0CE010E94CC21CE01B3
:1045C0000E945D218E010B5D1F4FC8010E946D1F6F
:1045D0008BA5882319F4C8010E94AD1F0E94D42F17
:1045E000CF5ADF4F688379838A839B8324972881FE
:1045F0003981621B730B7A936A9380E0DF91CF91CC
:104600001F910F91FF90EF90DF90CF90BF90AF90F0
:104610000895CF5ADF4F88819981AA81BB81C15506
:10462000D0400097A105B10541F7C6CF2F923F9228
:104630004F925F926F927F928F929F92AF92BF92B2
:10464000CF92DF92EF92FF920F931F93DF93CF935E
:1046500000D000D000D0CDB7DEB79E838D836A83B3
:104660007B83542EFC0113A61AE0A12EB12CA80EB8
:10467000B91EB5E26B2E712C680E791ECC24A0E316
:104680009A2E88244424FFEFF983242E3324242FE8
:1046900021502C838D819E810E946D228823D1F32D
:1046A000C50164E00E94681A882369F4C50165E0C9
:1046B0000E94681A882339F4C50166E00E94681ACE
:1046C000882309F4B7C0ED81FE8112A5C50164E01D
:1046D0000E94681A882309F4B1C0C982AFC0C5011D
:1046E00063E044E00E94721A8111C394C50161E045
:1046F00044E00E94721A8111CA948C2D992787FD7B
:1047000090958215930511F4CC2402C0C7FCCC808F
:10471000ED81FE8182A58C9D902D11248C5F882EC9
:10472000891A28C0892D992787FD9095282D332730
:1047300027FD3095821B930B0297D4F4898126962E
:104740000FB6F894DEBF0FBECDBFCF91DF911F91A2
:104750000F91FF90EF90DF90CF90BF90AF909F9020
:104760008F907F906F905F904F903F902F90089523
:1047700044244394882D992787FD9095292D33272C
:1047800027FD3095820F931F62E070E00E94B838D9
:10479000962EED81FE8116A667A721E025A714A617
:1047A0002A813B81C9018C01DD24EC2CFF24E7FC2C
:1047B000F09418C08D2D90E08E159F0551F423E0E4
:1047C000ED81FE8126A782A58E9D802D1124890D65
:1047D00087A7F80165917491C3010E944134D39475
:1047E0000E5F1F4FD51430F3C30160E00E941B1B06
:1047F000ED81FE8142A54E9D402D11244150490D71
:10480000C30160E024E50E94A01BC30161E00E9497
:104810001B1BED81FE8102A50E9D402D11244250EF
:10482000490D0D5FC30160E024E5F3E0EF2E0E9427
:104830000F1D30CF442009F075CF51CF812F90E06C
:10484000909581959F4F9C01229EC001239E900DC3
:10485000329E900D1124EEEF8E2E880E63CFEF92D4
:10486000FF920F931F938C010B5A1F4F82E3F801A5
:10487000808381E090E0A0E0B0E0B293A2939293B5
:1048800082938F010B5010408FEFF8018083065404
:104890001040C8010E949920C8010E94A119C801B6
:1048A0006FEF0E94A5194AE0E42EF12CE00EF11EF4
:1048B000C7010E94581AC7010E94901AC801489661
:1048C0000E94121AC80185966DE04BE020E10FE0CE
:1048D0003EE0E32E0E94C21F1F910F91FF90EF90C8
:1048E00008959093AE058093AD057093B0056093E5
:1048F000AF055093B2054093B1053093B4052093B2
:10490000B3050895DF92EF92FF920F931F93D82E75
:104910007A018B0187FF0CC087E740E050E060E040
:1049200070E00E948224823008F058C08FE7D822BD
:10493000E091B305F091B4050995E091B105F091CE
:10494000B2050995E091AF05F091B0050995E091A8
:10495000AF05F091B00509958F3FC9F7E091AD051E
:10496000F091AE058D2D0995812F9927AA27BB2798
:10497000E091AD05F091AE050995C801AA27BB27C6
:10498000E091AD05F091AE050995BB27A12F902FC1
:104990008F2DE091AD05F091AE050995E091AD0543
:1049A000F091AE058E2D099580E4D81611F485E9B5
:1049B00006C088E4D81611F487E801C081E0E091D0
:1049C000AD05F091AE0509951AE0E091AF05F091C3
:1049D000B005099587FF02C01150B9F71F910F91DB
:1049E000FF90EF90DF900895CF92DF92EF92FF92C9
:1049F0000F931F93DF93CF9300D000D0CDB7DEB7D6
:104A000014E6E091AF05F091B00509951150C9F792
:104A100080E440E050E060E070E00E948224813059
:104A200009F06CC088E44AEA51E060E070E00E945E
:104A30008224813009F040C06E010894C11CD11C51
:104A400076018E010B5F1F4FE091AF05F091B0052D
:104A50000995F70181937F01E017F107A9F78B8191
:104A6000813009F04BC08C818A3A09F047C008EACE
:104A700011E604C00150104009F440C089EE40E046
:104A800050E060E070E40E948224882399F754C0CB
:104A9000E091AF05F091B0050995F60181936F01A2
:104AA000EE15FF05A9F7898186FD03C074E0F72E96
:104AB00026C06CE0F62E23C089EE40E050E060E0B6
:104AC00070E00E948224823028F051E4E52EFF2419
:104AD000F39404C049EEE42E32E0F32E08EA11E626
:104AE00003C00150104051F08E2D40E050E060E0D6
:104AF00070E00E9482248823A1F729C0FF24F0924D
:104B0000AA06E091B305F091B4050995E091AF05CF
:104B1000F091B005099580E0FF2009F481E00F9045
:104B20000F900F900F90CF91DF911F910F91FF90F9
:104B3000EF90DF90CF9008958AE740E050E060E08A
:104B400070E00E948224882309F4A2CFD7CF80E5A9
:104B500040E052E060E070E00E948224882371F619
:104B6000CECF8F929F92AF92BF92CF92DF92EF9271
:104B7000FF920F931F93CF93DF93982E892E690195
:104B80005801FFEFEF2EFFE7FF2EE022F122E114A4
:104B9000F10409F490C0C701820F931F8150924025
:104BA00008F089C08091AA0683FD07C0E9E0440FA0
:104BB000551F661F771FEA95D1F781E50E94822471
:104BC000882309F066C0C8EED3E0E091AF05F0910C
:104BD000B00509958F3F19F42197B9F75AC08E3F58
:104BE00009F057C0002711270C191D090E5F1D4F32
:104BF0000E191F0908C0E091AF05F091B0050995A5
:104C00000894C108D108C114D104A9F7B7FE29C07E
:104C1000C92DD82DE091B905F091BA050995E0911B
:104C2000B505F091B6050995E091AF05F091B00595
:104C30000995FE010995D82EE091B705F091B805C8
:104C400009950894E108F108E114F10411F0DD2060
:104C500031F7E091BB05F091BC0509950E0D1F1DC4
:104C600010C0892D982D9C01E901E091AF05F091CC
:104C7000B005099589930894E108F108E114F1045D
:104C8000A1F7E091AF05F091B005099501501040F2
:104C9000C1F7E091B305F091B4050995E091AF0536
:104CA000F091B0050995C701E114F10411F081E01C
:104CB00090E09C0102C024E030E0C901DF91CF9177
:104CC0001F910F91FF90EF90DF90CF90BF90AF902A
:104CD0009F908F9008950F931F93CF93DF938C0134
:104CE000C091BD05D091BE05FC0111821082648186
:104CF000758161307105B1F18885998568177907EB
:104D000088F5778366836115710501F16250704003
:104D10008885998502976817790728F020E030E0A8
:104D200040E050E017C080E090E0298130E040E0B2
:104D300050E00E9485389B01AC018A899B89AC892F
:104D4000BD89280F391F4A1F5B1F04C02E853F8570
:104D500048895989F801208731874287538720E0A5
:104D600030E002C021E030E0C901DF91CF911F9116
:104D70000F9108958F929F92AF92BF92CF92DF9240
:104D8000EF92FF920F931F93DF93CF9300D000D049
:104D9000CDB7DEB75C018090BD059090BE0582E086
:104DA000A816B10408F47DC0F40180859185A81689
:104DB000B90608F076C08081813021F0823009F098
:104DC00070C051C0C501969587958A0D9B1D9C01A9
:104DD0003170892F992786956C01EE24FF24F40108
:104DE0004285538564857585CE010196F1E02F3F9C
:104DF0003F0749F0C40ED51EE61EF71EB701A601F7
:104E000002E010E01EC04C0D5D1D6E1D7F1D2FEFDA
:104E100031E001E010E00E94B125892B09F041C08A
:104E2000F40142855385648575854F5F5F4F6F4FF1
:104E30007F4F4C0D5D1D6E1D7F1DCE01029620E043
:104E400030E00E94B125892B61F589819A81A0FE0D
:104E500007C09C0144E0369527954A95E1F723C0A9
:104E60009C013F7020C04B2D552760E070E0F4019D
:104E700082859385A485B585480F591F6A1F7B1FBE
:104E8000FFEFAF22BB24AA0CBB1CCE0101969501FB
:104E900002E010E00E94B125892B19F429813A81A2
:104EA00002C021E030E0C9010F900F900F900F90E9
:104EB000CF91DF911F910F91FF90EF90DF90CF90F6
:104EC000BF90AF909F908F900895EF92FF920F93B5
:104ED0001F93CF93DF937C01C091BD05D091BE0598
:104EE000FC01008111810F5F1F4F09F471C0208503
:104EF000318542855385211531054105510509F458
:104F000067C0C8018F709070892B09F05BC02F5F5C
:104F10003F4F4F4F5F4F20873187428753874681EE
:104F200057814115510539F48C819D810817190766
:104F300008F448C04DC0898190E00197980174E061
:104F4000369527957A95E1F782239323892BD1F51E
:104F5000CA010E94BA26BC018230910518F421E0F2
:104F600030E038C0888599856817790788F5F7019A
:104F700077836683C091BD05D091BE0562507040B5
:104F80008885998502976817790728F020E030E036
:104F900040E050E012C080E090E0298130E040E045
:104FA00050E00E9485389B01AC018A899B89AC89BD
:104FB000BD89280F391F4A1F5B1FF70120873187E2
:104FC00042875387F7011183008320E030E002C05D
:104FD00023E030E0C901DF91CF911F910F91FF9045
:104FE000EF9008952F923F924F925F926F927F922F
:104FF0008F929F92AF92BF92CF92DF92EF92FF92E9
:105000000F931F93CF93DF93E82FC091BD05D091ED
:10501000BE05209719F428E030E0E1C08A8180FDC8
:1050200003C027E030E0DBC06A8C7B8C8C8C9D8CCD
:105030004E2F592FCB01DA015C016D016A147B04FC
:105040008C049D0410F4640153012E893F89488D1E
:10505000598D1E8A1F8A188E198EA114B104C1049D
:10506000D10409F4BAC08981682E77248824992450
:10507000F9E0660C771C881C991CFA95D1F721156C
:10508000310541055105A1F119012A0108942108B2
:10509000310841085108C601B50161507040804097
:1050A0009040A40193010E94CB3879018A01C2018A
:1050B000B101A40193010E94CB38E216F306040764
:1050C0001507B0F088279927DC0186199709A809E8
:1050D000B90982219321A421B5218E8B9F8BA88FA2
:1050E000B98FA81AB90ACA0ADB0A68A179A125C032
:1050F0006E8D7F8D79A368A320C0CB010E94BA2654
:10510000BC018230910508F458C0888599856817DC
:10511000790708F052C079A368A38E899F89A88D6A
:10512000B98D860D971DA81DB91D8E8B9F8BA88FDD
:10513000B98FA618B708C808D9086A147B048C046C
:105140009D04D8F28E899F89A88DB98D8A0D9B1DEB
:10515000AC1DBD1D8E8B9F8BA88FB98FE9E0D694B7
:10516000C794B794A794EA95D1F7EA2CE394EB821D
:10517000C090BD05D090BE0562507040F60180859C
:105180009185029768177907C0F480E090E021814B
:1051900030E040E050E00E9485389B01AC01F60110
:1051A00082899389A489B589280F391F4A1F5B1FFB
:1051B000211531054105510521F41A8221E030E025
:1051C0000EC02E0D311D411D511D2150304040405B
:1051D00050402AA33BA34CA35DA320E030E0C901CB
:1051E000DF91CF911F910F91FF90EF90DF90CF90C3
:1051F000BF90AF909F908F907F906F905F904F90F7
:105200003F902F9008955F926F927F928F929F921E
:10521000AF92BF92CF92DF92EF92FF920F931F93C4
:10522000CF93DF936C015B01DB018C918F3219F41A
:105230000894A11CB11CF60115821482D5018C9131
:10524000803268F4C6010E946B26EC01E091BD0536
:10525000F091BE050680F781E02D1082BCC000E20F
:10526000502E66246394F601A281B381FD01CD0125
:105270000B9601C05192E817F907E1F730E0772467
:1052800068E002C038E06BE0F501E70DF11D208118
:105290007394203250F12F3241F12E3211F0361733
:1052A00030F0683009F092C02E3261F38FC02F3792
:1052B00008F08CC0422F50E0EFE3F1E001C03196DE
:1052C0008081882339F0992787FD90958417950769
:1052D000B1F77CC0822F81568A3108F42052FD013B
:1052E000E30FF11D20833F5FCFCF332309F46EC05E
:1052F0001B961C921B97203210F41B966C92C601D1
:105300000E946B26EC01009709F042C0E091BD05B8
:10531000F091BE05E680F7801BE0812E912C8E0C6B
:105320009F1CD60118964D915D916D917C911B97B4
:105330002D913C912F703070B5E0220F331FBA953C
:10534000E1F7C70100E210E00E94B125892B19F0B6
:1053500081E090E01CC0F7018081882309F44CC0F3
:10536000838583FD0FC0F601A281B381F701E815A3
:10537000F90509F444C090818C91981719F431967D
:105380001196F5CFC6010E946527009751F2EC01F6
:10539000C330D10501F5D6011296ED91FC9113971A
:1053A00083858823B1F017C0E091BD05F091BE055B
:1053B0000680F781E02D838584FF0BC0A70CB11C0C
:1053C000828D938DF601958384834DCFC5E0D0E027
:1053D00002C0C4E0D0E0CE01DF91CF911F910F91C8
:1053E000FF90EF90DF90CF90BF90AF909F908F9005
:1053F0007F906F905F900895C3E0D0E0C9CFD60151
:105400001296ED91FC9113978385882369F2E3CF7F
:10541000EF92FF920F931F93DF93CF93CDB7DEB739
:10542000AC970FB6F894DEBF0FBECDBF8C01E091F4
:10543000BD05F091BE05309719F428E030E027C093
:105440008DE0E82EF12CEC0EFD1EF782E682CE01F7
:105450000196F80193838283C8010E9403299C016D
:10546000009781F48D85882349F0888D84FF0DC0D5
:10547000F701828D938DF80195838483C8010E9482
:105480006B269C012330310511F424E030E0C90182
:10549000AC960FB6F894DEBF0FBECDBFCF91DF91B3
:1054A0001F910F91FF90EF900895EF92FF920F934D
:1054B0001F93DF93CF93CDB7DEB7E8970FB6F8947D
:1054C000DEBF0FBECDBFBC010091BD051091BE0572
:1054D0000115110519F428E030E033C0F8011282FB
:1054E00099E1E92EF12CEC0EFD1EF782E682CE0149
:1054F0000D969C838B83CE0101960E9403299C010B
:105500000097F9F4898D8823D1F08CA184FD17C010
:10551000F701828D938DF801978F868FF701848D27
:10552000958DA68DB78DF801828F938FA48FB58F3F
:10553000168A178A108E118E81E0828302C023E0C2
:1055400030E0C901E8960FB6F894DEBF0FBECDBFBC
:10555000CF91DF911F910F91FF90EF9008954F929F
:105560005F926F927F928F929F92AF92BF92CF92F3
:10557000DF92EF92FF920F931F93CF93DF933C0143
:105580006B014A01C091BD05D091BE05FA0111829F
:105590001082209719F428E030E0D1C08A8180FD84
:1055A00003C027E030E0CBC02A8D3B8D4C8D5D8D54
:1055B0008E899F89A88DB98D281B390B4A0B5B0BEF
:1055C000CB01A0E0B0E0281739074A075B0708F4D1
:1055D00069015301412C32E0532EABC0EE88FF88A5
:1055E000088D198DD801C7019170A070B070009717
:1055F000A105B10509F05AC0C801B70129E0969587
:105600008795779567952A95D1F7298130E040E015
:1056100050E00E94CB38611571058105910591F428
:10562000E114F1040105110519F48E8D9F8D04C05C
:1056300088A199A10E94BA268230910550F199A3C0
:1056400088A31B820091BD051091BE0568A179A1B8
:1056500062507040F801808591850297681779073C
:10566000C0F480E090E0218130E040E050E00E9412
:1056700085389B01AC01F80182899389A489B58999
:10568000280F391F4A1F5B1F2115310541055105A0
:1056900011F41A822EC08B81280F311D411D511D1E
:1056A0002AA33BA34CA35DA38F5F8B832E893F89E5
:1056B000488D598DC9019170B201681B790B760133
:1056C0006C157D0508F47B018A8131704AA15BA1CC
:1056D0006CA17DA186FF04C087011068C30102C0D0
:1056E000C50187010E94B125009749F01A820297EF
:1056F00019F021E030E023C026E030E020C0AE0CFD
:10570000BF1CC701A0E0B0E02E893F89488D598DAC
:10571000280F391F4A1F5B1F2E8B3F8B488F598FD5
:10572000F401808191818E0D9F1D91838083CE181D
:10573000DF08C114D10409F051CF20E030E0C901E5
:10574000DF91CF911F910F91FF90EF90DF90CF905D
:10575000BF90AF909F908F907F906F905F904F9091
:105760000895AF92BF92CF92DF92EF92FF920F9384
:105770001F93CF93DF93B82EA92E6A017B012EEFE2
:1057800031E002E010E00E94B125892B11F023E006
:1057900020C0CB2DDA2D8881998185559A4A11F048
:1057A00022E017C08B2D9A2DB701A60126E330E029
:1057B00002E010E00E94B125892B11F021E009C020
:1057C00020E0888199818654914409F421E081E0A8
:1057D0002827822FDF91CF911F910F91FF90EF909B
:1057E000DF90CF90BF90AF9008956F927F928F928D
:1057F0009F92AF92BF92CF92DF92EF92FF920F9360
:105800001F93DF93CF93CDB7DEB7A4970FB6F8946D
:10581000DEBF0FBECDBF5C011092BE051092BD056C
:10582000009709F4DFC00E94F42480FF03C022E047
:1058300030E0E0C04E010894811C911CC40140E09E
:1058400050E060E070E00E94B12B813021F0CC2468
:10585000DD2476011BC0C40140E050E060E070E050
:105860002EEB31E000E110E00E94B125892B09F018
:10587000BCC08D81882309F4BBC0C984DA84EB8461
:10588000FC84C401B701A6010E94B12B833009F446
:10589000ACC0882309F0ACC0CE010196B701A601C7
:1058A0002DE030E004E210E00E94B125892B09F0E0
:1058B0009CC08A859B85BC0180E090E061157105E4
:1058C0008105910521F4688D798D8A8D9B8D2C81C0
:1058D00030E040E050E00E9485383B014C018A8175
:1058E0009B81A0E0B0E0C80ED91EEA1EFB1EF501A8
:1058F000C286D386E486F586898181832D813E81A7
:10590000358324838F8198857C0100E010E0E114C9
:10591000F1040105110521F4EC88FD880E891F8929
:105920008A819B81A0E0B0E0E81AF90A0A0B1B0B00
:10593000E618F7080809190974E0369527957A954D
:10594000E1F7C901A0E0B0E0E81AF90A0A0B1B0B65
:10595000F501218130E040E050E0C801B7010E942C
:10596000CB382E5F3F4F4F4F5F4FF5013187208778
:10597000273FFFE03F07F0E04F07F0E05F0710F43C
:1059800081E006C0275F3F4F4040504088F582E0ED
:10599000F50180832285338544855585D401C30173
:1059A000820F931FA41FB51F86879787A08BB18B8B
:1059B0008481958164E0969587956A95E1F7A0E0EA
:1059C000B0E0820F931FA41FB51F860D971DA81D61
:1059D000B91D828B938BA48BB58B1282B092BE05BE
:1059E000A092BD0520E030E005C021E030E002C01B
:1059F00029E030E0C901A4960FB6F894DEBF0FBECF
:105A0000CDBFCF91DF911F910F91FF90EF90DF906D
:105A1000CF90BF90AF909F908F907F906F900895A0
:105A200080E290E062E070E00E940E398093F10520
:105A30009093F205089585EF95E00E94102D08954A
:105A40000F931F93CF93DF938B0185EE95E00E9418
:105A5000082AEC01009739F48091F1059091F20544
:105A6000B8010E94BD39CE01DF91CF911F910F91F6
:105A700008958091F30561E00E9449310895CF9225
:105A8000DF92EF92FF920F931F936C01862F7A01A2
:105A900089016093F3057093F40561E00E94DD30A5
:105AA0000E94392DC801B7014CE65DE229E33DE2D1
:105AB0000E9471240E94F4248FEB95E00E94F52B44
:105AC000C6016FE471E00E94202D1F910F91FF909D
:105AD000EF90DF90CF9008958091F30560E00E94F1
