:100000000C94C8050C94F0050C94F0050C94F005C4
:100010000C94F0050C94F0050C94F0050C94F0058C
:100020000C94F0050C94F0050C94F0050C94F0057C
:100030000C94F0050C94F0050C94F0050C94F0056C
:100040000C9423300C94F0050C9452320C94A03292
:100050000C94F0050C94F0050C94F0050C94F0054C
:100060000C94F0050C94F0059D05B205C705CF056D
:10007000C705E005F105C7050606C7051B062C06E2
:100080003E06C70516416E6E756C657200372020FE
:100090003820203920206F6B003420203520203676
:1000A000202030003120203220203320203C005FEF
:1000B00000617A6572747975696F707173646667CF
:1000C000686A6B6C6D77786376626E5F183C0016B9
:1000D00000416E6E756C65720020006F6B005F00F2
:1000E0002000540A03E181867F3E186D830F0F0EB6
:1000F0000183866033186DC3198F1803C38E603374
:10010000186DE330CF1803C39E603630CDE360CF67
:100110003006C79E7E3E30CDB360CF300CC6F66051
:100120003330D9B660CF33CFCCF66061B0DB1E6020
:10013000CF30D86CE6C061B0DB1E618F19986CC6F9
:10014000C063B19B0E330F0FB078C6FF7E1F1B0636
:100150001E0F5344001700736463617264206E6F56
:1001600074206D6F756E746564006F7220696E63C4
:100170006F727265637420464154002F736463612B
:1001800072642F444630312E4C4456004572726FD3
:10019000723A004572726F723A20736463617264DE
:1001A000206B6F004572726F723A2066696C652031
:1001B0006D697373696E670069001600151000158C
:1001C000201000436F6D62617474657A2100564F90
:1001D0005553004841420046756972206C652063A2
:1001E0006F6D6261740054656E74657A20766F7409
:1001F0007265204368616E6365004F6B002B002BB6
:1002000000454E443A0009097F00FF80DD80888068
:10021000D880FD80F7807F0055004C616E63657269
:1002200020756E206465004C616E636572206465A4
:10023000757820646573004368616E63653A0043B6
:1002400048414E43455558004D414C4348414E436B
:10025000455558003E003C003D00412070726F70D3
:100260006F73004D6F746575722047616D65626FC5
:100270006F6B75696E6F004C6F67696369656C20A1
:1002800050432063726561204C445600156F6B002B
:100290007765623A206D6F7567696E6F2E6672655D
:1002A000652E66720076302E32202832302D53456E
:1002B000502D323031352900200076302E32202862
:1002C00032342D4155472D32303135290020005B25
:1002D000464555494C4C452044274156454E5455BA
:1002E00052455D00486162696C6574653A00456E0F
:1002F000647572616E63653A004F723A0020706FE8
:100300000050726F766973696F6E733A0043686F5D
:10031000697369722000506F74696F6E20006427E2
:10032000416472657373650064652056696775651D
:10033000757200426F6E2E466F7274756E65005B4B
:10034000414354494F4E535D0053617576657220A9
:100350006C6120706172746965004465726E6965D4
:1003600072207061726167726170686500416C6CC7
:1003700065722061752E2E2E005B45515549504502
:100380004D454E545D00416A6F757465722065710C
:10039000756970656D656E74001A001000646563A0
:1003A000696D616C3A2000546F633A2030780070B8
:1003B00061723A2000566F75732065746573206D05
:1003C0006F72742E2E2E0A5072657373657A201523
:1003D00020706F757220726574656E746572206C22
:1003E000276176656E7475726500456E647572611D
:1003F0006E6365202B3400456E647572616E6365B3
:10040000206E69762E20696E6921004368616E63F3
:1004100065206E697665617520696E692B310048CB
:100420006162696C657465206E69766561752069C5
:100430006E69210053617576656761726465206538
:100440006666656374756565004445464953204694
:10045000414E544153544951554553203031004C7D
:100460006520536F7263696572206465206C61203A
:100470006D6F6E7461676E652064652046657500FA
:10048000401E0000000000003C00000000000000D2
:100490006A00000007FE0000390000001040F8016B
:1004A000FA000000B0F98E01F800000D8FFF63C75D
:1004B000F000002BFFFFFB1F000000C1EF7F13FCCB
:1004C000E0000183FD3F7BFBF00003EFB891F3DF19
:1004D000E60009DFFEC6146FE180103FFFCB1FF17D
:1004E000F3A0207FFFCE01FAFB3058FFFF444741C5
:1004F000BE08F8FFFC501FCFBF84C007EB04FFF914
:1005000097DCC019FA81FFFE2BBAFC1A0C07FFFF1B
:1005100017E01DC0385FFFFFF7F107B0303FFFFF66
:10052000F7F5003FC0F81FFFFE07000103FC9C0029
:10053000070100040FE01806070E000017F80087F7
:10054000021E0020401FFC000FF0008300003FFF50
:10055000FC00010400000000000000080000000092
:10056000000005600000000000000B00000000001B
:1005700000005E657065650A5E61726D757265206A
:10058000646520637569720A5E736163206120642B
:100590006F730A5E6C616E7465726E65004D6F6498
:1005A00069662E207374617420636F7572616E7456
:1005B00065004D6F6469662E20746F74616C2069EC
:1005C0006E697469616C00416E6E756C6572004293
:1005D0006F69726520756E65206D65737572650053
:1005E0005072656E64726520756E207265706173FD
:1005F000004175676D656E7465722070726F766903
:1006000073696F6E73005375707072696D657220D7
:100610006571756970656D656E7400506F74696F92
:100620006E2064274164726573736500506F74694E
:100630006F6E206465205669677565757200502E6F
:1006400020646520426F6E6E6520466F7274756E11
:1006500065000707FE8282928282FE0707FE82A261
:10066000828A82FE0707FE828692C282FE0707FE0A
:1006700082AA82AA82FE0707FEAA829282AAFE07A7
:1006800007FEAA82AA82AAFE0707FEFEFEEEFEFE73
:10069000FE0707FEBEFEFEFEFAFE0707FEFAFEEEAE
:1006A000FEBEFE0707FEBAFEFEFEBAFE0707FEBA52
:1006B000FEEEFEBAFE0707FEBAFEBAFEBAFE03055C
:1006C0003F213F1208120A100A0E1C0E0C1E0C14B9
:1006D0001A14161F161E131E1E1B1E1E1F1E3F2140
:1006E0003F3A2F3A173D173F213F181F02040A04D3
:1006F0001F0E04040E1F0A1F0A0E0E1F04110E2ED9
:10070000252E2F2A2E262929021F02081F08150E22
:1007100004040E150E15151B151B040604040C0409
:100720000000000017000300031F0A1F16371A19E4
:1007300004130A153A000300000E11110E000A04FA
:100740000A040E040030000404040010001804031E
:100750001F111F121F101D151711151F07041F173A
:10076000151D1F151D01011F1F151F17151F000A3D
:1007700000003200040A110A0A0A110A04011502D3
:100780000E11171E051E1F150A0E110A1F110E1F2E
:1007900015111F05010E111D1F041F111F11081037
:1007A0000F1F041B1F10101F061F1E040F0E110E1B
:1007B0001F09060E112E1F051A121509011F011F10
:1007C000101F0F180F1F0C1F1B041B031C031915F0
:1007D00013001F11030418111F0002010220202022
:1007E0000001020C121E1F120C0C12120C121F0C14
:1007F0001A14041E05242A1E1F021C141D1020207A
:100800001D1F0814111F101E041E1E021C0C120CAA
:100810003E0A040C123E1E040214160A020F120EA7
:10082000101E0E100E1E081E120C1226281E322A32
:1008300026041E21001F00211E040102013F213F4A
:1008400005077F4141417F3E5B4F5B3E3E6B4F6BF7
:100850003E183C783C18183C7E3C181C577D571CB1
:100860001C5E7F5E1C007E43437E007E73737E00B1
:100870007E7F7F7E7F4141417F30483A060E0629C8
:100880007929067F4141417F60703F02042A1C366E
:100890001C2A7F3E1C080000081C3E7F14227F2279
:1008A000143C3C3C7EFF18423C817E3E6375633EB7
:1008B0003E616B633E3E636B6B3E04027F0204103D
:1008C000207F201008082A1C08081C2A0808143E4B
:1008D000554122637569756310181C1810040C1CAF
:1008E0000C04000000000000005F0000000700078B
:1008F00000147F147F14042A7F2A102313086462D3
:1009000036495620500008070300001C2241000011
:1009100041221C002A1C3E1C2A08083E080800E050
:100920006000000808080808006060000060100807
:1009300004033E5149453E00427F4000625149490F
:10094000462141494D331814127F1027454545393A
:100950003C4A49493041211109073649494936067F
:100960004949291E0000240000008064000008148A
:1009700022410014141414140041221408020159D5
:1009800009063E415D594E7C1211127C7F4949494E
:10099000363E414141227F4141221C7F4949494124
:1009A0007F090909013E414151327F0808087F0053
:1009B000417F41002041413F017F081422417F4097
:1009C0004040407F020C027F7F0204087F3E41418D
:1009D000413E7F090909063E416141BE7F0919294F
:1009E00046264949493201017F01013F4040403FCD
:1009F0001F2040201F3F4038403F6314081463030A
:100A0000047804036151494543007F4141000304D8
:100A10000810600041417F000402010204808080D0
:100A20008080000307080020545478407F28444405
:100A3000383844444428384444287F38545454189F
:100A4000087E09090218A4A49C787F080404780091
:100A5000447D4000006080847D7F10102844004168
:100A60007F40007C047804787C080404783844448F
:100A70004438FC1824241818242418FC7C08040486
:100A8000080854545420043F4444203C4040207CF7
:100A90001C2040201C3C4020403C44281028444C52
:100AA0009090907C4464544C44000836410000000F
:100AB0007F00000041360800180408100C7F4141F7
:100AC000417F0A4E6F2053442063617264206F722D
:100AD0000A6E6F204C4F414445522E4845580A0A31
:100AE000153A45786974001D20466C617368696E1B
:100AF000670A20206C6F616465722E2E2E0A0A44EC
:100B00004F4E2754205455524E204F464621006DDB
:100B1000560A0A504C454153450A5455524E204FEF
:100B20004646004C4F5720424154544552590A0002
:100B300000000000240027002A000000000025001B
:100B400028002B00000000002300260029000404D8
:100B50000404040404040202020202020303030365
:100B60000303010204081020408001020408102041
:100B70000102040810200000000700020100000329
:100B8000040600000000000000007F06C02D0C34A9
:100B900011241FBECFEFD8E0DEBFCDBF11E0A0E033
:100BA000B1E0E8E1F6E702C005900D92AE38B1077A
:100BB000D9F716E0AEE8B1E001C01D92A33BB10742
:100BC000E1F71BE0C0E9DBE004C02297FE010E94D0
:100BD000AF39CA38D107C9F70E9462340C940A3B76
:100BE0000C9400008FEF8EBD0DB407FEFDCF8EB5C7
:100BF00008958EBD0DB407FEFDCF08959091BC0100
:100C00008F3410F0845601C0891B890F8093BC017A
:100C10009091BD01603C28F08091B801885C860FFE
:100C20000FC06E3830F08091B801681B862F86594E
:100C300007C0643618F0862F845602C0862F891BA1
:100C4000890F8093BD010895809105028F3F79F04F
:100C500081508F3F69F0E82FF0E0E95FFC4FE081C1
:100C6000EE3331F0EC3321F0EE3591F701C08FEF28
:100C70000895809105028F3FA1F08F5F909104024B
:100C8000E82FF0E0E95FFC4FE081891751F0EE2397
:100C900041F0EE3339F0EC3329F0EE3519F08F5F87
:100CA000EFCF8FEF0895E8E0F2E080E090819923A4
:100CB00011F48F5F08959A3009F48F5F319693E0B5
:100CC000E630F90799F708958130B9F020E030E077
:100CD000422FF901E85FFD4FE081EE2311F0EA3089
:100CE00031F49F5F981719F4842F8F5F08952F5F59
:100CF0003F4F2E3F310561F7089580E0089510922F
:100D0000B6011092B50189E791E09093B401809308
:100D1000B3010895882329F08091BC01845D8093FC
:100D2000BC0183EB91E00E9429360895861729F4CF
:100D300083EB91E068E572E010C0861728F483EB3E
:100D400091E066E572E009C08091BC018F5F8093FD
:100D5000BC0183EB91E064E572E00E949B3408954E
:100D60008823B1F08091D5019091D601A091D7014F
:100D7000B091D80122E0B695A795979587952A95C9
:100D8000D1F780FF05C083EB91E06BE973E004C00D
:100D900083EB91E069E973E00E949B3408951F930F
:100DA00081E08093A60110E38EE891E00E94122377
:100DB0008823D1F383EB91E06AE572E00E94E63488
:100DC00083EB91E060E04091BD0124E50E94451C69
:100DD00084E666E60E94FE0583EB91E063E672E03E
:100DE0000E94E63483EB91E06DEC72E00E949B344C
:100DF00083EB91E06AEB72E00E94E63483EB91E0D2
:100E000067E772E00E94E63483EB91E068EB72E002
:100E10000E949B3483EB91E065EA72E00E94E63425
:100E200083EB91E060E972E00E94E63483EB91E0AD
:100E300060E478E00E94CA1E2091B70130E0C90149
:100E4000880F991F820F931F909581959F4F209136
:100E5000B801612F621B8C5A0E94FE0583EB91E062
:100E60006CE872E00E94E63483EB91E06EEB76E092
:100E70000E94CA1E88E991E064E00E940D1B88234D
:100E800079F488E991E065E00E940D1B882341F424
:100E900088E991E066E00E940D1B882309F484CF65
:100EA0001092A6011F910895AC01DC010D90002065
:100EB000E9F71197A81BB90B20E030E060E01FC0F4
:100EC000E40FF51F7081872F80538A3028F0662346
:100ED000D9F42FEF3FEF18C0C901F3E0880F991F35
:100EE000FA95E1F7220F331F280F391F20533040A6
:100EF000872F992787FD9095280F391F6F5FE62F61
:100F0000F0E0EA17FB07E0F2C9010895AF92BF9243
:100F1000CF92DF92EF92FF920F931F93DF93CF93C5
:100F2000CDB7DEB72E970FB6F894DEBF0FBECDBF9C
:100F30007C015B018E010F5F1F4FC801B7014AE0C2
:100F40000E946C37A8E0CA2ED12CCC0EDD1EC60143
:100F5000B7014AE00E946C374C855D854F5F5F4F5B
:100F6000C801B50120E030E00E94BD36C6010E94F4
:100F70009D37C8010E949D372E960FB6F894DEBFAC
:100F80000FBECDBFCF91DF911F910F91FF90EF90DA
:100F9000DF90CF90BF90AF9008952F923F924F92E5
:100FA0005F926F927F928F929F92AF92BF92CF92F9
:100FB000DF92EF92FF920F931F93DF93CF93CDB702
:100FC000DEB72E970FB6F894DEBF0FBECDBF162F3B
:100FD00019821A821B821C821E821D822FEF8F3F74
:100FE000920729F0BE016F5F7F4F0E948607612F35
:100FF000163008F065E010E02224CE0101969E87AD
:101000008D87862F90E09C878B878EE891E00E94E9
:1010100012238823D1F383EB91E060E478E00E940F
:10102000CA1E8981882339F083EB91E0BE016F5F8E
:101030007F4F0E9429368091D50182FF06C083EB45
:1010400091E06FEA70E00E949B344091B8014F5FDD
:1010500083EB91E060E024E50E94451C8091B7019C
:101060006091B8016C5F880F0E94FE0583EB91E0F0
:1010700064EA70E00E94E6348091B701880F66E66A
:101080000E94FE0583EB91E069E970E00E94E6347E
:101090008091B701880F66E60E94FE0583EB91E020
:1010A0006DE870E00E94E634612E77248091B701EC
:1010B000282F30E0422C55240894411C511C3090BC
:1010C000B801133071F492E0291659F40F2EF0E0B4
:1010D0008F2EF0E09F2EF0E2AF2EF0E4BF2EF02D29
:1010E0000AC00F2EF0E08F2EF0E09F2EF0ECAF2E16
:1010F000FFE3BF2EF02DC301880F991F860D971DAA
:101100000296829F7001839FF00C929FF00C112435
:101110008DEFE80E832D90E00296489E6001499E77
:10112000D00C589ED00C1124B901882777FD8095EA
:10113000982F0E943B389B01AC01C501B4010E946D
:10114000C73820E030E040E050E40E94A4370E941D
:1011500008386F83788789879A8793E0390E83EB05
:1011600091E06E2D4C2D2F81032D33E0E32E0E9454
:10117000B41D8091B80121E3281B2093BD0183EBAE
:1011800091E064E870E00E949B3483EB91E06EEBA9
:1011900076E00E94CA1E88E991E062E00E940D1B81
:1011A000882329F00894611C711C162D137088E99E
:1011B00091E060E00E940D1B882319F0115008F4A3
:1011C00013E088E991E063E00E940D1B882331F071
:1011D000C20163E070E00E945D39282E88E991E049
:1011E00061E00E940D1B882331F02A948FEF2816AE
:1011F00011F4B2E02B2E88E991E064E00E940D1B0F
:10120000882309F44DC01330C1F492E0291631F45B
:10121000CE0101960E9454079C014CC0222069F423
:10122000ED85FE8501900020E9F731978D859E853B
:10123000E81BF90BEC0FFD1F32C0ED85FE85019018
:101240000020E9F731978D859E85E81BF90B8B858A
:101250009C85E817F90720F5133011F420E308C046
:101260001F5C83E0289EC0011124212F280F1153F9
:101270009E2F915029F48981803311F4298308C06D
:101280009F5FE1E0F0E0EC0FFD1FE90FF11D20830F
:101290009F5FE1E0F0E0EC0FFD1FE90FF11D108210
:1012A00088E991E065E00E940D1B882309F4ADCE2A
:1012B0002FEF3FEFC9012E960FB6F894DEBF0FBE99
:1012C000CDBFCF91DF911F910F91FF90EF90DF90F5
:1012D000CF90BF90AF909F908F907F906F905F90D6
:1012E0004F903F902F9008950F931F938C01FC0116
:1012F000808190E062E00E94CD07F80180831F9119
:101300000F910895E62FF0E0EF54FF4F649188238A
:1013100029F061361CF06B370CF46F7D83EB91E0A4
:101320000E94BE3483EB91E060EE70E00E949B343B
:1013300008954F925F926F927F928F929F92AF9299
:10134000BF92CF92DF92EF92FF920F931F93CF93B2
:10135000DF93EC01862E10E0FF2499246AE0562EDC
:1013600057E0452E4EE4742E31E3632E8EE891E073
:101370000E9412238823D1F38091BD018F5F809357
:10138000BD018881882329F083EB91E0BE010E9492
:10139000293683EB91E060E478E00E94CA1E8091D8
:1013A000BD0181508093BD018091D50182FF06C0AF
:1013B00083EB91E06EED70E00E949B344091B801A8
:1013C0004F5F83EB91E060E024E50E94451C83EBD6
:1013D00091E06EEB76E00E94CA1E6091B8016B5FEF
:1013E00083E00E94FE0500E0892D602F0E948209A3
:1013F0000F5F0A30C9F76091B8016A5983E00E9413
:10140000FE05892D602F0E9482090F5F0431C9F704
:101410006091B8016A5983E00E94FE05892D602F12
:101420000E9482090F5F0D31C9F783EB91E06BEDEC
:1014300070E00E94E63483E066E60E94FE0500E369
:1014400083EB91E0602F0E94BE3483EB91E069ED65
:1014500070E00E949B340F5F0A3391F7A12EBB24EA
:101460008091B701A82FB0E0CF2CDD240894C11CD7
:10147000D11C0091B801FF2011F442E001C041E00D
:10148000193031F422E0F21619F4E2E0F0E002C083
:10149000E1E0F0E0CD01880F991F8A9DB0018B9D9E
:1014A000700D9A9D700D11246F5F802F90E0029651
:1014B0009C01C29EC001C39E900DD29E900D11242E
:1014C000480FEA9F9001EB9F300DFA9F300D1124D9
:1014D0002D5F0D5F83EB91E073E0E72E0E94B41D5A
:1014E0008091B701849DC00111242091B801662D1F
:1014F000621B372D381B832F0E94FE0583EB91E082
:1015000061ED70E00E949B3483EB91E060E478E051
:101510000E94CA1E8091BD0182508093BD0183EB61
:1015200091E06FEC70E00E949B3483EB91E06EEBF6
:1015300076E00E94CA1E88E991E062E00E940D1BDD
:10154000882339F0C50101966AE070E00E945D3998
:10155000182F88E991E060E00E940D1B882319F0A4
:10156000115008F419E088E991E063E00E940D1B36
:10157000882319F063E0F62EFC2088E991E061E011
:101580000E940D1B882331F0FA948FEFF81611F4A6
:1015900053E0F52E88E991E065E00E940D1B882359
:1015A00011F0188252C088E991E064E00E940D1B9E
:1015B000882309F4DBCEDE010D900020E9F71197B6
:1015C000AC1BBD0B193021F422E0F21609F43DC02A
:1015D0002A2F33E0F31651F4A81508F0C7CEFE0108
:1015E000EA0FF11D105D108310532AC0F59CF00125
:1015F0001124E10FF11DEF54FF4F94919C3349F4F6
:10160000AA2309F4B3CEFE01EA0FF11D319710822F
:10161000ADCE892F8851823030F480E0992009F4D2
:1016200081E0982EA3CEA81508F0A0CE9F3511F426
:1016300090E202C091109F7DFE01E20FF11D9083A8
:101640002F5FFE01E20FF11DE2CFDF91CF911F91DD
:101650000F91FF90EF90DF90CF90BF90AF909F9051
:101660008F907F906F905F904F9008950F931F938E
:10167000109203021092040210E0E12FF0E0E95F03
:10168000FC4F0081002319F4109203024DC0809199
:10169000BD0180331CF01093040246C00E3321F0CC
:1016A0000C3311F00E3569F5809105028F3F11F46E
:1016B0001093050280910502811711F090E016C089
:1016C0008091D5019091D601A091D701B091D80118
:1016D00072E0B695A795979587957A95D1F7817021
:1016E0009070A070B070982F811191E0892F0E94A6
:1016F000B00680910702882349F00E3339F41F5F4A
:1017000005C083EB91E0602F0E94BE3480910302FC
:10171000882341F48091BD01181624F41F5F1093B3
:10172000030211501F5FA9CF1F910F9108951F93BE
:10173000162F442309F1882329F08091BC01845D90
:101740008093BC01112371F083EB91E061E072E0C2
:101750000E949B3483EB91E0612F4AE050E00E94AD
:101760009A350AC06091BC01605F83EB91E040E173
:1017700026E032E00E944D1E1F910895AF92BF9265
:10178000CF92DF92EF92FF920F931F93CF93DF934D
:10179000082F81E08093A60161E070E080E090E096
:1017A00027E030E040E050E00E949736162F0130ED
:1017B00011F4BB240BC061E070E080E090E027E012
:1017C00030E040E050E00E949736B62E812F90E046
:1017D0007C01EE0CFF1C26E531E0E20EF31E2B2D02
:1017E00030E06901C80ED91E1B0DF2E0AF2EE901F1
:1017F000CC0FDD1FCA5ADE4F8EE891E00E94122303
:101800008823D1F3002329F483EB91E066EE71E0A5
:101810000DC0013029F483EB91E06AE172E006C06B
:10182000023031F483EB91E067E272E00E94E6342B
:1018300083EB91E060E04091BD0124E50E94451CEE
:10184000BB2041F02881398183EB91E069E14CE0D4
:101850000E944D1EF7012081318183EB91E064E20B
:101860004CE00E944D1E6091B70170E0882777FD23
:101870008095982F0E943B3820E030E048E351E407
:101880000E94C7380E940D38DC01CB016DE00E9438
:10189000FE0581E061E00E94960683EB91E0B601CF
:1018A0004AE050E00E940A360023F1F583EB91E014
:1018B00060E478E00E94CA1E89E068E60E94FE05A6
:1018C000812F6091EF010E94960683EB91E067E320
:1018D00072E00E949B3483EB91E06091EF014AE05B
:1018E00050E00E94AC358091BD018C5F8093BD01BA
:1018F00083EB91E06EEB76E00E94CA1EA092BB01E2
:101900008091EF0190E08C159D052CF083EB91E028
:101910006FE372E004C083EB91E068E472E00E9440
:101920009B3481E08093BB0188E991E064E00E94F0
:101930000D1B882379F488E991E065E00E940D1B76
:10194000882341F488E991E066E00E940D1B88231A
:1019500009F452CF002339F48091EF01882319F064
:1019600081508093EF011092A601002339F420E00A
:101970008091EF0190E08C159D050CF021E0822F05
:10198000DF91CF911F910F91FF90EF90DF90CF905B
:10199000BF90AF9008952F923F924F925F926F92B7
:1019A0007F928F929F92AF92BF92CF92DF92EF92EF
:1019B000FF920F931F93CF93DF9381E08093A60153
:1019C000009105020F5FC02FD0E0FE01E95FFC4FE0
:1019D000E081EA3011F0EE23A9F710E0C8018F5F33
:1019E0009C4F0E945407482EC8018B5F9C4F0E9459
:1019F0005407B82E992411E0FF24AA24C150DD4FCA
:101A000040E2342E30E1232E01C011E08EE891E057
:101A10000E9412238823D1F3BB2021F08091ED0195
:101A2000882321F4992009F44BC202C0992029F09F
:101A30009A9481E0981609F42EC283EB91E063EC4E
:101A400071E00E94E63483EB91E060E046E024E53B
:101A50000E94451C8091BD018E5F8093BD0183EB88
:101A600091E06EEC71E00E949B341092BC011882F0
:101A70006091050270E0685F7C4F81E00E948A06F9
:101A8000388288E068EC0E94FE056091ED01112328
:101A9000A9F4CD1410F0FF2089F040E08091D50129
:101AA0009091D601A091D701B091D80122E0B695CE
:101AB000A795979587952A95D1F780FF41E080E01B
:101AC0000E94970B88E064E60E94FE0520E030E06B
:101AD000112311F421E030E08F2D90E028233923E9
:101AE000232BA9F4112399F4DC1488F440E08091AD
:101AF000D5019091D601A091D701B091D80102E013
:101B0000B695A795979587950A95D1F780FF41E0FF
:101B100081E06B2D0E94970B84E668EC0E94FE0525
:101B2000112309F098C0FF2009F095C0E72DF0E0DF
:101B3000EE0FFF1FEA5AFE4F2081318183EB91E0C7
:101B400060E04091BD010E944D1E4091BD014F5F7C
:101B50004093BD014150E82DF0E0EE0FFF1FEA5A1F
:101B6000FE4F2081318183EB91E068E00E944D1EA1
:101B70002092BC0183EB91E06FEF71E00E949B34F7
:101B800083EB91E06091EB014AE050E00E949A35CE
:101B900083EB91E063ED71E00E949B344091BD01C5
:101BA00041504093BD01E52DF0E0EE0FFF1FEE59CF
:101BB000FE4F2081318183EB91E06CE20E944D1E4B
:101BC0004091BD014F5F4093BD014150E62DF0E0D3
:101BD000EE0FFF1FEE59FE4F2081318183EB91E024
:101BE00064E30E944D1E8CE38093BC0183EB91E083
:101BF0006DEF71E00E949B3483EB91E0642D4AE02D
:101C000050E00E949A3583EB91E063ED71E00E9411
:101C1000E63483EB91E060E478E00E94CA1E8AE03B
:101C20008093BC0181E061E00E94960683EB91E025
:101C30006C2D4AE050E00E949A3586E38093BC0107
:101C400081E061E00E94960683EB91E06D2D4AE011
:101C500050E00E949A3583EB91E06AE247E02DE183
:101C60000E944F1C112301F5FF20F1F483EB91E05A
:101C70006EEB76E00E94CA1E88E265E60E94FE05D1
:101C80008C2D6D2D0E9496064091BD0141502091F2
:101C9000B7012C5F0091B8010E5F83EB91E066E223
:101CA00033E0E32E0E94B41D83EB91E060E044E258
:101CB00024E50E94451C992009F0A8CE80E065E249
:101CC0000E94FE051123F1F000E0FF2009F401E07D
:101CD000802F0E94B00683EB91E063EC71E00E94DC
:101CE000E6348F2D0E94B00683EB91E067ED71E042
:101CF0000E949B3488E991E063E00E940D1B8823D9
:101D000029F51CC000E0AA2009F401E0802F0E9400
:101D1000B00683EB91E06AEF71E00E94E634FF20A9
:101D200019F4CD1409F4D0C08A2D0E94B00683EBBB
:101D300091E066EE71E00E949B34C6C088E991E0B4
:101D400061E00E940D1B882309F40F2D88E991E0C2
:101D500064E00E940D1B882311F4F02E56CE002360
:101D600079F08091ED0182508093ED01843628F462
:101D700010E0FF24F394AA2449CE1092ED01F8CF8D
:101D800061E070E080E090E027E030E040E050E08B
:101D90000E949736562E61E070E080E090E027E0E8
:101DA00030E040E050E00E949736662E61E070E03F
:101DB00080E090E027E030E040E050E00E9497367D
:101DC000762E61E070E080E090E027E030E040E0D7
:101DD00050E00E949736862EC72CC60E8091EB01EC
:101DE000C80ED52CD60CD40CCD1460F48091ED0126
:101DF00082508093ED01843610F01092ED01FF24A3
:101E000010E0B9CFDC14D8F78EEFB80E83E68B154F
:101E1000B0F7FF2410E0AA24BB24F8CD88E991E0B4
:101E200061E00E940D1B882321F0FF2009F4CD10F2
:101E3000A02E88E991E064E00E940D1B882309F43C
:101E4000E5CDAA2029F180E00E94BE0B882381F015
:101E5000FF2011F4CD1430F48091ED018F5F809359
:101E6000ED0116C08EEFB80E83E68B15B0F1CDCD27
:101E7000FF2011F4CD1450F48091ED018250809335
:101E8000ED01843628F01092ED0102C0B394BDCD6F
:101E9000FF2009F4BACD1092A601DF91CF911F91D6
:101EA0000F91FF90EF90DF90CF90BF90AF909F90F9
:101EB0008F907F906F905F904F903F902F900895FC
:101EC000B5E19B2E11E0B4CD88E991E063E00E947A
:101ED0000D1B882309F0A9CFA1CFBB2496CD0F936A
:101EE0001F93DF93CF9300D000D0CDB7DEB78E0124
:101EF0000F5F1F4FB8010E948607E7E0F3E0DF01A4
:101F00000D900020E9F7AF014A1B5B0B4C545F4F6B
:101F1000CF01B8010E94693A0F900F900F900F9077
:101F2000CF91DF911F910F910895BC01DC010D90BD
:101F30000020E9F71197A81BB90B87E093E0AD01EA
:101F40000E94693A0895BC01E7E0F3E0DF010D90DB
:101F50000020E9F7AF014A1B5B0B4C545F4FCF01E8
:101F60000E94373A08950F931F9387E093E060E053
:101F700071E00E94623A8091FD019091FE01892BEF
:101F800041F48FEC92E00E94A30F81E091E00E9467
:101F9000950F8091FD019091FE010297D4F483E0AA
:101FA00091E00E94950F84EE92E00E94A30F809131
:101FB000EB0190E00E946F0F86E091E00E94950F88
:101FC0008091EC0190E00E946F0F81E091E00E940F
:101FD000950F8091FD019091FE010397D4F488E064
:101FE00091E00E94950F8EEE92E00E94A30F8091E7
:101FF000ED0190E00E946F0F86E091E00E94950F46
:102000008091EE0190E00E946F0F81E091E00E94CC
:10201000950F8091FD019091FE010497D4F48BE01F
:1020200091E00E94950F87E392E00E94A30F8091B8
:10203000EF0190E00E946F0F86E091E00E94950F03
:102040008091F00190E00E946F0F81E091E00E948A
:10205000950F8091FD019091FE010597ACF48EE003
:1020600091E00E94950F89EF92E00E94A30F80916A
:10207000F30190E00E946F0F8DEF92E00E94A30F9A
:1020800081E091E00E94950F8091FD019091FE0109
:1020900006978CF481E191E00E94950F81E093E036
:1020A0000E94A30F8091F40190E00E946F0F81E0E5
:1020B00091E00E94950F8091FD019091FE0107979C
:1020C0000CF03FC08091F2018F3F69F484E191E010
:1020D0000E94950F8DE093E00E94A30F86E193E0AC
:1020E0000E94A30F2AC084E191E00E94950F86E12F
:1020F00093E00E94A30F8091F201882319F48EE1EE
:1021000093E009C0813019F488E293E004C0823082
:1021100021F483E393E00E94A30F8091F1018230C8
:1021200019F487E191E007C0813019F489E191E069
:1021300002C08BE191E00E94950F81E091E00E9446
:10214000950F8091FD019091FE01089744F48FE373
:1021500093E00E94A30F81E091E00E94950F80918F
:10216000FD019091FE01099764F48DE191E00E94D8
:10217000950F89E493E00E94A30F81E091E00E9413
:10218000950F8091FD019091FE010A9764F480E221
:1021900091E00E94950F8AE593E00E94A30F81E0F1
:1021A00091E00E94950F8091FD019091FE010B97A7
:1021B00064F483E291E00E94950F8AE192E00E942C
:1021C000A30F81E091E00E94950F8091FD01909115
:1021D000FE010C9764F486E291E00E94950F87E27D
:1021E00092E00E94A30F81E091E00E94950F809100
:1021F000FD019091FE010D9764F489E291E00E9447
:10220000950F8DE693E00E94A30F81E091E00E947C
:10221000950F8091FD019091FE010E9744F489E79E
:1022200093E00E94A30F81E091E00E94950F00E0EF
:1022300014C0802F90E00E962091FD013091FE0198
:10224000821793074CF0802F0E94640690E0885F0D
:102250009D4F0E94950F05C00F5F0E9453060817FF
:1022600040F30091FD011091FE010E94530690E0A1
:102270000E968017910744F08CE291E00E94950F32
:1022800086E893E00E94A30F1092BA031F910F916A
:102290000895DF93CF9300D000D000D0CDB7DEB744
:1022A0009C01220F331F280F391F442737FD40950B
:1022B000542FCA01B9010E949728CE01039663E00A
:1022C00070E0AE014F5F5F4F0E94542B2B8130E0D6
:1022D00040E050E0542F432F322F22278C81280FCB
:1022E000311D411D511D542F432F322F22278D8127
:1022F000280F311D411D511DB901CA0126960FB687
:10230000F894DEBF0FBECDBFCF91DF9108958F92BD
:102310009F92AF92BF92CF92DF92EF92FF920F9374
:102320001F93DF93CF9300D0CDB7DEB78091F50137
:102330009091F6010E9449114B015C018091F901D5
:102340009091FA01A0E0B0E0880E991EAA1EBB1E73
:102350008091F5019091F60101960E9449116B015F
:102360007C01C818D908EA08FB0883EBC816D10419
:10237000E104F1042CF0F2EBCF2ED12CE12CF12C66
:102380008601C501B4010E94972887E093E0B60159
:10239000AE014F5F5F4F0E94542B095F1C4FF80145
:1023A00011820F900F90CF91DF911F910F91FF90AD
:1023B000EF90DF90CF90BF90AF909F908F90089557
:1023C000CF92DF92EF92FF920F931F93DF93CF9301
:1023D000CDB7DEB72B970FB6F894DEBF0FBECDBFDB
:1023E0008C011092FA011092F9011092FE011092E4
:1023F000FD01181619061CF00E9487115CC06E01C1
:102400000894C108D1087E010894E11CF11CE80E73
:10241000F91E0E94871191E021E080E0E82FF0E0B2
:10242000E95FFC4FE081EE2389F0293078F49F5F6B
:10243000963110F4EA3041F42F5FF601E20FF11DFE
:102440008F5F8083815091E08F5FE8CFE091FD0145
:10245000F091FE010E171F0731F1CF010896209170
:10246000F9013091FA018017910794F0E095F09509
:10247000EE0DFF1D8081280F311D3093FA0120934E
:10248000F9011093FE010093FD010E9487110BC01A
:102490009093FE018093FD018885280F311D3093B4
:1024A000FA012093F9018091FD019091FE018017BE
:1024B000910709F0AECF2B960FB6F894DEBF0FBE92
:1024C000CDBFCF91DF911F910F91FF90EF90DF90E3
:1024D000CF9008951092FE011092FD011092FA0122
:1024E0001092F9018FEF809305020E9487110895E1
:1024F0002F923F924F925F926F927F928F929F9214
:10250000AF92BF92CF92DF92EF92FF920F931F9301
:10251000CF93DF931C014B012A018091D4018823C2
:1025200009F4B0C181E08093BB011092BA0110920E
:10253000B9011092A60183EB91E061E00E94C01BFB
:1025400099E1692E712C8EE891E00E941223882374
:10255000D1F383EB91E060E040E022EE30E00E94B6
:102560004D1E4091B801445F83EB91E060E0920121
:102570000E944D1E80E06CE00E94FE0580910102E9
:1025800090910202892B09F0C4C09301442737FDC2
:102590004095542F6091D5017091D6018091D7015B
:1025A0009091D8010E9470399B01AC012431310512
:1025B0004105510520F483EB91E0B1015EC0293162
:1025C000310541055105C8F40091B70110E083EBD6
:1025D00091E0B4010E949B34809FE001819FD00D67
:1025E000909FD00D1124C455D0403E01660C771C3D
:1025F00063E270E0660E771E42C05E01CC24B7FC39
:10260000C094DC2CDA01C9014997A109B1098A15E6
:102610009B05AC05BD0528F48091BC01875E821B3B
:1026200027C079018A01EA18FB080C091D09D801A5
:10263000C7014997A109B1090597A105B10520F482
:102640008091BC018C1B14C082EE9FEFAFEFBFEFF7
:10265000E80EF91E0A1F1B1FEA14FB040C051D05DA
:1026600048F48091BC018E51DE01AA0F8A1B820FB3
:102670008093BC0183EB91E0B4010E949B342091D4
:10268000B70130E0C901880F991F820F931F909501
:1026900081959F4F2091B80130E0B901660F771FF7
:1026A000620F731F709561957F4F635D8D5A0E9415
:1026B000FE058091D50184FF05C083EB91E06FEBAF
:1026C00071E004C083EB91E06CEB71E00E94E634B2
:1026D0002091B70130E0C901880F991F820F931F25
:1026E000909581959F4F8D5A65E60E94FE0583EB7C
:1026F00091E06AEB71E00E949B348091BC018D5F98
:102700008093BC0183EB91E068EB71E00E94E634BA
:1027100052C083EB91E060E04CE024E50CE10E94C4
:10272000591C83EB91E060E00E94C01B83EB91E0B9
:1027300062E04EE020E508E10E94591C83EB91E045
:1027400061E00E94C01B85E062E10E94FE0580916D
:102750000102909102028330910519F464EA71E05C
:1027600007C0019719F463E971E002C06CE871E0F9
:1027700083EB91E00E94E63485E068E60E94FE0566
:1027800080910102909102028330910519F46BE768
:1027900071E007C0019719F46AE671E002C067E5CD
:1027A00071E083EB91E00E949B348091B801BEE21E
:1027B000B81BB093BD012091B70130E0C901880F6B
:1027C000991F820F931F909581959F4F8D5A65E6B3
:1027D0000E94FE0583EB91E065E571E00E949B3469
:1027E0008091BC018F5F8093BC0183EB91E062E537
:1027F00071E00E94E6348091010290910202892BDF
:10280000D1F588E991E064E00E940D1B8823A9F4CA
:102810006091D401262F30E040E050E08091D50156
:102820009091D601A091D701B091D801821793075A
:10283000A407B50700F16F3FF1F08FEF8093D4014B
:10284000109207020E946A121DC088E991E065E0BB
:102850000E940D1B882311F00E94CF0688E991E0A9
:1028600066E00E940D1B882309F46DCE8EE891E08E
:102870000E94C22168CE8091010290910202892BB0
:1028800069F7E3CFDF91CF911F910F91FF90EF9008
:10289000DF90CF90BF90AF909F908F907F906F9080
:1028A0005F904F903F902F900895CF93DF938CEFE0
:1028B00095E060E070E04FEF0E941E2E8CEF95E0F7
:1028C00061E070E04FED0E941E2E8CEF95E062E01B
:1028D00070E04091EB010E941E2E8CEF95E063E0CA
:1028E00070E04091EC010E941E2E8CEF95E064E0B8
:1028F00070E04091ED010E941E2E8CEF95E065E0A6
:1029000070E04091EE010E941E2E8CEF95E066E093
:1029100070E04091EF010E941E2E8CEF95E067E081
:1029200070E04091F0010E941E2E8CEF95E068E06F
:1029300070E04091F1010E941E2E8CEF95E069E05D
:1029400070E04091F2010E941E2E8CEF95E06AE04B
:1029500070E04091F3010E941E2E8CEF95E06BE039
:1029600070E04091F4010E941E2E4091F6018CEF20
:1029700095E06CE070E00E941E2E8CEF95E06DE01B
:1029800070E04091F5010E941E2E4091F8018CEFFD
:1029900095E06EE070E00E941E2E8CEF95E06FE0F7
:1029A00070E04091F7010E941E2E4091FA018CEFD9
:1029B00095E060E170E00E941E2E8CEF95E061E1F1
:1029C00070E04091F9010E941E2EC2E1D0E0FE01AC
:1029D000EA50FE4F8CEF95E0BE0140810E941E2E12
:1029E000219681E0C031D80791F7DF91CF9108950A
:1029F00082E08093F1018AE08093F40161E070E06D
:102A000080E090E027E030E040E050E00E94973620
:102A10006A5F6093EC016093EB0162E070E080E03C
:102A200090E02DE030E040E050E00E949736645F97
:102A30006093EE016093ED0161E070E080E090E072
:102A400027E030E040E050E00E9497366A5F6093F4
:102A5000F0016093EF018FEF8093F2011092F60185
:102A60001092F50187E797E79093F8018093F701BB
:102A700088E092E062E775E00E94303A0895CF92D4
:102A8000DF92EF92FF920F931F93DF93CF93CDB717
:102A9000DEB761970FB6F894DEBF0FBECDBF8EE8EC
:102AA00091E00E941223882309F4ADC38091ED01C7
:102AB0008823D9F4809107028823B9F483EB91E04D
:102AC00065E240E026E032E00E944D1E8AE08093FD
:102AD000BD0181E08093BA0183EB91E065EB73E087
:102AE0000E94E6341092BA01BCC081E08093BA0122
:102AF0000E94360B1092BA0188E991E063E00E94CF
:102B00000D1B8823A1F10E9439068F3F19F00E9406
:102B100039062BC020910302222349F18091FD0147
:102B20009091FE0101969093FE018093FD018091AA
:102B3000F9019091FA01820F911D9093FA0180930F
:102B4000F90180910702882319F00E94B30F02C097
:102B50000E948711809105028F3F49F090910302F6
:102B6000891710F48FEF01C0891B8093050288E953
:102B700091E061E00E940D1B882309F10E94240668
:102B80008F3F19F00E94240618C02091FD0130915A
:102B9000FE012115310599F0809107022150304046
:102BA000882339F03093FE012093FD010E94B30F7A
:102BB00003C0C9010E94E0118FEF8093050288E9EC
:102BC00091E062E00E940D1B882319F1209104021C
:102BD0002223F9F08FEF809305028091FD019091FF
:102BE000FE0108969093FE018093FD018091F9010A
:102BF0009091FA01820F911D9093FA018093F9014F
:102C000080910702882319F00E94B30F02C00E942E
:102C1000871188E991E060E00E940D1B882309F18B
:102C20002091FD013091FE0121153105D1F08091F7
:102C30000702882379F0283031051CF480E090E009
:102C400002C0C90108979093FE018093FD010E9484
:102C5000B30F04C0C90108970E94E0118FEF809361
:102C6000050288E991E064E00E940D1B882341F091
:102C70008091ED01882321F40E94F8140E946A12C9
:102C800088E991E064E00E940D1B882309F459C291
:102C9000E0910502EF3F09F454C2809107022E2F04
:102CA00030E0882309F427C2F901E95FFC4F8081F5
:102CB0008E3509F050C08EE891E068E770E042E0A0
:102CC0000E94BB23882309F03CC280910502282F73
:102CD00030E010E07E010894E11CF11C812F90E0AF
:102CE000FC01E20FF31F6701C80ED91EE95FFC4F1C
:102CF0008081D6018C93012F0F5F8A3071F4F70128
:102D0000E00FF11D108288E092E0B7010E94883A3E
:102D10009C01009721F0102F0AC0102FDFCFF60181
:102D2000108288E092E0B7010E94883A9C0140E05E
:102D3000612F70E0F901E40FF11DDF01A60FB71F4D
:102D40008C918083882311F04F5FF4CF0E94B30FE2
:102D50000E942406CDC18E3309F0F3C181818930F0
:102D600009F426C18A307CF4843009F488C08530A7
:102D70001CF48130DCF4E5C1853009F493C0863061
:102D800009F0DFC1C6C08C3009F44CC18D303CF471
:102D90008A3009F42FC18B3009F0D3C141C18D3085
:102DA00009F442C18E3009F0CCC15DC18EE891E0DA
:102DB00068E670E043E00E94BB23992787FD909569
:102DC00097FDBFC18230910509F4BBC19C0173E03E
:102DD000220F331F7A95E1F7880F991F280F391FAB
:102DE000E0910502F0E0E95FFC4F8181992787FDC2
:102DF0009095280F391F23303105D1F0243031054B
:102E00003CF42130310571F022303105F1F40DC070
:102E10002C30310599F02D30310599F02B303105EA
:102E2000A1F409C08BEE91E00EC08DEE91E00BC0D5
:102E30008FEE91E008C08CEE91E005C08EEE91E03F
:102E400002C080EF91E00E9474099091EC018091A2
:102E5000EB01981710F49093EB019091EE018091A3
:102E6000ED01981710F49093ED019091F00180918D
:102E7000EF01981708F099C09093EF0196C08091E8
:102E8000F30190E063E00E94CD07FFEF8F3F9F07C3
:102E900009F457C1893C910514F088EC90E08093C7
:102EA000F30183C08EE891E062E770E043E00E94A6
:102EB000BB23282F332727FD309521153105B9F481
:102EC0009091F401992399F091509093F40180919D
:102ED000ED018C5F8093ED019091EE01981710F455
:102EE0009093ED018EE891E06AEE73E05BC02130D3
:102EF000310509F026C18091F40190E062E00E9462
:102F0000CD072FEF8F3F920709F41BC18093F40187
:102F10004CC08091F2018F3F81F48EE891E06CE724
:102F200070E044E00E94BB23992787FD9095833091
:102F30009105D8F58093F20138C08091F101882382
:102F4000A1F18EE891E06EE670E042E00E94BB23C2
:102F5000882359F58091F10181508093F10180918E
:102F6000F201813049F48091EE018093ED018EE809
:102F700091E067EF73E016C0823061F48091F00158
:102F80008F5F8093F0018093EF018EE891E06BE01A
:102F900074E008C08091EC018093EB018EE891E031
:102FA0006FE174E04FE00E9436210E94B30FC9C068
:102FB0000E945514109207028091FB019091FC0130
:102FC0009093FA018093F9018091FF0190910002A2
:102FD0009093FE018093FD0180910602809305028B
:102FE0000E9487118EE891E064E374E04FE00E9454
:102FF0003621A7C02091F7013091F80187E72737E4
:10300000380709F49EC08091F5019091F601309344
:10301000F6012093F5019093F8018093F70120C009
:1030200081E086C082E084C08FEF9FEF63E00E9462
:10303000CD079C01AFEF8F3F9A0709F482C0B1E042
:1030400082399B070CF07DC08091F5019091F601CB
:103050009093F8018093F7013093F6012093F501E6
:10306000109207025FC019821A821B821C82FE0125
:1030700035968DE0DF011D928A95E9F7CE01019624
:1030800060E10E9499098981882309F45AC0A8E067
:10309000B2E0FD0101900020E9F73197EA1BFB0B3C
:1030A000EE3FF10508F04DC080910802882329F019
:1030B000CD0161E071E00E94573A08E012E0C801DA
:1030C00060E371E00E94573AF80101900020E9F7AF
:1030D00047E053E04E1B5F0BC801BE016F5F7F4F9F
:1030E0000E94693A109206030E94B30F0E943906AB
:1030F0008093050226C0F901E95FFC4FE081EE33C1
:10310000A1F48091F5019091F6019093F8018093DC
:10311000F701C901885F9C4F0E9454079093F60104
:103120008093F5010E946A120CC0EC3321F480E018
:103130000E94BE0B06C0EE3521F40E94CB0C0E940B
:10314000871188E991E065E00E940D1B882309F44E
:1031500042C090E080910702882309F491E09093A7
:103160000702992311F18091F9019091FA0190934E
:10317000FC018093FB018091FD019091FE019093F1
:1031800000028093FF018091050280930602109255
:10319000FE011092FD011092FA011092F9018FEFD9
:1031A000809305020E94B30F16C08091FB0190919D
:1031B000FC019093FA018093F9018091FF019091B5
:1031C00000029093FE018093FD018091060280939E
:1031D00005020E94871188E991E066E00E940D1BBC
:1031E000882389F00E9455148EE891E064E374E02E
:1031F0004FE00E94362189E494E06FE574E040E8F6
:1032000054E00E94781261960FB6F894DEBF0FBEAC
:10321000CDBFCF91DF911F910F91FF90EF90DF9085
:10322000CF9008950F931F93CF93DF938CEF95E08A
:1032300060E070E00E94172E182F00E08CEF95E000
:1032400061E070E00E94172E080F111D0F5D1F4FE7
:1032500019F00E94F814AAC08CEF95E062E070E0CB
:103260000E94172E8093EB018CEF95E063E070E0F5
:103270000E94172E8093EC018CEF95E064E070E0E3
:103280000E94172E8093ED018CEF95E065E070E0D1
:103290000E94172E8093EE018CEF95E066E070E0BF
:1032A0000E94172E8093EF018CEF95E067E070E0AD
:1032B0000E94172E8093F0018CEF95E068E070E09B
:1032C0000E94172E8093F1018CEF95E069E070E089
:1032D0000E94172E8093F2018CEF95E06AE070E077
:1032E0000E94172E8093F3018CEF95E06BE070E065
:1032F0000E94172E8093F4018CEF95E06CE070E053
:103300000E94172E182F00E01093F6010093F5018C
:103310008CEF95E06DE070E00E94172E080F111DF4
:103320001093F6010093F5018CEF95E06EE070E0EC
:103330000E94172E182F00E01093F8010093F70158
:103340008CEF95E06FE070E00E94172E080F111DC2
:103350001093F8010093F7018CEF95E060E170E0C5
:103360000E94172E182F00E01093FA010093F90124
:103370008CEF95E061E170E00E94172E080F111D9F
:103380001093FA010093F901C2E1D0E08CEF95E0CF
:10339000BE010E94172EFE01EA50FE4F8083219647
:1033A00081E0C031D80791F710920603DF91CF91E9
:1033B0001F910F9108950F931F930EE811E0C8011C
:1033C0000E94D424C8016AE00E942C218EE896E075
:1033D00040E855E260E070E00E94DB328BEF95E060
:1033E0006AE070E042EF55E029EF35E00E94E42DFD
:1033F00082E391E00E94FA2A9093020280930102F4
:103400000E94121989E494E06FE574E040E854E00A
:103410000E947812C8010E94C7221F910F9108953F
:10342000882319F48CB5806202C08CB58F7D8CBD69
:1034300008959CB5937F982B9CBD08952CB5382F8B
:1034400033702C7F322B3CBD2DB590E09595879540
:103450009595879581702E7F822B8DBD08958AE08A
:1034600061E00E94EE318AE061E00E9482318CB519
:1034700080618CBD8CB580648CBD8DE061E00E9464
:1034800082318BE061E00E9482310895FC0181E08D
:103490008083089585E070E00E94223108956F9244
:1034A0007F928F929F92AF92BF92CF92DF92EF92D4
:1034B000FF920F931F93CF93DF93EC0189819A8141
:1034C0008C0124E0000F111F2A95E1F7081B190B4E
:1034D00085E10E940031BC01600F711F84E0769588
:1034E00067958A95E1F77A8369838881882381F1DA
:1034F0002E813F816217730710F4B90106C08885D9
:1035000099858617970708F4BC0100D000D080E0A9
:1035100090E040E050E0E884F98400E010E0AD8005
:10352000BB24CC24DD246C80772488249924EDB737
:10353000FEB761827282838294820E942C366B83F2
:103540000F900F900F900F9085E070E00E94223155
:10355000DF91CF911F910F91FF90EF90DF90CF906F
:10356000BF90AF909F908F907F906F900895FC01D7
:103570008CE39FE09383828384E0818381E084876E
:103580000895CF93DF93EC018C8590E08F7190705C
:10359000892B69F584E10E940031AA2797FDA09547
:1035A000BA2FBC01CD010E943B3826EE3FE34EEC22
:1035B00050E40E94C7380E940D389B01AC017B8308
:1035C0006A836115710589F084E08983B901FE0180
:1035D00020E0848195816817790710F429830AC057
:1035E0002F5F32962430A9F702C08FEF89838C8534
:1035F0008F5F8C87DF91CF910895FC0188E08083F5
:1036000089E0818387E0828386E0838384E084830A
:1036100082E0858381E18683089520E0FC01E60F46
:10362000F11D8781813009F421E0822F0895E62F72
:10363000F0E0423040F420E0E80FF91F878181502C
:103640008E3F88F40FC0E80FF91F87818F3F11F478
:1036500020E009C020E090E0642F70E00E9449392A
:10366000019709F421E0822F08950F931F93CF93C0
:10367000DF93EC0110E00FEF888162E00E9482315D
:1036800088810E9421322F81892B19F42F5F2F838B
:1036900007C0222349F02F3F11F41F8201C00F837E
:1036A000888160E00E9482311F5F2196173021F7E8
:1036B000DF91CF911F910F910895FC01742F643514
:1036C00008F05DC047FD5BC040330CF058C0878DEB
:1036D000823019F5842F859585958595992787FDE5
:1036E0009095462F552747FD509524E530E0829F61
:1036F000F001839FF00D929FF00D1124E40FF51F50
:10370000E554FC4F808190E0272F277002C09595EB
:1037100087952A95E2F780958170972F95959595D5
:103720009595462F552747FD5095272F27708823BD
:10373000A1F4E4E59E02F0011124E40FF51FE55425
:10374000FC4F81E090E002C0880F991F2A95E2F7B4
:1037500080952081282320830895E4E59E02F001CE
:103760001124E40FF51FE554FC4F81E090E002C006
:10377000880F991F2A95E2F72081282B208308952E
:10378000FC01678F60A30895FC01678F40A3089533
:10379000AF92BF92CF92DF92EF92FF920F931F935F
:1037A000CF93DF93EC01162FF42EE22EAA24402FA4
:1037B000552747FD50958F2D992787FD9095481BDC
:1037C000590B57FF03C0509541955F4F2E2D33275E
:1037D00027FD3095812F992787FD9095281B390B60
:1037E00037FF03C0309521953F4F2417350744F428
:1037F000AA24A3948F2DF12E182F802F0E2DE82EA2
:10380000E11634F48E2DE12E182F802F0F2DF82E77
:10381000DE2CD11A202F332727FD30958F2D9927A5
:1038200087FD9095281B390B37FF03C030952195F4
:103830003F4FB22EF0161CF0CC24CA9402C0CC2408
:10384000C3948D2DD7FC8F5F082F059511C0AA203A
:1038500021F0CE016F2D412F03C0CE01612F4F2DDE
:103860000E945D1B0B1907FF02C0FC0C0D0D1F5FB2
:10387000E1166CF7DF91CF911F910F91FF90EF90C0
:10388000DF90CF90BF90AF9008950F93042F322F09
:10389000262F2150230F0E94C81B0F9108950F93CC
:1038A000362F042F0150020F232F0E94C81B0F91A7
:1038B00008959F92AF92BF92CF92DF92EF92FF92C4
:1038C0000F931F93CF93DF936C01B62E942EA02EEF
:1038D000C0E0D0E0E62EFF24E7FCF094022F112791
:1038E00007FD10950E0D1F1D06C0C601492D2A2D7E
:1038F0000E944F1C21966B2D6C0FCE018E0D9F1DCB
:103900008017910794F3DF91CF911F910F91FF9052
:10391000EF90DF90CF90BF90AF909F9008952F923F
:103920003F925F926F927F928F929F92AF92BF92DF
:10393000CF92DF92EF92FF920F931F93DF93CF937B
:1039400000D000D000D0CDB7DEB79E838D83C62EC9
:10395000D42EEE24E394E21A8EEF289F502C1124EB
:10396000842E8A94962E9A94A42EA394B62EB39461
:10397000F22E662423E0722E10E0C801847090704D
:103980009A838983F801E270F070FC83EB8398E0FE
:10399000292E312C202231220170107054C0E7FCF6
:1039A00004C0FA94F2E05F0EE50C639489819A8179
:1039B000892B71F04F2D4D0D8D819E816B2D0E94B5
:1039C0005D1B6F2D6C0D8D819E814A2D0E945D1BAC
:1039D000EB81FC81EF2B71F04D2D4F198D819E8174
:1039E0006B2D0E945D1B6F2D6C0D8D819E81482D6E
:1039F0000E945D1B2114310471F06C2D6F198D81B3
:103A00009E814A2D0E945D1B4F2D4D0D8D819E8103
:103A1000692D0E945D1B0115110571F06C2D6F1948
:103A20008D819E81482D0E945D1B4D2D4F198D81EA
:103A30009E81692D0E945D1BE70CF2E07F0E8A9447
:103A40009A94A394B3946F140CF4A9CF26960FB64E
:103A5000F894DEBF0FBECDBFCF91DF911F910F91C4
:103A6000FF90EF90DF90CF90BF90AF909F908F909E
:103A70007F906F905F903F902F9008954F925F924C
:103A80006F927F928F929F92AF92BF92CF92DF926E
:103A9000EF92FF920F931F93CF93DF93EC01A62E2B
:103AA000742E9E2DFF24F394F21A8EEF289F802C03
:103AB0001124B42EBA9453E0C52ECE0CE22EDD2490
:103AC00043E0942E10E031E0432E512C402251224D
:103AD000692E63940270107034C0F7FC04C0EA943D
:103AE00082E0880EF80CD3944114510489F06D2DB6
:103AF0006A0D472D4E192E2D220F260DCE010E9444
:103B00004F1C6E2D6A0DCE014B2D2C2D0E944F1C8B
:103B10000115110589F06A2D6D19472D4E192E2DAD
:103B2000220F260DCE010E944F1C6A2D6E19CE0168
:103B30004B2D2C2D0E944F1CF90C82E0980EBA944C
:103B4000C80EDE1454F2DF91CF911F910F91FF90B8
:103B5000EF90DF90CF90BF90AF909F908F907F902D
:103B60006F905F904F9008957F928F929F92AF9247
:103B7000BF92CF92DF92EF92FF920F931F936C014F
:103B8000962EA42EF22E7E2C760E1EEFE19E102D88
:103B90001124812E820E672D282D0E94451CB02EE7
:103BA000BA0CBA94C601672D4B2D282D0E94451CD6
:103BB000AE0C100FC601692D4A2D212F0E944F1CFB
:103BC000F90CFA94C6016F2D4A2D212F0E944F1C2B
:103BD000C601672D4A2D2E2D01E00E948F1CFE1874
:103BE000C6016F2D4A2D2E2D02E00E948F1CBE189B
:103BF000C6016F2D4B2D2E2D04E00E948F1CC60197
:103C0000672D4B2D2E2D08E00E948F1C1F910F91C8
:103C1000FF90EF90DF90CF90BF90AF909F908F90EC
:103C20007F9008958F929F92AF92BF92CF92DF9232
:103C3000EF92FF920F931F936C01162FA42E922EDA
:103C4000F02EBE2C8E2C860E2EEFE29EE02C112440
:103C50002E2D290D682D0E94591CAB0CFA94FE0CD8
:103C60001150190D1B19C601612F4A2D2B2D01E092
:103C7000EF2C0E943E1DC601682D4A2D2B2D02E01F
:103C80000E943E1D1F910F91FF90EF90DF90CF900B
:103C9000BF90AF909F908F9008952F923F924F9238
:103CA0005F926F927F928F929F92AF92BF92CF92CC
:103CB000DF92EF92FF920F931F93DF93CF9300D089
:103CC0000F92CDB7DEB73C016983442E8901F9011B
:103CD00054900F5F1F4FF801D49001501040852D74
:103CE00090E0079673E0959587957A95E1F7EE2435
:103CF00060E8262E312C882E992487FC9094D40ECF
:103D000031C08E2D8770510102C0B594A7948A9559
:103D1000E2F78E2D859585958595282F332727FDEC
:103D200030952E5F3F4F200F311F3B832A83F42CA9
:103D3000C980CE0C14C0EA81FB81849190E08A2175
:103D40009B21892B29F0C3016C2D4F2D0E945D1BF7
:103D50002A813B81280D391D3B832A83F394FD146E
:103D600051F7E394E51469F60F900F900F90CF91FF
:103D7000DF911F910F91FF90EF90DF90CF90BF9058
:103D8000AF909F908F907F906F905F904F903F90FB
:103D90002F900895DC01FB0184918F5F14968C9322
:103DA0001497319684918F5F15968C931597319661
:103DB0005E96FC93EE935D9708953F924F925F92CB
:103DC0006F927F928F929F92AF92BF92CF92DF922B
:103DD000EF92FF920F931F93CF93DF93EC01862E08
:103DE000A42E422F102F3F8C23E526170CF4ABC0D6
:103DF0003FE23A150CF4A7C0C02EDD248C8190E080
:103E000001979C01C29EC001C39E900DD29E900D51
:103E10001124262F332727FD3095820F931F181664
:103E200019060CF090C08D8190E09C01C29EC001EB
:103E3000C39E900DD29E900D11242A2D332727FD6D
:103E40003095820F931F181619060CF07CC0992428
:103E5000442E55246DC09C01215030404217530719
:103E600011F460E00EC0429EC001439E900D529E30
:103E7000900D1124840F951FED8DFE8DE80FF91F15
:103E800064914C9DC0014D9D900D5C9D900D112441
:103E9000682C680EBB24792C780C3FC0E62EFF24DA
:103EA00060FF19C0113039F44B2D4A0DCE01672D3A
:103EB0000E945D1B2EC02C9DC0012D9D900D3C9D30
:103EC000900D11244A2D480FCE01662D212F012F70
:103ED0000E94591C1EC098A18F8D9817D1F09F8FFA
:103EE000113039F44B2D4A0DCE01672D0E945D1B18
:103EF0000FC02C9DC0012D9D900D3C9D900D112457
:103F00004A2D480FCE01662D212F012F0E94591CEA
:103F10003F8EF594E7946E2DB3942B2D332727FD18
:103F200030958D8190E0281739070CF4B7CF939422
:103F3000492D552747FD50958C8190E0481759072A
:103F40000CF489CF3F8EDF91CF911F910F91FF909D
:103F5000EF90DF90CF90BF90AF909F908F907F9029
:103F60006F905F904F903F9008950F93CF93DF93A2
:103F7000EC01262F6A3049F48D819885899F802D28
:103F800011249A85980F9A8726C06D3029F169858A
:103F90004A8508850E94DD1E9C816885969F402D7C
:103FA00011248985480F49878F818823A9F05527D7
:103FB00047FD5095699F9001112484E590E0821B94
:103FC000930B8417950744F49D81699F902D1124CC
:103FD0008A85890F8A87198681E090E0DF91CF91E9
:103FE0000F9108951F93CF93DF93EC01162FF89450
:103FF0008E8560E00E94EE318F8518161CF460E01B
:104000000E94EE311EBD0DB407FEFDCF8EB58F852B
:1040100018161CF461E00E94EE317894DF91CF9184
:104020001F910895FF920F931F93CF93DF93EC019D
:10403000FF2400E010E06F2D6064CE010E94F21FAB
:10404000CE0160E80E94F21F8E8561E00E94EE3191
:104050008F8518161CF460E00E94EE31F801E554DB
:10406000FC4F90E080818EBD0DB407FEFDCF8EB574
:104070009F5F31969435B1F78F8518161CF461E077
:104080000E94EE31F3940C5A1F4F86E0F81699F611
:10409000CE0160E40E94F21FDF91CF911F910F913A
:1040A000FF900895CF93DF93DC0188EF91E0EBEB75
:1040B000F3E0EF019C01199221503040E1F719968D
:1040C0001C9219971A961C92DF91CF910895EF9246
:1040D0000F93CF93DF93EC014D876C872E87E88A8F
:1040E0000F8781E088878F8F18A28F83CE016EEBB8
:1040F00076E00E94CA1E0E942F1A81E00E94101AC8
:1041000085E00E941E1A8CE00E94191A8D8561E0DC
:104110000E9482318C8561E00E9482318E8561E04F
:104120000E948231888918161CF461E00E94823155
:104130008F8518161CF461E00E9482318889181658
:104140006CF460E00E94EE316AE070E080E090E0A4
:104150000E949F30888961E00E94EE31EC852E2F0D
:10416000332727FD3095F901E25BF44FE491F0E04D
:10417000EE0FFF1FE65CF44F859194919C8B8B8B27
:104180002E59344FF90184918A8FED852E2F3327D4
:1041900027FD3095F901E25BF44FE491F0E0EE0F7A
:1041A000FF1FE65CF44F859194919A8B898B2E5971
:1041B000344FF9018491898FEF852E2F332727FD06
:1041C0003095F901E25BF44FE491F0E0EE0FFF1F50
:1041D000E65CF44F859194919E8B8D8B2E59344FD4
:1041E000F90184918B8FEE852E2F332727FD309593
:1041F000F901E25BF44FE491F0E0EE0FFF1FE65CA3
:10420000F44F85919491988F8F8B2E59344FF901EB
:1042100084918C8FCE0161E20E94F21FCE0164E195
:104220000E94F21F8B8587FF02C08FE78B876B850B
:104230006068CE010E94F21FCE0160E20E94F21F70
:10424000CE016CE00E94F21FCE010E941220DF918D
:10425000CF910F91EF900895FC01EB5AFF4F88EE3C
:1042600093E070E00E945D3960830895FC01E65A96
:10427000FF4F61937193445F40830895CF93DF9321
:10428000DC01E0E8F7E785919491ED01CA5BDF4F2F
:104290008150904C09F043C0E6E9F7E7E491D096ED
:1042A000EC93D097E7E9F7E7E4911496EC93149731
:1042B000E8E9F7E7E4911596EC931597E9E9F7E754
:1042C0008591949117969C938E931697EBE9F7E757
:1042D0008591949119969C938E931897EFE9F7E73F
:1042E000E491E883E0EAF7E7859194915D969C93E9
:1042F0008E935C97E2EAF7E7859194915F969C93A1
:104300008E935E97E4EAF7E78591949191969C935A
:104310008E939097E6EAF7E7859194912CC08CE311
:10432000D0968C93D09714961C9214972FEF1596D5
:104330002C93159780E293E017969C938E93169793
:1043400084ED93E019969C938E93189728838CEABA
:104350009DE05D969C938E935C978EED9DE05F96BD
:104360009C938E935E9784E79EE091969C938E93A8
:1043700090978CE39FE093969C938E939297DF9116
:10438000CF910895EF92FF920F931F93CF93DF93F6
:104390007C018C010B5D1F4FC8010E945220C80197
:1043A00067EE7AE00E949B34C8010E94122083E0ED
:1043B0000E941E1A8BE391E0EEEFFFE30995F701EF
:1043C00013A6C80162EC7AE00E94E634C8010E949C
:1043D0001220E7012A96CE010E94351BCE0164E02F
:1043E0000E940D1B882339F462E370E080E090E0C6
:1043F0000E949F30F0CFDF91CF911F910F91FF90DE
:10440000EF9008950F931F93CF93DF93EC018C01EE
:104410000B5D1F4FC80161E040E00E94C41B85E5B1
:1044200099A5891B8EA71FA6698D6130B1F16130F6
:1044300028F0888D653008F049C043C0CE0160E0A7
:104440000E944A1AC8010E94522081E08DA7C8012B
:1044500063E27BE00E949B346A8D7B8DC8014AE059
:1044600050E00E948935C8016FE07BE00E949B34D8
:10447000C8010E94122083B7817F846083BF83B705
:10448000816083BF83B7816083BF889583B78E7F48
:1044900083BF83B78E7F83BF1FC0C95BDF4F888117
:1044A0009981AA81BB818F709070A070B0700897BD
:1044B000A105B10518F4C80167E00CC0C80168E7A0
:1044C00009C0882349F06B5FC80104C0882321F02C
:1044D000C8016FE20E94BE34DF91CF911F910F910E
:1044E0000895CF92DF92EF92FF920F931F93CF9395
:1044F000DF93EC01C45ADF4F8881CC55D04088232C
:10450000E9F18C3010F010E002C01CE0181B81E0D3
:104510008DA755E2C52ED12CCC0EDD1EC60160E064
:104520000E94C01B0AA54DE2F42E4F2D401B410FE7
:104530000D5FC60160E024E533E0E32E0E94121E09
:10454000C60161E00E94C01B0AA5F01AF10E0D5FC2
:10455000C60160E04F2D24E50E94B41D84E08EA7C3
:104560008AA5181B115D1FA7C65ADF4F6991799163
:10457000C6010E949B34888181508883DF91CF914E
:104580001F910F91FF90EF90DF90CF9008954F9281
:104590005F926F927F928F929F92AF92BF92CF92D3
:1045A000DF92EF92FF920F931F932C01FC01628C1C
:1045B000738C60947094882499240E9479305B01F4
:1045C0006C010E9479307B018C01F20141805280A4
:1045D0000E947930460E571EA094B094C094D09497
:1045E000E094F09400951095C601B501A8019701DB
:1045F0000E942A39A40193010E942A39460E571EAF
:10460000C2010E94B5361F910F91FF90EF90DF908D
:10461000CF90BF90AF909F908F907F906F905F9062
:104620004F900895AF92BF92CF92DF92EF92FF9298
:104630000F931F93CF93DF93EC0176E5A72EB12C58
:10464000A80EB91EF501E080F180028113810E945D
:104650006B30E61AF70A080B190B65E5C62ED12C4C
:10466000CC0EDD1EF601808190E0A0E0B0E08E155A
:104670009F05A007B10708F071C08E010F5A1F4FA8
:10468000F80180819181A281B3810097A105B105D4
:1046900009F464C00E946B30F6012081620F711D25
:1046A000811D911DF5016083718382839383FE01D7
:1046B000E95BFF4F80819181A281B3810196A11DA9
:1046C000B11D80839183A283B383F801108211828C
:1046D000128213820E947930C35BDF4F6883798333
:1046E0008A839B83CD54D040CE010E944F1ACE01C5
:1046F0000A960E94351BCE0148960E94C11A81E09D
:1047000022C0CE010E947122CE010E9402228E019F
:104710000B5D1F4FC8010E9412208BA5882319F43E
:10472000C8010E9452200E947930CF5ADF4F68831F
:1047300079838A839B83249728813981621B730B39
:104740007A936A9380E0DF91CF911F910F91FF9050
:10475000EF90DF90CF90BF90AF900895CF5ADF4F8A
:1047600088819981AA81BB81C155D0400097A1055C
:10477000B10541F7C6CF2F923F924F925F926F9251
:104780007F928F929F92AF92BF92CF92DF92EF92E1
:10479000FF920F931F93DF93CF9300D000D000D0F0
:1047A000CDB7DEB79E838D836A837B83542EFC0155
:1047B00013A61AE0A12EB12CA80EB91EB5E26B2EDD
:1047C000712C680E791ECC24A0E39A2E88244424F0
:1047D000FFEFF983242E3324242F21502C838D8145
:1047E0009E810E9412238823D1F3C50164E00E94B8
:1047F0000D1B882369F4C50165E00E940D1B882309
:1048000039F4C50166E00E940D1B882309F4B7C086
:10481000ED81FE8112A5C50164E00E940D1B882375
:1048200009F4B1C0C982AFC0C50163E044E00E9491
:10483000171B8111C394C50161E044E00E94171B5E
:104840008111CA948C2D992787FD90958215930527
:1048500011F4CC2402C0C7FCCC80ED81FE8182A57E
:104860008C9D902D11248C5F882E891A28C0892D4B
:10487000992787FD9095282D332727FD3095821B9A
:10488000930B0297D4F4898126960FB6F894DEBF75
:104890000FBECDBFCF91DF911F910F91FF90EF9091
:1048A000DF90CF90BF90AF909F908F907F906F9050
:1048B0005F904F903F902F90089544244394882D0B
:1048C000992787FD9095292D332727FD3095820F55
:1048D000931F62E070E00E945D39962EED81FE81AB
:1048E00016A667A721E025A714A62A813B81C90146
:1048F0008C01DD24EC2CFF24E7FCF09418C08D2DF6
:1049000090E08E159F0551F423E0ED81FE8126A7EE
:1049100082A58E9D802D1124890D87A7F8016591B0
:104920007491C3010E94E634D3940E5F1F4FD514D7
:1049300030F3C30160E00E94C01BED81FE8142A5FF
:104940004E9D402D11244150490DC30160E024E5E6
:104950000E94451CC30161E00E94C01BED81FE81E5
:1049600002A50E9D402D11244250490D0D5FC3013B
:1049700060E024E5F3E0EF2E0E94B41D30CF442028
:1049800009F075CF51CF812F90E0909581959F4F81
:104990009C01229EC001239E900D329E900D1124F9
:1049A000EEEF8E2E880E63CFEF92FF920F931F9340
:1049B0008C010B5A1F4F82E3F801808381E090E065
:1049C000A0E0B0E0B293A293929382938F010B5038
:1049D00010408FEFF801808306541040C8010E94F8
:1049E0003E21C8010E94461AC8016FEF0E944A1A70
:1049F0004AE0E42EF12CE00EF11EC7010E94FD1AE0
:104A0000C7010E94351BC80148960E94B71AC80109
:104A100085966DE04BE020E10FE03EE0E32E0E9442
:104A200067201F910F91FF90EF9008959093B40528
:104A30008093B3057093B6056093B5055093B805A0
:104A40004093B7053093BA052093B9050895DF92D6
:104A5000EF92FF920F931F93D82E7A018B0187FF5D
:104A60000CC087E740E050E060E070E00E9427253E
:104A7000823008F058C08FE7D822E091B905F09154
:104A8000BA050995E091B705F091B8050995E0914F
:104A9000B505F091B6050995E091B505F091B6051B
:104AA00009958F3FC9F7E091B305F091B4058D2DBD
:104AB0000995812F9927AA27BB27E091B305F0918B
:104AC000B4050995C801AA27BB27E091B305F09169
:104AD000B4050995BB27A12F902F8F2DE091B30529
:104AE000F091B4050995E091B305F091B4058E2DD0
:104AF000099580E4D81611F485E906C088E4D81633
:104B000011F487E801C081E0E091B305F091B405AC
:104B100009951AE0E091B505F091B605099587FF72
:104B200002C01150B9F71F910F91FF90EF90DF90E5
:104B30000895CF92DF92EF92FF920F931F93DF932E
:104B4000CF9300D000D0CDB7DEB714E6E091B50525
:104B5000F091B60509951150C9F780E440E050E0A6
:104B600060E070E00E942725813009F06CC088E485
:104B70004AEA51E060E070E00E942725813009F0A8
:104B800040C06E010894C11CD11C76018E010B5FE0
:104B90001F4FE091B505F091B6050995F701819396
:104BA0007F01E017F107A9F78B81813009F04BC035
:104BB0008C818A3A09F047C008EA11E604C0015026
:104BC000104009F440C089EE40E050E060E070E43D
:104BD0000E942725882399F754C0E091B505F091EC
:104BE000B6050995F60181936F01EE15FF05A9F74A
:104BF000898186FD03C074E0F72E26C06CE0F62E96
:104C000023C089EE40E050E060E070E00E9427257C
:104C1000823028F051E4E52EFF24F39404C049EEDD
:104C2000E42E32E0F32E08EA11E603C001501040F2
:104C300051F08E2D40E050E060E070E00E942725AA
:104C40008823A1F729C0FF24F092B006E091B905AE
:104C5000F091BA050995E091B505F091B605099571
:104C600080E0FF2009F481E00F900F900F900F90EB
:104C7000CF91DF911F910F91FF90EF90DF90CF9038
:104C800008958AE740E050E060E070E00E94272548
:104C9000882309F4A2CFD7CF80E540E052E060E05E
:104CA00070E00E942725882371F6CECF8F929F92C5
:104CB000AF92BF92CF92DF92EF92FF920F931F932A
:104CC000CF93DF93982E892E69015801FFEFEF2EC5
:104CD000FFE7FF2EE022F122E114F10409F490C075
:104CE000C701820F931F8150924008F089C08091C4
:104CF000B00683FD07C0E9E0440F551F661F771F0C
:104D0000EA95D1F781E50E942725882309F066C03E
:104D1000C8EED3E0E091B505F091B60509958F3F57
:104D200019F42197B9F75AC08E3F09F057C00027F0
:104D300011270C191D090E5F1D4F0E191F0908C000
:104D4000E091B505F091B60509950894C108D10820
:104D5000C114D104A9F7B7FE29C0C92DD82DE091FF
:104D6000BF05F091C0050995E091BB05F091BC0528
:104D70000995E091B505F091B6050995FE010995F3
:104D8000D82EE091BD05F091BE0509950894E10883
:104D9000F108E114F10411F0DD2031F7E091C105D3
:104DA000F091C20509950E0D1F1D10C0892D982D7B
:104DB0009C01E901E091B505F091B605099589934B
:104DC0000894E108F108E114F104A1F7E091B505B8
:104DD000F091B605099501501040C1F7E091B90571
:104DE000F091BA050995E091B505F091B6050995E0
:104DF000C701E114F10411F081E090E09C0102C0D0
:104E000024E030E0C901DF91CF911F910F91FF9015
:104E1000EF90DF90CF90BF90AF909F908F900895CC
:104E20000F931F93CF93DF938C01C091C305D09153
:104E3000C405FC01118210826481758161307105A5
:104E4000B1F1888599856817790788F57783668336
:104E50006115710501F1625070408885998502974E
:104E60006817790728F020E030E040E050E017C0F4
:104E700080E090E0298130E040E050E00E942A3953
:104E80009B01AC018A899B89AC89BD89280F391F98
:104E90004A1F5B1F04C02E853F8548895989F80148
:104EA000208731874287538720E030E002C021E02D
:104EB00030E0C901DF91CF911F910F9108958F923A
:104EC0009F92AF92BF92CF92DF92EF92FF920F9399
:104ED0001F93DF93CF9300D000D0CDB7DEB75C0136
:104EE0008090C3059090C40582E0A816B10408F430
:104EF0007DC0F40180859185A816B90608F076C0BA
:104F00008081813021F0823009F070C051C0C5012C
:104F1000969587958A0D9B1D9C013170892F992745
:104F200086956C01EE24FF24F40142855385648547
:104F30007585CE010196F1E02F3F3F0749F0C40E81
:104F4000D51EE61EF71EB701A60102E010E01EC046
:104F50004C0D5D1D6E1D7F1D2FEF31E001E010E057
:104F60000E945626892B09F041C0F40142855385E1
:104F7000648575854F5F5F4F6F4F7F4F4C0D5D1D93
:104F80006E1D7F1DCE01029620E030E00E94562665
:104F9000892B61F589819A81A0FE07C09C0144E0BC
:104FA000369527954A95E1F723C09C013F7020C0B4
:104FB0004B2D552760E070E0F40182859385A48530
:104FC000B585480F591F6A1F7B1FFFEFAF22BB2417
:104FD000AA0CBB1CCE010196950102E010E00E94D4
:104FE0005626892B19F429813A8102C021E030E04C
:104FF000C9010F900F900F900F90CF91DF911F91EB
:105000000F91FF90EF90DF90CF90BF90AF909F9067
:105010008F900895EF92FF920F931F93CF93DF939A
:105020007C01C091C305D091C405FC0100811181B0
:105030000F5F1F4F09F471C020853185428553856C
:10504000211531054105510509F467C0C8018F706C
:105050009070892B09F05BC02F5F3F4F4F4F5F4F20
:1050600020873187428753874681578141155105F3
:1050700039F48C819D810817190708F448C04DC088
:10508000898190E00197980174E0369527957A958B
:10509000E1F782239323892BD1F5CA010E945F2770
:1050A000BC018230910518F421E030E038C08885D9
:1050B00099856817790788F5F70177836683C0912A
:1050C000C305D091C40562507040888599850297C8
:1050D0006817790728F020E030E040E050E012C087
:1050E00080E090E0298130E040E050E00E942A39E1
:1050F0009B01AC018A899B89AC89BD89280F391F26
:105100004A1F5B1FF7012087318742875387F701CA
:105110001183008320E030E002C023E030E0C901C9
:10512000DF91CF911F910F91FF90EF9008952F92F3
:105130003F924F925F926F927F928F929F92AF9227
:10514000BF92CF92DF92EF92FF920F931F93CF9374
:10515000DF93E82FC091C305D091C405209719F4BF
:1051600028E030E0E1C08A8180FD03C027E030E024
:10517000DBC06A8C7B8C8C8C9D8C4E2F592FCB0185
:10518000DA015C016D016A147B048C049D0410F447
:10519000640153012E893F89488D598D1E8A1F8ACB
:1051A000188E198EA114B104C104D10409F4BAC037
:1051B0008981682E772488249924F9E0660C771C6D
:1051C000881C991CFA95D1F7211531054105510527
:1051D000A1F119012A010894210831084108510858
:1051E000C601B5016150704080409040A401930118
:1051F0000E94703979018A01C201B101A4019301B1
:105200000E947039E216F30604071507B0F08827EC
:105210009927DC0186199709A809B90982219321E8
:10522000A421B5218E8B9F8BA88FB98FA81AB90A9C
:10523000CA0ADB0A68A179A125C06E8D7F8D79A38A
:1052400068A320C0CB010E945F27BC01823091057A
:1052500008F458C0888599856817790708F052C006
:1052600079A368A38E899F89A88DB98D860D971D16
:10527000A81DB91D8E8B9F8BA88FB98FA618B70854
:10528000C808D9086A147B048C049D04D8F28E895E
:105290009F89A88DB98D8A0D9B1DAC1DBD1D8E8B60
:1052A0009F8BA88FB98FE9E0D694C794B794A79441
:1052B000EA95D1F7EA2CE394EB82C090C305D09035
:1052C000C40562507040F601808591850297681789
:1052D0007907C0F480E090E0218130E040E050E0C8
:1052E0000E942A399B01AC01F60182899389A48925
:1052F000B589280F391F4A1F5B1F2115310541054C
:10530000510521F41A8221E030E00EC02E0D311D2E
:10531000411D511D21503040404050402AA33BA325
:105320004CA35DA320E030E0C901DF91CF911F9134
:105330000F91FF90EF90DF90CF90BF90AF909F9034
:105340008F907F906F905F904F903F902F90089537
:105350005F926F927F928F929F92AF92BF92CF9205
:10536000DF92EF92FF920F931F93CF93DF936C0125
:105370005B01DB018C918F3219F40894A11CB11CE4
:10538000F60115821482D5018C91803268F4C60131
:105390000E941027EC01E091C305F091C40506803E
:1053A000F781E02D1082BCC000E2502E6624639489
:1053B000F601A281B381FD01CD010B9601C051928E
:1053C000E817F907E1F730E0772468E002C038E039
:1053D0006BE0F501E70DF11D20817394203250F14F
:1053E0002F3241F12E3211F0361730F0683009F0CB
:1053F00092C02E3261F38FC02F3708F08CC0422F3D
:1054000050E0E2E4F1E001C031968081882339F078
:10541000992787FD909584179507B1F77CC0822F57
:1054200081568A3108F42052FD01E30FF11D2083DB
:105430003F5FCFCF332309F46EC01B961C921B979E
:10544000203210F41B966C92C6010E941027EC01CA
:10545000009709F042C0E091C305F091C405E680D1
:10546000F7801BE0812E912C8E0C9F1CD601189684
:105470004D915D916D917C911B972D913C912F7079
:105480003070B5E0220F331FBA95E1F7C70100E293
:1054900010E00E945626892B19F081E090E01CC094
:1054A000F7018081882309F44CC0838583FD0FC0F8
:1054B000F601A281B381F701E815F90509F444C0AA
:1054C00090818C91981719F431961196F5CFC601F9
:1054D0000E940A28009751F2EC01C330D10501F572
:1054E000D6011296ED91FC91139783858823B1F034
:1054F00017C0E091C305F091C4050680F781E02D47
:10550000838584FF0BC0A70CB11C828D938DF6019F
:10551000958384834DCFC5E0D0E002C0C4E0D0E0E5
:10552000CE01DF91CF911F910F91FF90EF90DF900F
:10553000CF90BF90AF909F908F907F906F905F9033
:105540000895C3E0D0E0C9CFD6011296ED91FC9149
:1055500013978385882369F2E3CFEF92FF920F932D
:105560001F93DF93CF93CDB7DEB7AC970FB6F89408
:10557000DEBF0FBECDBF8C01E091C305F091C40525
:10558000309719F428E030E027C08DE0E82EF12CA8
:10559000EC0EFD1EF782E682CE010196F8019383A0
:1055A0008283C8010E94A8299C01009781F48D85FF
:1055B000882349F0888D84FF0DC0F701828D938D7B
:1055C000F80195838483C8010E9410279C01233031
:1055D000310511F424E030E0C901AC960FB6F8941F
:1055E000DEBF0FBECDBFCF91DF911F910F91FF9016
:1055F000EF900895EF92FF920F931F93DF93CF9355
:10560000CDB7DEB7E8970FB6F894DEBF0FBECDBFBB
:10561000BC010091C3051091C4050115110519F4D1
:1056200028E030E033C0F801128299E1E92EF12C34
:10563000EC0EFD1EF782E682CE010D969C838B83D5
:10564000CE0101960E94A8299C010097F9F4898D4A
:105650008823D1F08CA184FD17C0F701828D938D32
:10566000F801978F868FF701848D958DA68DB78D64
:10567000F801828F938FA48FB58F168A178A108EA8
:10568000118E81E0828302C023E030E0C901E896F8
:105690000FB6F894DEBF0FBECDBFCF91DF911F9143
:1056A0000F91FF90EF9008954F925F926F927F92CB
:1056B0008F929F92AF92BF92CF92DF92EF92FF9222
:1056C0000F931F93CF93DF933C016B014A01C0916D
:1056D000C305D091C405FA0111821082209719F4F4
:1056E00028E030E0D1C08A8180FD03C027E030E0AF
:1056F000CBC02A8D3B8D4C8D5D8D8E899F89A88D69
:10570000B98D281B390B4A0B5B0BCB01A0E0B0E035
:10571000281739074A075B0708F469015301412C30
:1057200032E0532EABC0EE88FF88088D198DD8016A
:10573000C7019170A070B0700097A105B10509F084
:105740005AC0C801B70129E0969587957795679566
:105750002A95D1F7298130E040E050E00E9470396D
:10576000611571058105910591F4E114F1040105BC
:10577000110519F48E8D9F8D04C088A199A10E94F6
:105780005F278230910550F199A388A31B82009175
:10579000C3051091C40568A179A162507040F80159
:1057A00080859185029768177907C0F480E090E0C2
:1057B000218130E040E050E00E942A399B01AC0199
:1057C000F80182899389A489B589280F391F4A1F56
:1057D0005B1F211531054105510511F41A822EC0B8
:1057E0008B81280F311D411D511D2AA33BA34CA3C2
:1057F0005DA38F5F8B832E893F89488D598DC901A9
:105800009170B201681B790B76016C157D0508F467
:105810007B018A8131704AA15BA16CA17DA186FFC9
:1058200004C087011068C30102C0C50187010E943E
:105830005626009749F01A82029719F021E030E0CD
:1058400023C026E030E020C0AE0CBF1CC701A0E0A2
:10585000B0E02E893F89488D598D280F391F4A1F86
:105860005B1F2E8B3F8B488F598FF4018081918174
:105870008E0D9F1D91838083CE18DF08C114D10443
:1058800009F051CF20E030E0C901DF91CF911F91A5
:105890000F91FF90EF90DF90CF90BF90AF909F90CF
:1058A0008F907F906F905F904F900895AF92BF92CE
:1058B000CF92DF92EF92FF920F931F93CF93DF93DC
:1058C000B82EA92E6A017B012EEF31E002E010E034
:1058D0000E945626892B11F023E020C0CB2DDA2D13
:1058E0008881998185559A4A11F022E017C08B2D45
:1058F0009A2DB701A60126E330E002E010E00E94F5
:105900005626892B11F021E009C020E08881998179
:105910008654914409F421E081E02827822FDF9109
:10592000CF911F910F91FF90EF90DF90CF90BF909C
:10593000AF9008956F927F928F929F92AF92BF9295
:10594000CF92DF92EF92FF920F931F93DF93CF934B
:10595000CDB7DEB7A4970FB6F894DEBF0FBECDBFAC
:105960005C011092C4051092C305009709F4DFC0D2
:105970000E94992580FF03C022E030E0E0C04E0184
:105980000894811C911CC40140E050E060E070E08C
:105990000E94562C813021F0CC24DD2476011BC0DE
:1059A000C40140E050E060E070E02EEB31E000E147
:1059B00010E00E945626892B09F0BCC08D818823F7
:1059C00009F4BBC0C984DA84EB84FC84C401B70148
:1059D000A6010E94562C833009F4ACC0882309F03C
:1059E000ACC0CE010196B701A6012DE030E004E283
:1059F00010E00E945626892B09F09CC08A859B8561
:105A0000BC0180E090E0611571058105910521F4EC
:105A1000688D798D8A8D9B8D2C8130E040E050E03F
:105A20000E942A393B014C018A819B81A0E0B0E0B1
:105A3000C80ED91EEA1EFB1EF501C286D386E48677
:105A4000F586898181832D813E81358324838F81F1
:105A500098857C0100E010E0E114F10401051105D6
:105A600021F4EC88FD880E891F898A819B81A0E042
:105A7000B0E0E81AF90A0A0B1B0BE618F708080948
:105A8000190974E0369527957A95E1F7C901A0E0E8
:105A9000B0E0E81AF90A0A0B1B0BF501218130E08E
:105AA00040E050E0C801B7010E9470392E5F3F4FBF
:105AB0004F4F5F4FF50131872087273FFFE03F07BA
:105AC000F0E04F07F0E05F0710F481E006C0275FC9
:105AD0003F4F4040504088F582E0F50180832285A9
