:100000000C9455040C947D040C947D040C947D0494
:100010000C947D040C947D040C947D040C947D045C
:100020000C947D040C947D040C947D040C94C324E6
:100030000C947D040C947D040C947D040C947D043C
:100040000C94F42F0C947D040C9423320C94713294
:100050000C947D040C947D040C947D040C947D041C
:100060000C947D040C947D0448055C0571057805AD
:1000700071058A0597057105A8057105B905C905BA
:10008000DC0571051643616E63656C00372020380E
:1000900020203920206F6B0034202035202036208E
:1000A0002030003120203220203320203C005F000F
:1000B00071776572747975696F706173646667686A
:1000C0006A6B6C3C7A786376626E6D5F180016001E
:1000D00043616E63656C0020006F6B005F00200061
:1000E000540A03E181867F3E186D830F0F0E018352
:1000F000866033186DC3198F1803C38E6033186D73
:10010000E330CF1803C39E603630CDE360CF3006B6
:10011000C79E7E3E30CDB360CF300CC6F660333024
:10012000D9B660CF33CFCCF66061B0DB1E60CF3084
:10013000D86CE6C061B0DB1E618F19986CC6C063D5
:10014000B19B0E330F0FB078C6FF7E1F1B061E0F2C
:100150005344001700736463617264206E6F7420EF
:100160006D6F756E746564006F7220696E636F7277
:100170007265637420464154002F73646361726436
:100180002F464630312E4C4456004572726F723AFB
:10019000004572726F723A20736463617264206BFF
:1001A0006F004572726F723A2066696C65206D69E6
:1001B0007373696E67006900160015100015201032
:1001C0000046696768742100594F5500736B6900D8
:1001D00045736361706520626174746C6500546579
:1001E000737420796F7572204C75636B004F6B00D0
:1001F0002B002B005354413A0009097F00FF80DD9A
:10020000808880D880FD80F7807F005500526F6C19
:100210006C206F6E652064696500526F6C6C2062A3
:100220006F74682064696365004C75636B3A004CB9
:1002300055434B5900554E4C55434B59003E003CDD
:10024000003D0041626F75740047616D65626F6FBC
:100250006B75696E6F20656E67696E65005043202F
:10026000736F667477617265204C4456206D616BC4
:10027000657200156F6B007765623A206D6F756768
:10028000696E6F2E667265652E66720076302E334B
:10029000202830312D4F43542D3230313529002064
:1002A0000076302E33202830312D4F43542D3230FC
:1002B0003135290020005B414456454E5455524586
:1002C0002053484545545D00536B696C6C3A0053AC
:1002D00074616D696E613A00476F6C643A00206723
:1002E000700050726F766973696F6E733A0043687D
:1002F0006F6F73652000506F74696F6E20006F66BA
:1003000020536B696C6C006F6620537472656E6766
:100310007468006F6620466F7274756E65005B418D
:100320004354494F4E535D00536176652067616DBC
:1003300065004261636B20746F206C617374207080
:100340006172616772617068005475726E20746FBB
:100350002E2E2E005B45515549504D454E545D00A3
:1003600041646420616E2065717569706D656E749D
:10037000001A001000596F75206172652064656174
:10038000642E2E2E0A5072657373201520746F0A26
:100390007265737461727420746865206164766537
:1003A0006E74757265005374616D696E61202B34D3
:1003B000005374616D696E612040696E69742E200E
:1003C0006C766C21004C75636B2040696E697469B2
:1003D000616C206C766C2B3100536B696C6C204027
:1003E000696E697469616C206C766C210047616D7F
:1003F00065207361766564004649474854494E4715
:100400002046414E544153592030310054686520F4
:100410005761726C6F636B204F662046697265741A
:100420006F70204D6F756E7461696E00401E000024
:10043000000000003C000000000000006A00000016
:1004400007FE0000390000001040F801FA0000002B
:10045000B0F98E01F800000D8FFF63C7F000002B8C
:10046000FFFFFB1F000000C1EF7F13FCE0000183D2
:10047000FD3F7BFBF00003EFB891F3DFE60009DFFF
:10048000FEC6146FE180103FFFCB1FF1F3A0207F69
:10049000FFCE01FAFB3058FFFF444741BE08F8FF8A
:1004A000FC501FCFBF84C007EB04FFF997DCC019D5
:1004B000FA81FFFE2BBAFC1A0C07FFFF17E01DC0E4
:1004C000385FFFFFF7F107B0303FFFFFF7F5003F60
:1004D000C0F81FFFFE07000103FC9C000701000499
:1004E0000FE01806070E000017F80087021E002014
:1004F000401FFC000FF0008300003FFFFC000104E0
:10050000000000000000000800000000000005607E
:100510000000000000000B000000000000005E73FF
:10052000776F72640A5E6C656174686572206172CF
:100530006D6F75720A5E7275636B7361636B0A5ED1
:100540006C616E7465726E004368616E67652063EE
:10055000757272656E742073746174004368616EA5
:10056000676520696E697469616C206C6576656C7D
:100570000043616E63656C004472696E6B206F6E40
:1005800065206D65617375726500456174206F6EDD
:1005900065206D65616C004164642070726F7669DE
:1005A00073696F6E2873290052656D6F76652065DB
:1005B000717569706D656E7400506F74696F6E202F
:1005C0006F6620536B696C6C00506F74696F6E209E
:1005D0006F6620537472656E67746800506F74693B
:1005E0006F6E206F6620466F7274756E6500070728
:1005F000FE8282928282FE0707FE82A2828A82FEA9
:100600000707FE828692C282FE0707FE82AA82AA9E
:1006100082FE0707FEAA829282AAFE0707FEAA822E
:10062000AA82AAFE0707FEFEFEEEFEFEFE0707FEFA
:10063000BEFEFEFEFAFE0707FEFAFEEEFEBEFE0757
:1006400007FEBAFEFEFEBAFE0707FEBAFEEEFEBACF
:10065000FE0707FEBAFEBAFEBAFE03053F213F12AF
:1006600008120A100A0E1C0E0C1E0C141A14161F67
:10067000161E131E1E1B1E1E1F1E3F213F3A2F3A21
:10068000173D173F213F181F02040A041F0E0404E0
:100690000E1F0A1F0A0E0E1F04110E2E252E2F2AC2
:1006A0002E262929021F02081F08150E04040E1504
:1006B0000E15151B151B040604040C040000000095
:1006C00017000300031F0A1F16371A1904130A150F
:1006D0003A000300000E11110E000A040A040E0471
:1006E0000030000404040010001804031F111F123E
:1006F0001F101D151711151F07041F17151D1F1596
:100700001D01011F1F151F17151F000A00003200D1
:10071000040A110A0A0A110A040115020E11171E11
:10072000051E1F150A0E110A1F110E1F15111F0598
:10073000010E111D1F041F111F1108100F1F041B94
:100740001F10101F061F1E040F0E110E1F09060E8C
:10075000112E1F051A121509011F011F101F0F1856
:100760000F1F0C1F1B041B031C03191513001F1163
:10077000030418111F000201022020200001020CB6
:10078000121E1F120C0C12120C121F0C1A14041E33
:1007900005242A1E1F021C141D1020201D1F0814D2
:1007A000111F101E041E1E021C0C120C3E0A040C0B
:1007B000123E1E040214160A020F120E101E0E1014
:1007C0000E1E081E120C1226281E322A26041E2176
:1007D000001F00211E040102013F213F0A4E6F202D
:1007E00053442063617264206F720A6E6F204C4F15
:1007F000414445522E4845580A0A153A45786974CD
:10080000001D20466C617368696E670A20206C6F5A
:10081000616465722E2E2E0A0A444F4E27542054CE
:1008200055524E204F464621006D560A0A504C45FF
:100830004153450A5455524E204F4646004C4F579F
:1008400020424154544552590A000000000024003F
:1008500027002A0000000000250028002B000000CF
:1008600000002300260029000404040404040404F6
:10087000020202020202030303030303010204084B
:1008800010204080010204081020010204081020FA
:100890000000000700020100000304060000000041
:1008A000000000000C05912DDD3311241FBECFEF99
:1008B000D8E0DEBFCDBF11E0A0E0B1E0EAEBF5E7A4
:1008C00002C005900D92AE38B107D9F716E0AEE838
:1008D000B1E001C01D92AA3BB107E1F718E0CAEAF6
:1008E000D8E004C02297FE010E948039C43AD107A3
:1008F000C9F70E9433340C94DB3A0C9400008FEF5C
:100900008EBD0DB407FEFDCF8EB508958EBD0DB41E
:1009100007FEFDCF08959091BC018F3410F08456EE
:1009200001C0891B890F8093BC019091BD01603C7F
:1009300028F08091B801885C860F0FC06E3830F0C7
:100940008091B801681B862F865907C0643618F05D
:10095000862F845602C0862F891B890F8093BD0184
:1009600008958091F7018F3F79F081508F3F69F0B2
:10097000E82FF0E0E85FFC4FE081EE3331F0EC333C
:1009800021F0EE3591F701C08FEF08958091F701C6
:100990008F3FA1F08F5F9091F601E82FF0E0E85FC4
:1009A000FC4FE081891751F0EE2341F0EE3339F02E
:1009B000EC3329F0EE3519F08F5FEFCF8FEF08950C
:1009C000E9E0F2E080E09081992311F48F5F0895CF
:1009D0009A3009F48F5F319693E0E730F90799F781
:1009E00008958130B9F020E030E0422FF901E75F4F
:1009F000FD4FE081EE2311F0EA3031F49F5F98174C
:100A000019F4842F8F5F08952F5F3F4F2E3F3105DC
:100A100061F7089580E008951092B6011092B50133
:100A20008AE791E09093B4018093B30108958823FD
:100A300029F08091BC01845D8093BC0183EB91E03F
:100A40000E94FA350895861729F483EB91E061E45A
:100A500072E010C0861728F483EB91E06FE372E038
:100A600009C08091BC018F5F8093BC0183EB91E052
:100A70006DE372E00E946C3408958823B1F0809198
:100A8000D5019091D601A091D701B091D80122E073
:100A9000B695A795979587952A95D1F780FF05C0BC
:100AA00083EB91E063E773E004C083EB91E061E7DF
:100AB00073E00E946C3408951F9381E08093A60137
:100AC00010E38EE891E00E948A228823D1F383EB21
:100AD00091E063E472E00E94B73483EB91E060E060
:100AE0004091BD0124E50E94431B84E666E60E9416
:100AF0008B0483EB91E069E472E00E94B73483EBEE
:100B000091E064EB72E00E946C3483EB91E061EA67
:100B100072E00E94B73483EB91E06DE572E00E94D1
:100B2000B73483EB91E06FE972E00E946C3483EBA1
:100B300091E06CE872E00E94B73483EB91E067E7E4
:100B400072E00E94B7342091B70130E0C901880FEC
:100B5000991F820F931F909581959F4F2091B80107
:100B6000612F621B8C5A0E948B0483EB91E063E738
:100B700072E00E94B73488E991E064E00E940B1AA9
:100B8000882379F488E991E065E00E940B1A8823B4
:100B900041F488E991E066E00E940B1A882309F489
:100BA00090CF1092A6011F910895AC01DC010D9029
:100BB0000020E9F71197A81BB90B20E030E060E0B6
:100BC0001FC0E40FF51F7081872F80538A3028F0F3
:100BD0006623D9F42FEF3FEF18C0C901F3E0880F67
:100BE000991FFA95E1F7220F331F280F391F205361
:100BF0003040872F992787FD9095280F391F6F5F09
:100C0000E62FF0E0EA17FB07E0F2C9010895AF9282
:100C1000BF92CF92DF92EF92FF920F931F93DF93D9
:100C2000CF93CDB7DEB72E970FB6F894DEBF0FBEC9
:100C3000CDBF7C015B018E010F5F1F4FC801B70163
:100C40004AE00E943D37A8E0CA2ED12CCC0EDD1E12
:100C5000C601B7014AE00E943D374C855D854F5F74
:100C60005F4FC801B50120E030E00E948E36C6011A
:100C70000E946E37C8010E946E372E960FB6F89408
:100C8000DEBF0FBECDBFCF91DF911F910F91FF90BF
:100C9000EF90DF90CF90BF90AF9008952F923F924A
:100CA0004F925F926F927F928F929F92AF92BF927C
:100CB000CF92DF92EF92FF920F931F93DF93CF9328
:100CC000CDB7DEB72E970FB6F894DEBF0FBECDBFFF
:100CD000162F19821A821B821C821E821D822FEF00
:100CE0008F3F920729F0BE016F5F7F4F0E9407067A
:100CF000612F163008F065E010E02224CE01019645
:100D00009E878D87862F90E09C878B878EE891E069
:100D10000E948A228823D1F38981882339F083EBCA
:100D200091E0BE016F5F7F4F0E94FA358091D5013F
:100D300082FF06C083EB91E06EEA70E00E946C34A3
:100D40004091B8014F5F83EB91E060E024E50E94A1
:100D5000431B8091B7016091B8016C5F880F0E94BE
:100D60008B0483EB91E063EA70E00E94B7348091DA
:100D7000B701880F66E60E948B0483EB91E068E977
:100D800070E00E94B7348091B701880F66E60E9438
:100D90008B0483EB91E06CE870E00E94B734612E25
:100DA00077248091B701282F30E0422C55240894F5
:100DB000411C511C3090B801133071F492E0291697
:100DC00059F40F2EF0E08F2EF0E09F2EF0E2AF2EC0
:100DD000F0E4BF2EF02D0AC00F2EF0E08F2EF0E0D1
:100DE0009F2EF0ECAF2EFFE3BF2EF02DC301880F36
:100DF000991F860D971D0296829F7001839FF00CAC
:100E0000929FF00C11248DEFE80E832D90E0029656
:100E1000489E6001499ED00C589ED00C1124B90107
:100E2000882777FD8095982F0E940C389B01AC0194
:100E3000C501B4010E94983820E030E040E050E461
:100E40000E9475370E94D9376F83788789879A8780
:100E500093E0390E83EB91E06E2D4C2D2F81032D05
:100E600033E0E32E0E94B21C8091B80121E3281BDD
:100E70002093BD0183EB91E064E870E00E946C3444
:100E800088E991E062E00E940B1A882329F0089417
:100E9000611C711C162D137088E991E060E00E94BE
:100EA0000B1A882319F0115008F413E088E991E037
:100EB00063E00E940B1A882331F0C20163E070E006
:100EC0000E942E39282E88E991E061E00E940B1AD9
:100ED000882331F02A948FEF281611F4B2E02B2EDC
:100EE00088E991E064E00E940B1A882309F44DC060
:100EF0001330C1F492E0291631F4CE0101960E941C
:100F0000D5059C014CC0222069F4ED85FE85019039
:100F10000020E9F731978D859E85E81BF90BEC0FD2
:100F2000FD1F32C0ED85FE8501900020E9F7319765
:100F30008D859E85E81BF90B8B859C85E817F90745
:100F400020F5133011F420E308C01F5C83E0289ED5
:100F5000C0011124212F280F11539E2F915029F4E5
:100F60008981803311F4298308C09F5FE1E0F0E0BC
:100F7000EC0FFD1FE90FF11D20839F5FE1E0F0E022
:100F8000EC0FFD1FE90FF11D108288E991E065E08B
:100F90000E940B1A882309F4B9CE2FEF3FEFC90145
:100FA0002E960FB6F894DEBF0FBECDBFCF91DF9166
:100FB0001F910F91FF90EF90DF90CF90BF90AF9077
:100FC0009F908F907F906F905F904F903F902F9069
:100FD00008950F931F938C01FC01808190E062E0E3
:100FE0000E944E06F80180831F910F910895E62F0D
:100FF000F0E0E055FF4F6491882329F061361CF042
:101000006B370CF46F7D83EB91E00E948F3483EBA0
:1010100091E06EED70E00E946C3408954F925F9203
:101020006F927F928F929F92AF92BF92CF92DF92F8
:10103000EF92FF920F931F93CF93DF936C01862E55
:1010400010E0FF2499246AE0762E56E0652E4EE4E7
:10105000542E31E3432E8EE891E00E948A228823A9
:10106000D1F38091BD018F5F8093BD01F601808136
:10107000882329F083EB91E0B6010E94FA35809134
:10108000BD0181508093BD018091D50182FF06C0D2
:1010900083EB91E06CED70E00E946C344091B801FC
:1010A0004F5F83EB91E060E024E50E94431B609179
:1010B000B8016B5F83E00E948B0400E0892D602FF4
:1010C0000E94F7070F5F0A30C9F76091B8016A59AB
:1010D00083E00E948B04892D602F0E94F7070F5F29
:1010E0000431C9F76091B8016A5983E00E948B040A
:1010F000892D602F0E94F7070F5F0D31C9F783EB31
:1011000091E069ED70E00E94B73483E066E60E94EA
:101110008B0400E383EB91E0602F0E948F3483EB1C
:1011200091E067ED70E00E946C340F5F0A3391F735
:10113000A12EBB248091B701A82FB0E0CF2DD0E025
:1011400021960091B801FF2011F442E001C041E076
:10115000193031F4F2E0FF1619F4E2E0F0E002C0D9
:10116000E1E0F0E0CD01880F991F8A9DB0018B9DD1
:10117000700D9A9D700D11246F5F802F90E0029684
:101180009C01C29FC001C39F900DD29F900D11245E
:10119000480FEA9F9001EB9F300DFA9F300D11240C
:1011A0002D5F0D5F83EB91E073E0E72E0E94B21C90
:1011B0008091B701869DC00111242091B801642D52
:1011C000621B352D381B832F0E948B0483EB91E02B
:1011D00060ED70E00E946C3483EB91E06EEC70E0A7
:1011E0000E946C3488E991E062E00E940B1A882327
:1011F00039F0C50101966AE070E00E942E39182F7F
:1012000088E991E060E00E940B1A882319F01150E0
:1012100008F419E088E991E063E00E940B1A882342
:1012200019F063E0F62EFC2288E991E061E00E946B
:101230000B1A882331F0FA948FEFF81611F453E06B
:10124000F52E88E991E065E00E940B1A882319F0D9
:10125000F601108252C088E991E064E00E940B1A06
:10126000882309F4F8CED6010D900020E9F71197F4
:10127000AC19BD09193021F4F2E0FF1609F43DC0A4
:101280002A2F33E0F31651F4A81508F0E4CEF60146
:10129000EA0FF11D105D108310532AC0F79CF00176
:1012A0001124E10FF11DE055FF4F94919C3349F457
:1012B000AA2309F4D0CEF601EA0FF11D319710826E
:1012C000CACE892F8851823030F480E0992009F409
:1012D00081E0982EC0CEA81508F0BDCE9F3511F440
:1012E00090E202C091109F7DF601E20FF11D908304
:1012F0002F5FF601E20FF11DE2CFDF91CF911F9139
:101300000F91FF90EF90DF90CF90BF90AF909F90A4
:101310008F907F906F905F904F9008950F931F93E1
:101320001092F5011092F60110E0E12FF0E0E85F75
:10133000FC4F0081002319F41092F5014DC08091FB
:10134000BD0180331CF01093F60146C00E3321F02E
:101350000C3311F00E3569F58091F7018F3F11F4D0
:101360001093F7018091F701811711F090E016C0FA
:101370008091D5019091D601A091D701B091D8016B
:1013800072E0B695A795979587957A95D1F7817074
:101390009070A070B070982F811191E0892F0E94F9
:1013A0003D0580910802882349F00E3339F41F5F10
:1013B00005C083EB91E0602F0E948F348091F5018E
:1013C000882341F48091BD01181624F41F5F109307
:1013D000F50111501F5FA9CF1F910F9108951F9321
:1013E000162F442309F1882329F08091BC01845DE4
:1013F0008093BC01112371F083EB91E064EF71E005
:101400000E946C3483EB91E0612F4AE050E00E942F
:101410006B350AC06091BC01605F83EB91E040E1F5
:1014200029EF31E00E944B1D1F910895AF92BF92AA
:10143000CF92DF92EF92FF920F931F93CF93DF93A0
:10144000082F81E08093A60161E070E080E090E0E9
:1014500027E030E040E050E00E946836162F01306F
:1014600011F4BB240BC061E070E080E090E027E065
:1014700030E040E050E00E946836B62E812F90E0C8
:101480007C01EE0CFF1C26E531E0E20EF31E2B2D55
:1014900030E06901C80ED91E1B0DF2E0AF2EE90144
:1014A000CC0FDD1FCA5ADE4F8EE891E00E948A22DF
:1014B0008823D1F3002329F483EB91E06EED71E0F2
:1014C0000DC0013029F483EB91E06DE072E006C0BD
:1014D000023031F483EB91E06AE172E00E94B734AC
:1014E00083EB91E060E04091BD0124E50E94431B45
:1014F000BB2041F02881398183EB91E069E14CE028
:101500000E944B1DF7012081318183EB91E064E261
:101510004CE00E944B1D6091B70170E0882777FD79
:101520008095982F0E940C3820E030E048E351E489
:101530000E9498380E94DE37DC01CB016DE00E94EA
:101540008B0481E061E00E94230583EB91E0B6010A
:101550004AE050E00E94DB35002391F588E16AE61D
:101560000E948B04812F6091EF010E94230583EB81
:1015700091E069E272E00E946C3483EB91E060914B
:10158000EF014AE050E00E947D358091BD018C5F03
:101590008093BD01A092BB018091EF0190E08C157A
:1015A0009D052CF083EB91E06FE272E004C083EBC9
:1015B00091E065E372E00E946C3481E08093BB01AE
:1015C00088E991E064E00E940B1A882379F488E9A5
:1015D00091E065E00E940B1A882341F488E991E0CC
:1015E00066E00E940B1A882309F45ECF002339F4C9
:1015F0008091EF01882319F081508093EF011092C0
:10160000A601002339F420E08091EF0190E08C15D1
:101610009D050CF021E0822FDF91CF911F910F915A
:10162000FF90EF90DF90CF90BF90AF9008952F92F2
:101630003F924F925F926F927F928F929F92AF9262
:10164000BF92CF92DF92EF92FF920F931F93CF93AF
:10165000DF9381E08093A6010091F7010F5FC02F17
:10166000D0E0FE01E85FFC4FE081EA3011F0EE23AC
:10167000A9F710E0C8018E5F9C4F0E94D505482E47
:10168000C8018A5F9C4F0E94D505B82E992411E0AD
:10169000FF24AA24C050DD4F40E2342E30E1232E37
:1016A00001C011E08EE891E00E948A228823D1F3E4
:1016B000BB2021F08091ED01882321F4992009F4C9
:1016C00049C202C0992029F09A9481E0981609F441
:1016D0002CC283EB91E061EC71E00E94B73483EBA4
:1016E00091E060E046E024E50E94431B8091BD014B
:1016F0008E5F8093BD0183EB91E068EC71E00E9406
:101700006C341092BC0118826091F70170E0675F41
:101710007C4F81E00E941705388288E068EC0E94C7
:101720008B046091ED011123A9F4CD1410F0FF207A
:1017300089F040E08091D5019091D601A091D70128
:10174000B091D80122E0B695A795979587952A95EF
:10175000D1F780FF41E080E00E94EF0988E064E675
:101760000E948B0420E030E0112311F421E030E0EE
:101770008F2D90E028233923232BA9F4112399F4EA
:10178000DC1488F440E08091D5019091D601A091BD
:10179000D701B091D80102E0B695A79597958795A6
:1017A0000A95D1F780FF41E081E06B2D0E94EF099F
:1017B00084E668EC0E948B04112309F097C0FF2097
:1017C00009F094C0E72DF0E0EE0FFF1FEA5AFE4F3C
:1017D0002081318183EB91E060E04091BD010E9466
:1017E0004B1D4091BD014F5F4093BD014150E82D1D
:1017F000F0E0EE0FFF1FEA5AFE4F2081318183EBAC
:1018000091E068E00E944B1D2092BC0183EB91E0C7
:1018100062EF71E00E946C3483EB91E06091EB0128
:101820004AE050E00E946B3583EB91E06CEC71E094
:101830000E946C344091BD0141504093BD01E52DA3
:10184000F0E0EE0FFF1FEE59FE4F2081318183EB58
:1018500091E06CE20E944B1D4091BD014F5F4093AF
:10186000BD014150E62DF0E0EE0FFF1FEE59FE4F97
:101870002081318183EB91E064E30E944B1D8CE376
:101880008093BC0183EB91E060EF71E00E946C34C7
:1018900083EB91E0642D4AE050E00E946B3583EBCE
:1018A00091E06CEC71E00E94B7348091BD018E5FD5
:1018B0008093BD018AE08093BC0181E061E00E94D9
:1018C000230583EB91E06C2D4AE050E00E946B35DC
:1018D00086E38093BC0181E061E00E94230583EBF5
:1018E00091E06D2D4AE050E00E946B3583EB91E072
:1018F0006AE247E02DE10E944D1B1123F9F4FF201D
:10190000E9F48091BD0182508093BD0188E265E6D3
:101910000E948B048C2D6D2D0E9423054091BD01EA
:1019200041502091B7012C5F0091B8010E5F83EB0D
:1019300091E066E233E0E32E0E94B21C83EB91E07B
:1019400060E044E224E50E94431B992009F0AACEFE
:1019500080E065E20E948B041123F1F000E0FF209B
:1019600009F401E0802F0E943D0583EB91E061ECDA
:1019700071E00E94B7348F2D0E943D0583EB91E00A
:1019800060ED71E00E946C3488E991E063E00E94B0
:101990000B1A882329F51CC000E0AA2009F401E0F5
:1019A000802F0E943D0583EB91E06DEE71E00E9477
:1019B000B734FF2019F4CD1409F4D0C08A2D0E9449
:1019C0003D0583EB91E06EED71E00E946C34C6C082
:1019D00088E991E061E00E940B1A882309F40F2D39
:1019E00088E991E064E00E940B1A882311F4F02E3C
:1019F00058CE002379F08091ED0182508093ED0163
:101A0000843628F410E0FF24F394AA244BCE1092DD
:101A1000ED01F8CF61E070E080E090E027E030E099
:101A200040E050E00E946836562E61E070E080E0B1
:101A300090E027E030E040E050E00E946836662EFB
:101A400061E070E080E090E027E030E040E050E0CE
:101A50000E946836762E61E070E080E090E027E03A
:101A600030E040E050E00E946836862EC72CC60E5B
:101A70008091EB01C80ED52CD60CD40CCD1460F49B
:101A80008091ED0182508093ED01843610F0109228
:101A9000ED01FF2410E0B9CFDC14D8F78EEFB80EBB
:101AA00083E68B15B0F7FF2410E0AA24BB24FACDFF
:101AB00088E991E061E00E940B1A882321F0FF2061
:101AC00009F4CD10A02E88E991E064E00E940B1A81
:101AD000882309F4E7CDAA2029F180E00E94160AA4
:101AE000882381F0FF2011F4CD1430F48091ED01B2
:101AF0008F5F8093ED0116C08EEFB80E83E68B15D5
:101B0000B0F1CFCDFF2011F4CD1450F48091ED0150
:101B100082508093ED01843628F01092ED0102C0CE
:101B2000B394BFCDFF2009F4BCCD1092A601DF9184
:101B3000CF911F910F91FF90EF90DF90CF90BF90CA
:101B4000AF909F908F907F906F905F904F903F905D
:101B50002F900895B5E19B2E11E0B6CD88E991E074
:101B600063E00E940B1A882309F0A9CFA1CFBB2400
:101B700098CD0F931F93DF93CF9300D000D0CDB7B4
:101B8000DEB78E010F5F1F4FB8010E940706E8E025
:101B9000F3E0DF010D900020E9F7AF014A1B5B0B7A
:101BA0004C545F4FCF01B8010E943A3A0F900F900A
:101BB0000F900F90CF91DF911F910F910895BC016D
:101BC000DC010D900020E9F71197A81BB90B88E004
:101BD00093E0AD010E943A3A0895BC01E8E0F3E0D9
:101BE000DF010D900020E9F7AF014A1B5B0B4C545D
:101BF0005F4FCF010E94083A08950F931F9388E02A
:101C000093E060E071E00E94333A8091030290918A
:101C10000402892B41F486EB92E00E94ED0D81E0F5
:101C200091E00E94DF0D80910302909104020297DF
:101C3000D0F483E091E00E94DF0D88EC92E00E94F6
:101C4000ED0D8091EB0190E00E94B90D86E091E0EE
:101C50000E94DF0D8091EC0190E00E94B90D81E0BF
:101C600091E00E94DF0D809103029091040203979E
:101C7000D0F488E091E00E94DF0D8FEC92E00E94AA
:101C8000ED0D8091ED0190E00E94B90D86E091E0AC
:101C90000E94DF0D8091EE0190E00E94B90D81E07D
:101CA00091E00E94DF0D809103029091040204975D
:101CB000D0F48BE091E00E94DF0D89E292E00E9477
:101CC000ED0D8091EF0190E00E94B90D86E091E06A
:101CD0000E94DF0D8091F00190E00E94B90D81E03B
:101CE00091E00E94DF0D809103029091040205971C
:101CF000A8F48EE091E00E94DF0D88ED92E00E9452
:101D0000ED0D8091F30190E00E94B90D8EED92E00F
:101D10000E94ED0D81E091E00E94DF0D80910302B1
:101D200090910402069788F481E191E00E94DF0D12
:101D300082EE92E00E94ED0D8091F40190E00E940D
:101D4000B90D81E091E00E94DF0D80910302909136
:101D50000402079708F03FC08091F2018F3F69F4B9
:101D600084E191E00E94DF0D8EEE92E00E94ED0D85
:101D700086EF92E00E94ED0D2AC084E191E00E947E
:101D8000DF0D86EF92E00E94ED0D8091F201882335
:101D900019F48EEF92E009C0813019F487E093E0E6
:101DA00004C0823021F483E193E00E94ED0D809124
:101DB000F101823019F487E191E007C0813019F414
:101DC00089E191E002C08BE191E00E94DF0D81E0AA
:101DD00091E00E94DF0D8091030290910402089728
:101DE00040F48EE193E00E94ED0D81E091E00E94CD
:101DF000DF0D8091030290910402099760F48DE158
:101E000091E00E94DF0D88E293E00E94ED0D81E0F9
:101E100091E00E94DF0D80910302909104020A97E5
:101E200060F480E291E00E94DF0D82E393E00E9483
:101E3000ED0D81E091E00E94DF0D80910302909111
:101E400004020B9760F483E291E00E94DF0D8DE0C5
:101E500092E00E94ED0D81E091E00E94DF0D809103
:101E60000302909104020C9760F486E291E00E94D4
:101E7000DF0D8AE192E00E94ED0D81E091E00E9489
:101E8000DF0D80910302909104020D9760F489E2C6
:101E900091E00E94DF0D89E493E00E94ED0D81E066
:101EA00091E00E94DF0D80910302909104020E9751
:101EB00040F484E593E00E94ED0D81E091E00E9402
:101EC000DF0D00E014C0802F90E00E9620910302F9
:101ED000309104028217930748F0802F0E94F1048A
:101EE00090E0875F9D4F0E94DF0D05C00F5F0E944D
:101EF000E004081740F300910302109104020E94CD
:101F0000E00490E00E968017910740F08CE291E09B
:101F10000E94DF0D80E693E00E94ED0D1092BB035E
:101F20001F910F910895DF93CF9300D000D000D080
:101F3000CDB7DEB79C01220F331F280F391F44276E
:101F400037FD4095542FCA01B9010E946828CE017F
:101F5000039663E070E0AE014F5F5F4F0E94252B58
:101F60002B8130E040E050E0542F432F322F2227C6
:101F70008C81280F311D411D511D542F432F322FAD
:101F800022278D81280F311D411D511DB901CA0124
:101F900026960FB6F894DEBF0FBECDBFCF91DF916E
:101FA00008958F929F92AF92BF92CF92DF92EF925D
:101FB000FF920F931F93DF93CF9300D0CDB7DEB77F
:101FC0008091FF0190910002892B11F41092070279
:101FD0008091FB019091FC010E94930F4B015C01E9
:101FE0008091FF0190910002A0E0B0E0880E991E60
:101FF000AA1EBB1E8091FB019091FC0101960E94DC
:10200000930F6B017C01C818D908EA08FB0883EB21
:10201000C816D104E104F1042CF0F2EBCF2ED12C40
:10202000E12CF12C8601C501B4010E94682888E0EA
:1020300093E0B601AE014F5F5F4F0E94252B085F12
:102040001C4FD80111961C92809108038F3F09F014
:1020500040C08091FF0190910002892B19F481E02A
:102060008093070281E08093B90183EB91E00E94A5
:10207000CA1F84E58093090380E180930A037501F8
:1020800064010894C11CD11CE11CF11C00E05E013C
:102090000894A11CB11CC701B6010E9468288BE0FE
:1020A00093E060EB70E0A5010E94252B83EB91E0AB
:1020B00060E0402F29E033E00E94C81D005F80EB04
:1020C00090E0A0E0B0E0C80ED91EEA1EFB1E00336F
:1020D00011F70F900F90CF91DF911F910F91FF900B
:1020E000EF90DF90CF90BF90AF909F908F9008952A
:1020F0002F923F924F925F926F927F928F929F9218
:10210000AF92BF92CF92DF92EF92FF920F931F9305
:10211000CF93DF931C014B012A018091D4018823C6
:1021200009F4B2C181E08093BB011092BA01109210
:10213000B9011092A60183EB91E061E00E94BE1A02
:1021400099E1692E712C8EE891E00E948A22882301
:10215000D1F383EB91E060E040E020EE30E00E94BC
:102160004B1D4091B801445F83EB91E060E0920128
:102170000E944B1D80E06CE00E948B048091F9016D
:102180009091FA01892B09F0C4C09301442737FDCF
:102190004095542F6091D5017091D6018091D7015F
:1021A0009091D8010E9441399B01AC012431310545
:1021B0004105510520F483EB91E0B1015EC0293166
:1021C000310541055105C8F40091B70110E083EBDA
:1021D00091E0B4010E946C34809FE001819FD00D9A
:1021E000909FD00D1124C455D0403E01660C771C41
:1021F00063E270E0660E771E42C05E01CC24B7FC3D
:10220000C094DC2CDA01C9014997A109B1098A15EA
:102210009B05AC05BD0528F48091BC01875E821B3F
:1022200027C079018A01EA18FB080C091D09D801A9
:10223000C7014997A109B1090597A105B10520F486
:102240008091BC018C1B14C082EE9FEFAFEFBFEFFB
:10225000E80EF91E0A1F1B1FEA14FB040C051D05DE
:1022600048F48091BC018E51DE01AA0F8A1B820FB7
:102270008093BC0183EB91E0B4010E946C34209107
:10228000B70130E0C901880F991F820F931F909505
:1022900081959F4F2091B80130E0B901660F771FFB
:1022A000620F731F709561957F4F635D8D5A0E9419
:1022B0008B048091D50184FF05C083EB91E06DEB29
:1022C00071E004C083EB91E06AEB71E00E94B734E7
:1022D0002091B70130E0C901880F991F820F931F29
:1022E000909581959F4F8D5A65E60E948B0483EBF4
:1022F00091E068EB71E00E946C348091BC018D5FCD
:102300008093BC0183EB91E066EB71E00E94B734EF
:1023100052C083EB91E060E04CE024E50CE10E94C8
:10232000571B83EB91E060E00E94BE1A83EB91E0C3
:1023300062E04EE020E508E10E94571B83EB91E04C
:1023400061E00E94BE1A85E062E10E948B048091E8
:10235000F9019091FA018330910519F462EA71E074
:1023600007C0019719F461E971E002C06AE871E001
:1023700083EB91E00E94B73485E068E60E948B040D
:102380008091F9019091FA018330910519F469E780
:1023900071E007C0019719F468E671E002C065E5D5
:1023A00071E083EB91E00E946C348091B801BEE251
:1023B000B81BB093BD012091B70130E0C901880F6F
:1023C000991F820F931F909581959F4F8D5A65E6B7
:1023D0000E948B0483EB91E063E571E00E946C3412
:1023E0008091BC018F5F8093BC0183EB91E060E53D
:1023F00071E00E94B7348091F9019091FA01892B24
:10240000E1F588E991E064E00E940B1A8823A9F4C1
:102410006091D401262F30E040E050E08091D5015A
:102420009091D601A091D701B091D801821793075E
:10243000A407B50710F16F3F01F18FEF8093D4012E
:10244000109208028093F7010E94D10F1DC088E905
:1024500091E065E00E940B1A882311F00E945C0550
:1024600088E991E066E00E940B1A882309F46BCE9C
:102470008EE891E00E943A2166CE8091F901909118
:10248000FA01892B69F7E3CFDF91CF911F910F916B
:10249000FF90EF90DF90CF90BF90AF909F908F9084
:1024A0007F906F905F904F903F902F900895CF92C4
:1024B000DF92EF92FF920F931F93DF93CF93CDB7ED
:1024C000DEB72B970FB6F894DEBF0FBECDBF8C01E1
:1024D000109200021092FF01109204021092030267
:1024E00080910702882331F081E192E0909300020D
:1024F0008093FF01101611061CF00E94D10F60C0DE
:102500006E010894C108D1087E010894E11CF11CF9
:10251000E00EF11E0E94D10F91E021E080E0E82F53
:10252000F0E0E85FFC4FE081EE2389F0293078F499
:102530009F5F963110F4EA3041F42F5FF601E20F0D
:10254000F11D8F5F8083815091E08F5FE8CFE09134
:102550000302F0910402CF01089680179107B0F0B2
:10256000E095F095EE0DFF1D20818091FF01909187
:102570000002820F911D909300028093FF0110933F
:102580000402009303020E94D10F12C0E017F1076A
:1025900079F0909304028093030228858091FF01D3
:1025A00090910002820F911D909300028093FF0191
:1025B00080910302909104028017910709F0AACF3D
:1025C0002B960FB6F894DEBF0FBECDBFCF91DF9133
:1025D0001F910F91FF90EF90DF90CF900895109290
:1025E000040210920302109200021092FF018FEF7A
:1025F0008093F7010E94D10F0895DF92EF92FF922E
:102600000F931F938C01D62E472FFC01608171819F
:102610006F5F7F4F718360836150704023E0E22ED3
:1026200026E0F22EC7010E94EF2DF8016081718132
:102630006F5F7F4F7183608361507040C7014D2D84
:102640000E94EF2D1F910F91FF90EF90DF90089562
:10265000FC01462F608171816F5F7F4F71836083C2
:102660006150704083E096E00E94EF2D0895DF9264
:10267000EF92FF920F931F93DF93CF9300D0CDB7CC
:10268000DEB71A8219828E010F5F1F4FC8016FEDEE
:102690007FEF0E94FD12C8016091EB010E94281398
:1026A000C8016091EC010E942813C8016091ED01FE
:1026B0000E942813C8016091EE010E942813C801EE
:1026C0006091EF010E942813C8016091F0010E94FF
:1026D0002813C8016091F1010E942813C80160917C
:1026E000F2010E942813C8016091F3010E9428138F
:1026F000C8016091F4010E9428136091FB01709160
:10270000FC01C8010E94FD126091FD017091FE0163
:10271000C8010E94FD126091FF0170910002C80182
:102720000E94FD126091030270910402C8010E9490
:10273000FD12C801609107020E94281339E0E32EC0
:1027400032E0F32ED02E012F8D2D902FF7016191C5
:102750007F010E942813F7E0EF16F3E0FF06A1F7D0
:102760000F900F90CF91DF911F910F91FF90EF90FD
:10277000DF900895CF92DF92EF92FF920F931F9315
:102780007C01FC01608171816F5F7F4F7183608389
:102790006150704043E0C42E46E0D42EC6010E9432
:1027A000E82D182F00E0F701608171816F5F7F4F86
:1027B0007183608361507040C6010E94E82D080F4C
:1027C000111DC8011F910F91FF90EF90DF90CF90E6
:1027D0000895FC01608171816F5F7F4F7183608319
:1027E0006150704083E096E00E94E82D089582E0F9
:1027F0008093F1018AE08093F40161E070E080E071
:1028000090E027E030E040E050E00E9468366A5FE8
:102810006093EC016093EB0162E070E080E090E097
:102820002DE030E040E050E00E946836645F609345
:10283000EE016093ED0161E070E080E090E027E060
:1028400030E040E050E00E9468366A5F6093F0013B
:102850006093EF018FEF8093F2011092FC011092D0
:10286000FB0187E797E79093FE018093FD0189E0E4
:1028700092E06EE175E00E94013A0895CF92DF92F6
:10288000EF92FF920F931F93DF93CF93CDB7DEB7F5
:1028900061970FB6F894DEBF0FBECDBF8EE891E012
:1028A0000E948A22882309F4F3C38091ED018823D2
:1028B000B1F480910802882391F483EB91E065E202
:1028C00040E029EF31E00E944B1D8AE08093BD017A
:1028D00083EB91E065E773E00E94B734EFC080912D
:1028E00008038F3F01F588E991E063E00E940B1A2D
:1028F000882341F488E991E062E00E940B1A882362
:1029000009F4DCC01092B90181E090E090930402D8
:102910008093030281E192E0909300028093FF0193
:102920000E94D10FCBC081E08093BA010E948E0932
:102930001092BA0188E991E063E00E940B1A8823A3
:10294000A1F10E94C6048F3F19F00E94C6042BC05B
:102950002091F501222349F1809103029091040214
:10296000019690930402809303028091FF0190915D
:102970000002820F911D909300028093FF018091CD
:102980000802882319F00E94FD0D02C00E94D10F99
:102990008091F7018F3F49F09091F501891710F46C
:1029A0008FEF01C0891B8093F70188E991E061E016
:1029B0000E940B1A882361F10E94B1048F3F19F025
:1029C0000E94B10423C0209103023091040221151A
:1029D0003105F1F080910802882349F02150304000
:1029E00030930402209303020E94FD0D0EC08091DB
:1029F0000702882331F02130310519F40E94EF12CB
:102A000004C0C90101970E9457128FEF8093F7010C
:102A100088E991E062E00E940B1A882319F1209165
:102A2000F6012223F9F08FEF8093F70180910302E2
:102A3000909104020896909304028093030280917F
:102A4000FF0190910002820F911D909300028093EC
:102A5000FF0180910802882319F00E94FD0D02C039
:102A60000E94D10F88E991E060E00E940B1A882350
:102A700029F1209103023091040221153105F1F072
:102A800080910802882349F0285030403093040296
:102A9000209303020E94FD0D0EC08091070288233F
:102AA00031F02930310518F40E94EF1204C0C90139
:102AB00008970E9457128FEF8093F70188E991E001
:102AC00064E00E940B1A882341F08091ED01882375
:102AD00021F40E94F7130E94EF1288E991E064E06C
:102AE0000E940B1A882309F459C2E091F701EF3FC5
:102AF00009F454C2809108022E2F30E0882309F493
:102B000027C2F901E85FFC4F80818E3509F050C083
:102B10008EE891E068E770E042E00E94332388236A
:102B200009F03CC28091F701282F30E010E07E01CF
:102B30000894E11CF11C812F90E0FC01E20FF31FCF
:102B40006701C80ED91EE85FFC4F8081D6018C93C7
:102B5000012F0F5F8A3071F4F701E00FF11D108231
:102B600089E092E0B7010E94593A9C01009721F058
:102B7000102F0AC0102FDFCFF601108289E092E0FB
:102B8000B7010E94593A9C0140E0612F70E0F901C1
:102B9000E40FF11DDF01A60FB71F8C9180838823FE
:102BA00011F04F5FF4CF0E94FD0D0E94B104CDC122
:102BB0008E3309F0F3C18181893009F426C18A304E
:102BC0007CF4843009F488C085301CF48130DCF456
:102BD000E5C1853009F493C0863009F0DFC1C6C075
:102BE0008C3009F44CC18D303CF48A3009F42FC18B
:102BF0008B3009F0D3C141C18D3009F442C18E3010
:102C000009F0CCC15DC18EE891E068E670E043E078
:102C10000E943323992787FD909597FDBFC182308D
:102C2000910509F4BBC19C0163E0220F331F6A9533
:102C3000E1F7880F991F280F391FE091F701F0E0A5
:102C4000E85FFC4F8181992787FD9095280F391FF8
:102C500023303105D1F0243031053CF421303105E9
:102C600071F022303105F1F40DC02C30310599F0AE
:102C70002D30310599F02B303105A1F409C08BEED0
:102C800091E00EC08DEE91E00BC08FEE91E008C098
:102C90008CEE91E005C08EEE91E002C080EF91E0F5
:102CA0000E94E9079091EC018091EB01981710F4D4
:102CB0009093EB019091EE018091ED01981710F443
:102CC0009093ED019091F0018091EF01981708F039
:102CD00099C09093EF0196C08091F30190E063E07A
:102CE0000E944E06FFEF8F3F9F0709F457C1893CB2
:102CF000910514F088EC90E08093F30183C08EE896
:102D000091E062E770E043E00E943323282F3327ED
:102D100027FD309521153105B9F49091F4019923DF
:102D200099F091509093F4018091ED018C5F809324
:102D3000ED019091EE01981710F49093ED018EE85B
:102D400091E066EA73E05BC02130310509F026C1ED
:102D50008091F40190E062E00E944E062FEF8F3FD9
:102D6000920709F41BC18093F4014CC08091F201D9
:102D70008F3F81F48EE891E06CE770E044E00E94C0
:102D80003323992787FD909583309105D8F580935B
:102D9000F20138C08091F1018823A1F18EE891E021
:102DA0006EE670E042E00E943323882359F580915B
:102DB000F10181508093F1018091F201813049F459
:102DC0008091EE018093ED018EE891E061EB73E07C
:102DD00016C0823061F48091F0018F5F8093F00122
:102DE0008093EF018EE891E065EC73E008C080917C
:102DF000EC018093EB018EE891E069ED73E04FE028
:102E00000E94AE200E94FD0DC9C010920802809160
:102E1000010290910202909300028093FF01809141
:102E20000502909106029093040280930302809120
:102E3000F8018093F7010E9437130E94D10F8EE8AA
:102E400091E06DEE73E04FE00E94AE20A7C02091AC
:102E5000FD013091FE0187E72737380709F49EC04E
:102E60008091FB019091FC013093FC012093FB01C8
:102E70009093FE018093FD0120C081E086C082E036
:102E800084C08FEF9FEF63E00E944E069C01AFEF7E
:102E90008F3F9A0709F482C0B1E082399B070CF09A
:102EA0007DC08091FB019091FC019093FE01809385
:102EB000FD013093FC012093FB01109208025FC0DA
:102EC00019821A821B821C82FE0135968DE0DF0179
:102ED0001D928A95E9F7CE01019660E10E940E08E5
:102EE0008981882309F45AC0A9E0B2E0FD0101906C
:102EF0000020E9F73197EA1BFB0BEE3FF10508F0E4
:102F00004DC080910902882329F0CD0161E071E074
:102F10000E94283A09E012E0C80160E371E00E94D3
:102F2000283AF80101900020E9F748E053E04E1BF1
:102F30005F0BC801BE016F5F7F4F0E943A3A10924B
:102F400007030E94FD0D0E94C6048093F70126C06E
:102F5000F901E85FFC4FE081EE33A1F48091FB01C1
:102F60009091FC019093FE018093FD01C901875F60
:102F70009C4F0E94D5059093FC018093FB010E9419
:102F8000EF120CC0EC3321F480E00E94160A06C058
:102F9000EE3521F40E94170B0E94D10F88E991E0D1
:102FA00065E00E940B1A882309F444C090E08091E8
:102FB0000802882309F491E090930802992321F1F3
:102FC0001092B9018091FF0190910002909302024A
:102FD0008093010280910302909104029093060273
:102FE000809305028091F7018093F801109204020A
:102FF00010920302109200021092FF018FEF809353
:10300000F7010E94FD0D16C080910102909102020D
:10301000909300028093FF01809105029091060237
:1030200090930402809303028091F8018093F7014A
:103030000E94D10F88E991E066E00E940B1A882374
:1030400039F11092B90180910802882381F08091B2
:10305000010290910202909300028093FF018091FF
:1030600005029091060290930402809303020E944D
:1030700037138EE891E06DEE73E04FE00E94AE20D2
:1030800088EF93E06CE074E04CE254E00E9478102A
:1030900061960FB6F894DEBF0FBECDBFCF91DF9122
:1030A0001F910F91FF90EF90DF90CF900895EF92D6
:1030B000FF920F931F93DF93CF9300D0CDB7DEB76E
:1030C0001A8219827E010894E11CF11CC7010E943A
:1030D000BA138F5D9F4F19F00E94F71361C0C701AB
:1030E0000E94E9138093EB01C7010E94E9138093CA
:1030F000EC01C7010E94E9138093ED01C7010E9412
:10310000E9138093EE01C7010E94E9138093EF0158
:10311000C7010E94E9138093F001C7010E94E913DF
:103120008093F101C7010E94E9138093F201C70166
:103130000E94E9138093F301C7010E94E913809371
:10314000F401C7010E94BA139093FC018093FB0124
:10315000C7010E94BA139093FE018093FD01C7013D
:103160000E94BA13909300028093FF01C7010E944E
:10317000BA139093040280930302C7010E94E913DB
:103180008093070209E012E0C7010E94E913F801E9
:1031900081938F01F3E007301F07B1F7F801108228
:1031A0000F900F90CF91DF911F910F91FF90EF90B3
:1031B00008950F931F930EE811E0C8010E944C245C
:1031C000C8016AE00E94A42085E996E040E855E243
:1031D00060E070E00E94AC3282E096E06AE070E06D
:1031E0004FE754E026E834E00E94B52D82E391E0F9
:1031F0000E94CB2A9093FA018093F9010E945718FC
:1032000088EF93E06CE074E04CE254E00E947810A8
:10321000C8010E943F221F910F910895882319F43D
:103220008CB5806202C08CB58F7D8CBD08959CB535
:10323000937F982B9CBD08952CB5382F33702C7F2D
:10324000322B3CBD2DB590E095958795959587954A
:1032500081702E7F822B8DBD08958AE061E00E94EF
:10326000BF318AE061E00E9453318CB580618CBD32
:103270008CB580648CBD8DE061E00E9453318BE0A1
:1032800061E00E9453310895FC0181E0808308953C
:1032900085E070E00E94F33008956F927F928F92E4
:1032A0009F92AF92BF92CF92DF92EF92FF920F93D5
:1032B0001F93CF93DF93EC0189819A818C0124E0E5
:1032C000000F111F2A95E1F7081B190B85E10E94D9
:1032D000D130BC01600F711F84E0769567958A95A7
:1032E000E1F77A8369838881882381F12E813F8188
:1032F0006217730710F4B90106C08885998586178F
:10330000970708F4BC0100D000D080E090E040E0D6
:1033100050E0E884F98400E010E0AD80BB24CC24C8
:10332000DD246C80772488249924EDB7FEB7618270
:103330007282838294820E94FD356B830F900F907E
:103340000F900F9085E070E00E94F330DF91CF91F5
:103350001F910F91FF90EF90DF90CF90BF90AF90B3
:103360009F908F907F906F900895FC018CE39FE079
:103370009383828384E0818381E084870895CF935F
:10338000DF93EC018C8590E08F719070892B69F54B
:1033900084E10E94D130AA2797FDA095BA2FBC01E5
:1033A000CD010E940C3826EE3FE34EEC50E40E9423
:1033B00098380E94DE379B01AC017B836A836115DC
:1033C000710589F084E08983B901FE0120E08481E0
:1033D00095816817790710F429830AC02F5F329608
:1033E0002430A9F702C08FEF89838C858F5F8C878B
:1033F000DF91CF910895FC0188E0808389E081838B
:1034000087E0828386E0838384E0848382E085830F
:1034100081E18683089520E0FC01E60FF11D87819C
:10342000813009F421E0822F0895E62FF0E0423048
:1034300040F420E0E80FF91F878181508E3F88F427
:103440000FC0E80FF91F87818F3F11F420E009C0FA
:1034500020E090E0642F70E00E941A39019709F48F
:1034600021E0822F08950F931F93CF93DF93EC01F8
:1034700010E00FEF888162E00E94533188810E9442
:10348000F2312F81892B19F42F5F2F8307C022235C
:1034900049F02F3F11F41F8201C00F83888160E043
:1034A0000E9453311F5F2196173021F7DF91CF9192
:1034B0001F910F910895FC01742F643508F05DC0D1
:1034C00047FD5BC040330CF058C0878D823019F542
:1034D000842F859585958595992787FD9095462F0D
:1034E000552747FD509524E530E0829FF001839FEA
:1034F000F00D929FF00D1124E40FF51FE454FC4FE2
:10350000808190E0272F277002C0959587952A9596
:10351000E2F780958170972F959595959595462F13
:10352000552747FD5095272F27708823A1F4E4E500
:103530009E02F0011124E40FF51FE454FC4F81E0DA
:1035400090E002C0880F991F2A95E2F780952081AC
:10355000282320830895E4E59E02F0011124E40F5E
:10356000F51FE454FC4F81E090E002C0880F991FE2
:103570002A95E2F72081282B20830895FC01678F8C
:1035800060A30895FC01678F40A30895AF92BF9296
:10359000CF92DF92EF92FF920F931F93CF93DF931F
:1035A000EC01162FF42EE22EAA24402F552747FDBA
:1035B00050958F2D992787FD9095481B590B57FFE4
:1035C00003C0509541955F4F2E2D332727FD309531
:1035D000812F992787FD9095281B390B37FF03C052
:1035E000309521953F4F2417350744F4AA24A3941E
:1035F0008F2DF12E182F802F0E2DE82EE11634F48A
:103600008E2DE12E182F802F0F2DF82EDE2CD11AA3
:10361000202F332727FD30958F2D992787FD9095F3
:10362000281B390B37FF03C0309521953F4FB22E31
:10363000F0161CF0CC24CA9402C0CC24C3948D2D67
:10364000D7FC8F5F082F059511C0AA2021F0CE016D
:103650006F2D412F03C0CE01612F4F2D0E945B1AA9
:103660000B1907FF02C0FC0C0D0D1F5FE1166CF774
:10367000DF91CF911F910F91FF90EF90DF90CF904E
:10368000BF90AF9008950F93042F322F262F215013
:10369000230F0E94C61A0F9108950F93362F042FFF
:1036A0000150020F232F0E94C61A0F9108959F9276
:1036B000AF92BF92CF92DF92EF92FF920F931F9340
:1036C000CF93DF936C01B62E942EA02EC0E0D0E0F5
:1036D000E62EFF24E7FCF094022F112707FD10953A
:1036E0000E0D1F1D06C0C601492D2A2D0E944D1B1F
:1036F00021966B2D6C0FCE018E0D9F1D80179107AB
:1037000094F3DF91CF911F910F91FF90EF90DF9095
:10371000CF90BF90AF909F9008952F923F925F926D
:103720006F927F928F929F92AF92BF92CF92DF92D1
:10373000EF92FF920F931F93DF93CF9300D000D0AF
:1037400000D0CDB7DEB79E838D83C62ED42EEE2457
:10375000E394E21A8EEF289F502C1124842E8A9431
:10376000962E9A94A42EA394B62EB394F22E662489
:1037700023E0722E10E0C801847090709A838983D0
:10378000F801E270F070FC83EB8398E0292E312C75
:10379000202231220170107054C0E7FC04C0FA945A
:1037A000F2E05F0EE50C639489819A81892B71F0B8
:1037B0004F2D4D0D8D819E816B2D0E945B1A6F2DBB
:1037C0006C0D8D819E814A2D0E945B1AEB81FC81DC
:1037D000EF2B71F04D2D4F198D819E816B2D0E9425
:1037E0005B1A6F2D6C0D8D819E81482D0E945B1A96
:1037F0002114310471F06C2D6F198D819E814A2D39
:103800000E945B1A4F2D4D0D8D819E81692D0E9466
:103810005B1A0115110571F06C2D6F198D819E8158
:10382000482D0E945B1A4D2D4F198D819E81692D67
:103830000E945B1AE70CF2E07F0E8A949A94A3949C
:10384000B3946F140CF4A9CF26960FB6F894DEBF8C
:103850000FBECDBFCF91DF911F910F91FF90EF90E1
:10386000DF90CF90BF90AF909F908F907F906F90A0
:103870005F903F902F9008954F925F926F927F924A
:103880008F929F92AF92BF92CF92DF92EF92FF9270
:103890000F931F93CF93DF93EC01A62E742E9E2DD2
:1038A000FF24F394F21A8EEF289F802C1124B42E5B
:1038B000BA9453E0C52ECE0CE22EDD2443E0942EC4
:1038C00010E031E0432E512C40225122692E6394A6
:1038D0000270107034C0F7FC04C0EA9482E0880ED5
:1038E000F80CD3944114510489F06D2D6A0D472DC5
:1038F0004E192E2D220F260DCE010E944D1B6E2D2E
:103900006A0DCE014B2D2C2D0E944D1B011511056A
:1039100089F06A2D6D19472D4E192E2D220F260D77
:10392000CE010E944D1B6A2D6E19CE014B2D2C2D00
:103930000E944D1BF90C82E0980EBA94C80EDE145A
:1039400054F2DF91CF911F910F91FF90EF90DF9094
:10395000CF90BF90AF909F908F907F906F905F902F
:103960004F9008957F928F929F92AF92BF92CF9285
:10397000DF92EF92FF920F931F936C01962EA42E6D
:10398000F22E7E2C760E1EEFE19E102D1124812E3C
:10399000820E672D282D0E94431BB02EBA0CBA94BC
:1039A000C601672D4B2D282D0E94431BAE0C100F16
:1039B000C601692D4A2D212F0E944D1BF90CFA9446
:1039C000C6016F2D4A2D212F0E944D1BC601672D68
:1039D0004A2D2E2D01E00E948D1BFE18C6016F2D71
:1039E0004A2D2E2D02E00E948D1BBE18C6016F2DA0
:1039F0004B2D2E2D04E00E948D1BC601672D4B2DF3
:103A00002E2D08E00E948D1B1F910F91FF90EF90CB
:103A1000DF90CF90BF90AF909F908F907F90089550
:103A20008F929F92AF92BF92CF92DF92EF92FF92CE
:103A30000F931F936C01162FA42E922EF02EBE2CE6
:103A40008E2C860E2EEFE29EE02C11242E2D290DB9
:103A5000682D0E94571BAB0CFA94FE0C1150190DE7
:103A60001B19C601612F4A2D2B2D01E0EF2C0E945E
:103A70003C1CC601682D4A2D2B2D02E00E943C1CE7
:103A80001F910F91FF90EF90DF90CF90BF90AF907C
:103A90009F908F9008952F923F924F925F926F92D6
:103AA0007F928F929F92AF92BF92CF92DF92EF92CE
:103AB000FF920F931F93DF93CF9300D00F92CDB758
:103AC000DEB73C016983442E8901F90154900F5FF0
:103AD0001F4FF801D49001501040852D90E00796BB
:103AE00073E0959587957A95E1F7EE2460E8262EA8
:103AF000312C882E992487FC9094D40E31C08E2DC1
:103B00008770510102C0B594A7948A95E2F78E2D73
:103B1000859585958595282F332727FD30952E5F30
:103B20003F4F200F311F3B832A83F42CC980CE0CDA
:103B300014C0EA81FB81849190E08A219B21892B2A
:103B400029F0C3016C2D4F2D0E945B1A2A813B8105
:103B5000280D391D3B832A83F394FD1451F7E39418
:103B6000E51469F60F900F900F90CF91DF911F91A0
:103B70000F91FF90EF90DF90CF90BF90AF909F900C
:103B80008F907F906F905F904F903F902F9008950F
:103B90002F923F924F925F926F927F928F929F925D
:103BA000AF92BF92CF92DF92EF92FF920F931F934B
:103BB000DF93CF9300D00F92CDB7DEB73C0169837E
:103BC000442E7901F9015080D180852D90E007962F
:103BD00003E0959587950A95E1F700E010E8212E1E
:103BE000312C882E992487FC9094D40E33C0802FDA
:103BF0008770510102C0B594A7948A95E2F7802F8F
:103C0000859585958595282F332727FD30952E5F3F
:103C10003F4F2E0D3F1D3B832A83142DC980C00EBC
:103C200016C0EA81FB818081992787FD90958A21C2
:103C30009B21892B29F0C3016C2D412F0E945B1A17
:103C40002A813B81280D391D3B832A831F5F1D1567
:103C500041F70F5F051559F60F900F900F90CF9118
:103C6000DF911F910F91FF90EF90DF90CF90BF9069
:103C7000AF909F908F907F906F905F904F903F900C
:103C80002F900895DC01FB0184918F5F14968C9333
:103C90001497319684918F5F15968C931597319672
:103CA0005E96FC93EE935D9708953F924F925F92DC
:103CB0006F927F928F929F92AF92BF92CF92DF923C
:103CC000EF92FF920F931F93CF93DF93EC01862E19
:103CD000A42E422F102F3F8C23E526170CF4ABC0E7
:103CE0003FE23A150CF4A7C0C02EDD248C8190E091
:103CF00001979C01C29EC001C39E900DD29E900D63
:103D00001124262F332727FD3095820F931F181675
:103D100019060CF090C08D8190E09C01C29EC001FC
:103D2000C39E900DD29E900D11242A2D332727FD7E
:103D30003095820F931F181619060CF07CC0992439
:103D4000442E55246DC09C0121503040421753072A
:103D500011F460E00EC0429EC001439E900D529E41
:103D6000900D1124840F951FED8DFE8DE80FF91F26
:103D700064914C9DC0014D9D900D5C9D900D112452
:103D8000682C680EBB24792C780C3FC0E62EFF24EB
:103D900060FF19C0113039F44B2D4A0DCE01672D4B
:103DA0000E945B1A2EC02C9DC0012D9D900D3C9D44
:103DB000900D11244A2D480FCE01662D212F012F81
:103DC0000E94571B1EC098A18F8D9817D1F09F8F0E
:103DD000113039F44B2D4A0DCE01672D0E945B1A2C
:103DE0000FC02C9DC0012D9D900D3C9D900D112468
:103DF0004A2D480FCE01662D212F012F0E94571BFF
:103E00003F8EF594E7946E2DB3942B2D332727FD29
:103E100030958D8190E0281739070CF4B7CF939433
:103E2000492D552747FD50958C8190E0481759073B
:103E30000CF489CF3F8EDF91CF911F910F91FF90AE
:103E4000EF90DF90CF90BF90AF909F908F907F903A
:103E50006F905F904F903F9008950F93CF93DF93B3
:103E6000EC01262F6A3049F48D819885899F802D39
:103E700011249A85980F9A8726C06D3029F169859B
:103E80004A8508850E94551E9C816885969F402D15
:103E900011248985480F49878F818823A9F05527E8
:103EA00047FD5095699F9001112484E590E0821BA5
:103EB000930B8417950744F49D81699F902D1124DD
:103EC0008A85890F8A87198681E090E0DF91CF91FA
:103ED0000F9108951F93CF93DF93EC01162FF89461
:103EE0008E8560E00E94BF318F8518161CF460E05B
:103EF0000E94BF311EBD0DB407FEFDCF8EB58F856C
:103F000018161CF461E00E94BF317894DF91CF91C4
:103F10001F910895FF920F931F93CF93DF93EC01AE
:103F2000FF2400E010E06F2D6064CE010E946A1F44
:103F3000CE0160E80E946A1F8E8561E00E94BF3159
:103F40008F8518161CF460E00E94BF31F801E4541C
:103F5000FC4F90E080818EBD0DB407FEFDCF8EB585
:103F60009F5F31969435B1F78F8518161CF461E088
:103F70000E94BF31F3940C5A1F4F86E0F81699F651
:103F8000CE0160E40E946A1FDF91CF911F910F91D3
:103F9000FF900895CF93DF93DC0188EF91E0ECEB85
:103FA000F3E0EF019C01199221503040E1F719969E
:103FB0001C9219971A961C92DF91CF910895EF9257
:103FC0000F93CF93DF93EC014D876C872E87E88AA0
:103FD0000F8781E088878F8F18A28F83CE016AE5D3
:103FE00076E00E94421E0E942D1981E00E940E1967
:103FF00085E00E941C198CE00E9417198D8561E0F4
:104000000E9453318C8561E00E9453318E8561E0BE
:104010000E945331888918161CF461E00E945331C4
:104020008F8518161CF461E00E9453318889181698
:104030006CF460E00E94BF316AE070E080E090E0E4
:104040000E947030888961E00E94BF31EC852E2F7C
:10405000332727FD3095F901E859F74FE491F0E057
:10406000EE0FFF1FEC5AF74F859194919C8B8B8B31
:104070002458374FF90184918A8FED852E2F3327ED
:1040800027FD3095F901E859F74FE491F0E0EE0F84
:10409000FF1FEC5AF74F859194919A8B898B245886
:1040A000374FF9018491898FEF852E2F332727FD14
:1040B0003095F901E859F74FE491F0E0EE0FFF1F5A
:1040C000EC5AF74F859194919E8B8D8B2458374FE6
:1040D000F90184918B8FEE852E2F332727FD3095A4
:1040E000F901E859F74FE491F0E0EE0FFF1FEC5AA9
:1040F000F74F85919491988F8F8B2458374FF90102
:1041000084918C8FCE0161E20E946A1FCE0164E12E
:104110000E946A1F8B8587FF02C08FE78B876B85A4
:104120006068CE010E946A1FCE0160E20E946A1F91
:10413000CE016CE00E946A1FCE010E948A1FDF91AF
:10414000CF910F91EF900895FC01EB5AFF4F88EE4D
:1041500093E070E00E942E3960830895FC01E65AD6
:10416000FF4F61937193445F40830895CF93DF9332
:10417000DC01E0E8F7E785919491ED01CA5BDF4F40
:104180008150904C09F043C0E6E9F7E7E491D096FE
:10419000EC93D097E7E9F7E7E4911496EC93149742
:1041A000E8E9F7E7E4911596EC931597E9E9F7E765
:1041B0008591949117969C938E931697EBE9F7E768
:1041C0008591949119969C938E931897EFE9F7E750
:1041D000E491E883E0EAF7E7859194915D969C93FA
:1041E0008E935C97E2EAF7E7859194915F969C93B2
:1041F0008E935E97E4EAF7E78591949191969C936C
:104200008E939097E6EAF7E7859194912CC08CE322
:10421000D0968C93D09714961C9214972FEF1596E6
:104220002C93159780E293E017969C938E931697A4
:1042300084ED93E019969C938E93189728838CEACB
:104240009DE05D969C938E935C978EED9DE05F96CE
:104250009C938E935E9784E79EE091969C938E93B9
:1042600090978CE39FE093969C938E939297DF9127
:10427000CF910895EF92FF920F931F93CF93DF9307
:104280007C018C010B5D1F4FC8010E94CA1FC80131
:1042900061E078E00E946C34C8010E948A1F83E0CC
:1042A0000E941C198BE391E0EEEFFFE30995F70103
:1042B00013A6C8016CED77E00E94B734C8010E94D4
:1042C0008A1FE7012A96CE010E94331ACE0164E0CC
:1042D0000E940B1A882339F462E370E080E090E0DA
:1042E0000E947030F0CFDF91CF911F910F91FF901E
:1042F000EF9008950F931F93CF93DF93EC018C0100
:104300000B5D1F4FC80161E040E00E94C21A85E5C5
:1043100099A5891B8EA71FA6698D6130B1F1613007
:1043200028F0888D653008F049C043C0CE0160E0B8
:104330000E944819C8010E94CA1F81E08DA7C801C8
:104340006DE378E00E946C346A8D7B8DC8014AE091
:1043500050E00E945A35C80169E278E00E946C344E
:10436000C8010E948A1F83B7817F846083BF83B79F
:10437000816083BF83B7816083BF889583B78E7F59
:1043800083BF83B78E7F83BF1FC0C95BDF4F888128
:104390009981AA81BB818F709070A070B0700897CE
:1043A000A105B10518F4C80167E00CC0C80168E7B1
:1043B00009C0882349F06B5FC80104C0882321F03D
:1043C000C8016FE20E948F34DF91CF911F910F914E
:1043D0000895CF92DF92EF92FF920F931F93CF93A6
:1043E000DF93EC01C45ADF4F8881CC55D04088233D
:1043F000E9F18C3010F010E002C01CE0181B81E0E5
:104400008DA755E2C52ED12CCC0EDD1EC60160E075
:104410000E94BE1A0AA54DE2F42E4F2D401B410FFB
:104420000D5FC60160E024E533E0E32E0E94101D1D
:10443000C60161E00E94BE1A0AA5F01AF10E0D5FD6
:10444000C60160E04F2D24E50E94B21C84E08EA7D7
:104450008AA5181B115D1FA7C65ADF4F6991799174
:10446000C6010E946C34888181508883DF91CF918E
:104470001F910F91FF90EF90DF90CF9008954F9292
:104480005F926F927F928F929F92AF92BF92CF92E4
:10449000DF92EF92FF920F931F932C01FC01628C2D
:1044A000738C60947094882499240E944A305B0134
:1044B0006C010E944A307B018C01F20141805280E4
:1044C0000E944A30460E571EA094B094C094D094D7
:1044D000E094F09400951095C601B501A8019701EC
:1044E0000E94FB38A40193010E94FB38460E571E20
:1044F000C2010E9486361F910F91FF90EF90DF90CE
:10450000CF90BF90AF909F908F907F906F905F9073
:104510004F900895AF92BF92CF92DF92EF92FF92A9
:104520000F931F93CF93DF93EC0176E5A72EB12C69
:10453000A80EB91EF501E080F180028113810E946E
:104540003C30E61AF70A080B190B65E5C62ED12C8C
:10455000CC0EDD1EF601808190E0A0E0B0E08E156B
:104560009F05A007B10708F071C08E010F5A1F4FB9
:10457000F80180819181A281B3810097A105B105E5
:1045800009F464C00E943C30F6012081620F711D65
:10459000811D911DF5016083718382839383FE01E8
:1045A000E95BFF4F80819181A281B3810196A11DBA
:1045B000B11D80839183A283B383F801108211829D
:1045C000128213820E944A30C35BDF4F6883798373
:1045D0008A839B83CD54D040CE010E944D19CE01D9
:1045E0000A960E94331ACE0148960E94BF1981E0B4
:1045F00022C0CE010E94E921CE010E947A218E01C3
:104600000B5D1F4FC8010E948A1F8BA5882319F4D8
:10461000C8010E94CA1F0E944A30CF5ADF4F6883E8
:1046200079838A839B83249728813981621B730B4A
:104630007A936A9380E0DF91CF911F910F91FF9061
:10464000EF90DF90CF90BF90AF900895CF5ADF4F9B
:1046500088819981AA81BB81C155D0400097A1056D
:10466000B10541F7C6CF2F923F924F925F926F9262
:104670007F928F929F92AF92BF92CF92DF92EF92F2
:10468000FF920F931F93DF93CF9300D000D000D001
:10469000CDB7DEB79E838D836A837B83542EFC0166
:1046A00013A61AE0A12EB12CA80EB91EB5E26B2EEE
:1046B000712C680E791ECC24A0E39A2E8824442401
:1046C000FFEFF983242E3324242F21502C838D8156
:1046D0009E810E948A228823D1F3C50164E00E9452
:1046E0000B1A882369F4C50165E00E940B1A882320
:1046F00039F4C50166E00E940B1A882309F4B7C09B
:10470000ED81FE8112A5C50164E00E940B1A882389
:1047100009F4B1C0C982AFC0C50163E044E00E94A2
:10472000151A8111C394C50161E044E00E94151A75
:104730008111CA948C2D992787FD90958215930538
:1047400011F4CC2402C0C7FCCC80ED81FE8182A58F
:104750008C9D902D11248C5F882E891A28C0892D5C
:10476000992787FD9095282D332727FD3095821BAB
:10477000930B0297D4F4898126960FB6F894DEBF86
:104780000FBECDBFCF91DF911F910F91FF90EF90A2
:10479000DF90CF90BF90AF909F908F907F906F9061
:1047A0005F904F903F902F90089544244394882D1C
:1047B000992787FD9095292D332727FD3095820F66
:1047C000931F62E070E00E942E39962EED81FE81EB
:1047D00016A667A721E025A714A62A813B81C90157
:1047E0008C01DD24EC2CFF24E7FCF09418C08D2D07
:1047F00090E08E159F0551F423E0ED81FE8126A700
:1048000082A58E9D802D1124890D87A7F8016591C1
:104810007491C3010E94B734D3940E5F1F4FD51417
:1048200030F3C30160E00E94BE1AED81FE8142A513
:104830004E9D402D11244150490DC30160E024E5F7
:104840000E94431BC30161E00E94BE1AED81FE81FC
:1048500002A50E9D402D11244250490D0D5FC3014C
:1048600060E024E5F3E0EF2E0E94B21C30CF44203C
:1048700009F075CF51CF812F90E0909581959F4F92
:104880009C01229EC001239E900D329E900D11240A
:10489000EEEF8E2E880E63CFEF92FF920F931F9351
:1048A0008C010B5A1F4F82E3F801808381E090E076
:1048B000A0E0B0E0B293A293929382938F010B5049
:1048C00010408FEFF801808306541040C8010E9409
:1048D000B620C8010E944419C8016FEF0E94481910
:1048E0004AE0E42EF12CE00EF11EC7010E94FB19F4
:1048F000C7010E94331AC80148960E94B519C80121
:1049000085966DE04BE020E10FE03EE0E32E0E9453
:10491000DF1F1F910F91FF90EF9008956091B705F1
:10492000662381F18091B4058F5F8093B4059091E7
:10493000B605891738F130E08091B505882309F470
:1049400031E03093B5051092B4058091B905882304
:10495000A9F08091700123E4829FC0011124895B3A
:104960008093700190E070E00E941A398093B8053E
:1049700005C08091B8058093B40008953323C9F72A
:1049800080E0F9CF08951F920F920FB60F92112475
:104990002F933F934F935F936F937F938F939F9347
:1049A000AF93BF93EF93FF930E948E24FF91EF91FB
:1049B000BF91AF919F918F917F916F915F914F9137
:1049C0003F912F910F900FBE0F901F9018959093CD
:1049D000BB058093BA057093BD056093BC055093E9
:1049E000BF054093BE053093C1052093C0050895CF
:1049F000DF92EF92FF920F931F93D82E7A018B01D3
:104A000087FF0CC087E740E050E060E070E00E9464
:104A1000F824823008F058C08FE7D822E091C00512
:104A2000F091C1050995E091BE05F091BF0509958A
:104A3000E091BC05F091BD050995E091BC05F091B0
:104A4000BD0509958F3FC9F7E091BA05F091BB0507
:104A50008D2D0995812F9927AA27BB27E091BA05AB
:104A6000F091BB050995C801AA27BB27E091BA05BB
:104A7000F091BB050995BB27A12F902F8F2DE091B9
:104A8000BA05F091BB050995E091BA05F091BB0517
:104A90008E2D099580E4D81611F485E906C088E4C6
:104AA000D81611F487E801C081E0E091BA05F091D1
:104AB000BB0509951AE0E091BC05F091BD0509958B
:104AC00087FF02C01150B9F71F910F91FF90EF902F
:104AD000DF900895CF92DF92EF92FF920F931F9392
:104AE000DF93CF9300D000D0CDB7DEB714E6E091CE
:104AF000BC05F091BD0509951150C9F780E440E06F
:104B000050E060E070E00E94F824813009F06CC051
:104B100088E44AEA51E060E070E00E94F8248130C5
:104B200009F040C06E010894C11CD11C76018E01B1
:104B30000B5F1F4FE091BC05F091BD050995F70192
:104B400081937F01E017F107A9F78B81813009F08C
:104B50004BC08C818A3A09F047C008EA11E604C0CC
:104B60000150104009F440C089EE40E050E060E0A0
:104B700070E40E94F824882399F754C0E091BC05A2
:104B8000F091BD050995F60181936F01EE15FF05C2
:104B9000A9F7898186FD03C074E0F72E26C06CE07A
:104BA000F62E23C089EE40E050E060E070E00E9405
:104BB000F824823028F051E4E52EFF24F39404C059
:104BC00049EEE42E32E0F32E08EA11E603C001506C
:104BD000104051F08E2D40E050E060E070E00E9407
:104BE000F8248823A1F729C0FF24F092B706E091AA
:104BF000C005F091C1050995E091BC05F091BD0596
:104C0000099580E0FF2009F481E00F900F900F904C
:104C10000F90CF91DF911F910F91FF90EF90DF9058
:104C2000CF9008958AE740E050E060E070E00E9495
:104C3000F824882309F4A2CFD7CF80E540E052E0E2
:104C400060E070E00E94F824882371F6CECF8F9246
:104C50009F92AF92BF92CF92DF92EF92FF920F930B
:104C60001F93CF93DF93982E892E69015801FFEF90
:104C7000EF2EFFE7FF2EE022F122E114F10409F408
:104C800090C0C701820F931F8150924008F089C0E5
:104C90008091B70683FD07C0E9E0440F551F661FEA
:104CA000771FEA95D1F781E50E94F824882309F05F
:104CB00066C0C8EED3E0E091BC05F091BD05099552
:104CC0008F3F19F42197B9F75AC08E3F09F057C0AA
:104CD000002711270C191D090E5F1D4F0E191F0902
:104CE00008C0E091BC05F091BD0509950894C10884
:104CF000D108C114D104A9F7B7FE29C0C92DD82DF8
:104D0000E091C605F091C7050995E091C205F091C3
:104D1000C3050995E091BC05F091BD050995FE011B
:104D20000995D82EE091C405F091C5050995089420
:104D3000E108F108E114F10411F0DD2031F7E09110
:104D4000C805F091C90509950E0D1F1D10C0892DCC
:104D5000982D9C01E901E091BC05F091BD050995F4
:104D600089930894E108F108E114F104A1F7E091B6
:104D7000BC05F091BD05099501501040C1F7E091C7
:104D8000C005F091C1050995E091BC05F091BD0504
:104D90000995C701E114F10411F081E090E09C0154
:104DA00002C024E030E0C901DF91CF911F910F9143
:104DB000FF90EF90DF90CF90BF90AF909F908F903B
:104DC00008950F931F93CF93DF938C01C091CA0571
:104DD000D091CB05FC011182108264817581613014
:104DE0007105B1F1888599856817790788F577830A
:104DF00066836115710501F162507040888599855F
:104E000002976817790728F020E030E040E050E092
:104E100017C080E090E0298130E040E050E00E943F
:104E2000FB389B01AC018A899B89AC89BD89280F1D
:104E3000391F4A1F5B1F04C02E853F854889598949
:104E4000F801208731874287538720E030E002C095
:104E500021E030E0C901DF91CF911F910F910895BA
:104E60008F929F92AF92BF92CF92DF92EF92FF927A
:104E70000F931F93DF93CF9300D000D0CDB7DEB751
:104E80005C018090CA059090CB0582E0A816B10421
:104E900008F47DC0F40180859185A816B90608F054
:104EA00076C08081813021F0823009F070C051C01D
:104EB000C501969587958A0D9B1D9C013170892FA0
:104EC000992786956C01EE24FF24F40142855385D1
:104ED00064857585CE010196F1E02F3F3F0749F0CB
:104EE000C40ED51EE61EF71EB701A60102E010E0B3
:104EF0001EC04C0D5D1D6E1D7F1D2FEF31E001E0CA
:104F000010E00E942726892B09F041C0F401428558
:104F10005385648575854F5F5F4F6F4F7F4F4C0D95
:104F20005D1D6E1D7F1DCE01029620E030E00E94C7
:104F30002726892B61F589819A81A0FE07C09C01F3
:104F400044E0369527954A95E1F723C09C013F70D0
:104F500020C04B2D552760E070E0F40182859385D9
:104F6000A485B585480F591F6A1F7B1FFFEFAF222D
:104F7000BB24AA0CBB1CCE010196950102E010E0F7
:104F80000E942726892B19F429813A8102C021E049
:104F900030E0C9010F900F900F900F90CF91DF91EB
:104FA0001F910F91FF90EF90DF90CF90BF90AF9047
:104FB0009F908F900895EF92FF920F931F93CF933E
:104FC000DF937C01C091CA05D091CB05FC01008123
:104FD00011810F5F1F4F09F471C020853185428513
:104FE0005385211531054105510509F467C0C801F4
:104FF0008F709070892B09F05BC02F5F3F4F4F4F30
:105000005F4F2087318742875387468157814115FB
:10501000510539F48C819D810817190708F448C09F
:105020004DC0898190E00197980174E036952795ED
:105030007A95E1F782239323892BD1F5CA010E9447
:105040003027BC018230910518F421E030E038C0EF
:10505000888599856817790788F5F70177836683CE
:10506000C091CA05D091CB05625070408885998562
:1050700002976817790728F020E030E040E050E020
:1050800012C080E090E0298130E040E050E00E94D2
:10509000FB389B01AC018A899B89AC89BD89280FAB
:1050A000391F4A1F5B1FF7012087318742875387CB
:1050B000F7011183008320E030E002C023E030E0FC
:1050C000C901DF91CF911F910F91FF90EF9008954B
:1050D0002F923F924F925F926F927F928F929F9208
:1050E000AF92BF92CF92DF92EF92FF920F931F93F6
:1050F000CF93DF93E82FC091CA05D091CB052097BD
:1051000019F428E030E0E1C08A8180FD03C027E087
:1051100030E0DBC06A8C7B8C8C8C9D8C4E2F592FA1
:10512000CB01DA015C016D016A147B048C049D04DF
:1051300010F4640153012E893F89488D598D1E8AD0
:105140001F8A188E198EA114B104C104D10409F468
:10515000BAC08981682E772488249924F9E0660CE6
:10516000771C881C991CFA95D1F72115310541054A
:105170005105A1F119012A010894210831084108BB
:105180005108C601B5016150704080409040A401B3
:1051900093010E94413979018A01C201B101A40140
:1051A00093010E944139E216F30604071507B0F097
:1051B00088279927DC0186199709A809B90982214E
:1051C0009321A421B5218E8B9F8BA88FB98FA81A0C
:1051D000B90ACA0ADB0A68A179A125C06E8D7F8D44
:1051E00079A368A320C0CB010E943027BC01823084
:1051F000910508F458C0888599856817790708F0E3
:1052000052C079A368A38E899F89A88DB98D860D18
:10521000971DA81DB91D8E8B9F8BA88FB98FA618BF
:10522000B708C808D9086A147B048C049D04D8F216
:105230008E899F89A88DB98D8A0D9B1DAC1DBD1DC2
:105240008E8B9F8BA88FB98FE9E0D694C794B794C3
:10525000A794EA95D1F7EA2CE394EB82C090CA05B3
:10526000D090CB0562507040F60180859185029701
:1052700068177907C0F480E090E0218130E040E0D9
:1052800050E00E94FB389B01AC01F60182899389B2
:10529000A489B589280F391F4A1F5B1F21153105C5
:1052A0004105510521F41A8221E030E00EC02E0D97
:1052B000311D411D511D21503040404050402AA316
:1052C0003BA34CA35DA320E030E0C901DF91CF9167
:1052D0001F910F91FF90EF90DF90CF90BF90AF9014
:1052E0009F908F907F906F905F904F903F902F9006
:1052F00008955F926F927F928F929F92AF92BF922A
:10530000CF92DF92EF92FF920F931F93CF93DF9391
:105310006C015B01DB018C918F3219F40894A11CA4
:10532000B11CF60115821482D5018C91803268F48B
:10533000C6010E94E126EC01E091CA05F091CB057F
:105340000680F781E02D1082BCC000E2502E66245A
:105350006394F601A281B381FD01CD010B9601C0DA
:105360005192E817F907E1F730E0772468E002C0CE
:1053700038E06BE0F501E70DF11D208173942032D8
:1053800050F12F3241F12E3211F0361730F06830E3
:1053900009F092C02E3261F38FC02F3708F08CC015
:1053A000422F50E0E2E4F1E001C031968081882391
:1053B00039F0992787FD909584179507B1F77CC040
:1053C000822F81568A3108F42052FD01E30FF11D2E
:1053D00020833F5FCFCF332309F46EC01B961C920E
:1053E0001B97203210F41B966C92C6010E94E12696
:1053F000EC01009709F042C0E091CA05F091CB059D
:10540000E680F7801BE0812E912C8E0C9F1CD6012C
:1054100018964D915D916D917C911B972D913C91CA
:105420002F703070B5E0220F331FBA95E1F7C70136
:1054300000E210E00E942726892B19F081E090E01D
:105440001CC0F7018081882309F44CC0838583FD4B
:105450000FC0F601A281B381F701E815F90509F43F
:1054600044C090818C91981719F431961196F5CF1C
:10547000C6010E94DB27009751F2EC01C330D10531
:1054800001F5D6011296ED91FC911397838588233F
:10549000B1F017C0E091CA05F091CB050680F78105
:1054A000E02D838584FF0BC0A70CB11C828D938DEA
:1054B000F601958384834DCFC5E0D0E002C0C4E0FF
:1054C000D0E0CE01DF91CF911F910F91FF90EF902F
:1054D000DF90CF90BF90AF909F908F907F906F9014
:1054E0005F900895C3E0D0E0C9CFD6011296ED9148
:1054F000FC9113978385882369F2E3CFEF92FF92A3
:105500000F931F93DF93CF93CDB7DEB7AC970FB652
:10551000F894DEBF0FBECDBF8C01E091CA05F091BB
:10552000CB05309719F428E030E027C08DE0E82E55
:10553000F12CEC0EFD1EF782E682CE010196F801F9
:1055400093838283C8010E9479299C01009781F48A
:105550008D85882349F0888D84FF0DC0F701828DE9
:10556000938DF80195838483C8010E94E1269C01F4
:105570002330310511F424E030E0C901AC960FB6B8
:10558000F894DEBF0FBECDBFCF91DF911F910F9179
:10559000FF90EF900895EF92FF920F931F93DF9388
:1055A000CF93CDB7DEB7E8970FB6F894DEBF0FBE46
:1055B000CDBFBC010091CA051091CB0501151105A5
:1055C00019F428E030E033C0F801128299E1E92EA5
:1055D000F12CEC0EFD1EF782E682CE010D969C8327
:1055E0008B83CE0101960E9479299C010097F9F4E2
:1055F000898D8823D1F08CA184FD17C0F701828D9D
:10560000938DF801978F868FF701848D958DA68DE8
:10561000B78DF801828F938FA48FB58F168A178A62
:10562000108E118E81E0828302C023E030E0C90138
:10563000E8960FB6F894DEBF0FBECDBFCF91DF91D5
:105640001F910F91FF90EF9008954F925F926F928C
:105650007F928F929F92AF92BF92CF92DF92EF9202
:10566000FF920F931F93CF93DF933C016B014A018D
:10567000C091CA05D091CB05FA0111821082209702
:1056800019F428E030E0D1C08A8180FD03C027E012
:1056900030E0CBC02A8D3B8D4C8D5D8D8E899F89EE
:1056A000A88DB98D281B390B4A0B5B0BCB01A0E0F1
:1056B000B0E0281739074A075B0708F4690153016E
:1056C000412C32E0532EABC0EE88FF88088D198D37
:1056D000D801C7019170A070B0700097A105B10505
:1056E00009F05AC0C801B70129E0969587957795CA
:1056F00067952A95D1F7298130E040E050E00E947B
:105700004139611571058105910591F4E114F104A8
:105710000105110519F48E8D9F8D04C088A199A1F2
:105720000E9430278230910550F199A388A31B82F3
:105730000091CA051091CB0568A179A16250704013
:10574000F80180859185029768177907C0F480E099
:1057500090E0218130E040E050E00E94FB389B0166
:10576000AC01F80182899389A489B589280F391F72
:105770004A1F5B1F211531054105510511F41A829D
:105780002EC08B81280F311D411D511D2AA33BA323
:105790004CA35DA38F5F8B832E893F89488D598DE4
:1057A000C9019170B201681B790B76016C157D05FA
:1057B00008F47B018A8131704AA15BA16CA17DA1B3
:1057C00086FF04C087011068C30102C0C5018701BC
:1057D0000E942726009749F01A82029719F021E0CB
:1057E00030E023C026E030E020C0AE0CBF1CC70173
:1057F000A0E0B0E02E893F89488D598D280F391FD0
:105800004A1F5B1F2E8B3F8B488F598FF40180817D
:1058100091818E0D9F1D91838083CE18DF08C11466
:10582000D10409F051CF20E030E0C901DF91CF91E0
:105830001F910F91FF90EF90DF90CF90BF90AF90AE
:105840009F908F907F906F905F904F900895AF9250
:10585000BF92CF92DF92EF92FF920F931F93CF935D
:10586000DF93B82EA92E6A017B012EEF31E002E012
:1058700010E00E942726892B11F023E020C0CB2DB9
:10588000DA2D8881998185559A4A11F022E017C056
:105890008B2D9A2DB701A60126E330E002E010E03F
:1058A0000E942726892B11F021E009C020E0888181
:1058B00099818654914409F421E081E02827822FC0
:1058C000DF91CF911F910F91FF90EF90DF90CF90DC
:1058D000BF90AF9008956F927F928F929F92AF92F8
:1058E000BF92CF92DF92EF92FF920F931F93DF93BD
:1058F000CF93CDB7DEB7A4970FB6F894DEBF0FBE37
:10590000CDBF5C011092CB051092CA05009709F437
:10591000DFC00E946A2580FF03C022E030E0E0C0C3
:105920004E010894811C911CC40140E050E060E0ED
:1059300070E00E94272C813021F0CC24DD247601F8
:105940001BC0C40140E050E060E070E02EEB31E0AD
:1059500000E110E00E942726892B09F0BCC08D8150
:10596000882309F4BBC0C984DA84EB84FC84C401B5
:10597000B701A6010E94272C833009F4ACC088230C
:1059800009F0ACC0CE010196B701A6012DE030E0D0
:1059900004E210E00E942726892B09F09CC08A852A
:1059A0009B85BC0180E090E0611571058105910542
:1059B00021F4688D798D8A8D9B8D2C8130E040E0BB
:1059C00050E00E94FB383B014C018A819B81A0E0A2
:1059D000B0E0C80ED91EEA1EFB1EF501C286D386B2
:1059E000E486F586898181832D813E8135832483F8
:1059F0008F8198857C0100E010E0E114F10401053D
:105A0000110521F4EC88FD880E891F898A819B810C
:105A1000A0E0B0E0E81AF90A0A0B1B0BE618F70839
:105A20000809190974E0369527957A95E1F7C901B7
:105A3000A0E0B0E0E81AF90A0A0B1B0BF50121817E
:105A400030E040E050E0C801B7010E9441392E5FCC
:105A50003F4F4F4F5F4FF50131872087273FFFE0D2
:105A60003F07F0E04F07F0E05F0710F481E006C069
:105A7000275F3F4F4040504088F582E0F50180832A
:105A80002285338544855585D401C301820F931F38
:105A9000A41FB51F86879787A08BB18B84819581C2
:105AA00064E0969587956A95E1F7A0E0B0E0820FF3
:105AB000931FA41FB51F860D971DA81DB91D828BAE
:105AC000938BA48BB58B1282B092CB05A092CA05A2
:105AD00020E030E005C021E030E002C029E030E005
